:020000040800F2
:1000000060590020ED010008F5010008ED670008C7
:10001000F9010008FB010008FD01000800000000D4
:10002000000000000000000000000000FF010008C8
:10003000010200080000000003020008DDB400080F
:10004000070200080702000807020008070200086C
:10005000070200080702000803140008271400081C
:100060002D14000807020008070200080702000814
:10007000070200080702000807020008070200083C
:100080000702000800000000BD0300080702000886
:100090000702000881140008070200083314000852
:1000A0003DB6000841B60008070200080702000834
:1000B00065B6000807020008A5B600080702000898
:1000C00007020008070200080702000807020008EC
:1000D000070200085DCA00080702000807020008BE
:1000E000091400080702000807020008D9B6000832
:1000F000DBB6000807020008070200080000000045
:1001000000000000070200080000000007020008CD
:100110000702000800000000B1B60008070200084E
:10012000070200080702000807020008070200088B
:10013000070200080000000000000000070200089D
:10014000070200080702000800000000000000008D
:10015000000000000000000000000000000000009F
:10016000000000000000000000000000070200087E
:10017000070200080000000000000000000000006E
:10018000000000000702000800000000000000005E
:10019000000000000000000000000000000000005F
:1001A000000000000000000007020008070200082D
:1001B000070200080702000807020008000000000C
:1001C000000000000702000800000000000000001E
:1001D0000702000807020008DFF80CD000F0B0F8B2
:1001E0000048004735D7000860590020064880477E
:1001F00006480047FEE7FEE7FEE7FEE7FEE7FEE70C
:10020000FEE7FEE7FEE7FEE721B60008D901000899
:100210002DE9F05F0546002092469B46884606463B
:10022000814640241BE0284641464746224600F0CE
:1002300076F853465A46C01A914110D311461846D3
:10024000224600F05DF82D1A67EB01084F46224662
:100250000120002100F054F817EB00094E41201E48
:10026000A4F10104DFDC484631462A464346BDE896
:10027000F09F40EA01039B0703D009E008C9121F61
:1002800008C0042AFAD203E011F8013B00F8013B50
:10029000521EF9D27047D2B201E000F8012B491E7C
:1002A000FBD270470022F6E710B513460A46044613
:1002B0001946FFF7F0FF204610BD30B50446002078
:1002C000034600E05B1C934203D2E05CCD5C401B24
:1002D000F8D030BD30B50B46014600202022012465
:1002E00009E021FA02F59D4205D303FA02F5491B04
:1002F00004FA02F52844151EA2F10102F1DC30BD1A
:10030000202A04DB203A00FA02F1002070479140D5
:10031000C2F1200320FA03F3194390407047202ACA
:1003200004DB203A21FA02F00021704721FA02F39F
:10033000D040C2F1200291400843194670470000A6
:10034000064C074D06E0E06840F0010394E8070022
:1003500098471034AC42F6D3FFF742FF58F3000839
:1003600078F3000870B58C1810F8015B15F00703DE
:1003700001D110F8013B2A1106D110F8012B03E03E
:1003800010F8016B01F8016B5B1EF9D12B0705D446
:100390000023521E0DD401F8013BFAE710F8013B8F
:1003A000CB1A921C03E013F8015B01F8015B521EAB
:1003B000F9D5A142D8D3002070BD000010B5044883
:1003C00002F02EFDBDE81040024802F029BD0000F9
:1003D000203C00208C3C002070B5044620688168D9
:1003E00001F0010100293ED181686FF39E1149B1EE
:1003F000E06D40F01000E065206E40F001002066E6
:10040000012070BD816821F03F0121F0004141F0E1
:100410000101816003F0C6FF05462068006810F006
:10042000010F20D12068816801F0010139B981688C
:1004300021F03F0121F0004141F00101816003F012
:10044000B1FF401B022809D9E06D40F01000E065C3
:10045000206E40F001002066012070BD2068006819
:1004600010F0010FDED0002070BD00002DE9F0413A
:100470001E4C5A2020704FF0030C84F801C0A4F1E8
:10048000C805AB78A3700120012B18DB184E291882
:10049000421E897804EB820201EB410106EB8101E7
:1004A00089680F78D7700F883F0A17710F683F0C63
:1004B00057710968090E9171401C8342E7DA0CEB11
:1004C0008300C1B2094800F009FEA97804EB81025B
:1004D000D070BDE8F041042000EB810203494FF4E5
:1004E0007A7301F5AF6006F045B800006C46002055
:1004F00040DF000870B51E4C5A202070EF2060705D
:10050000A4F1C805AB78A3700120012B19DBDFF83B
:1005100064C02918421E897804EB820201EB410174
:100520000CEB810189680E78D6700E88360A167138
:100530000E68360C56710968090E9171401C834291
:10054000E7DA032000EB8300C1B2094800F0C6FDE2
:10055000A97804EB8102D070042000EB8102BDE891
:10056000704003494FF4FA7301F5AF6006F002B82A
:100570006C46002040DF000870B5184C5A202070EF
:10058000F12060700120DFF858C0A4F1C8031918E9
:10059000421E497804EB820201EB41010CEB810120
:1005A00089680D7895700D882D0AD5700D682D0C11
:1005B00015710968090E5171401C0128E7DD0621FB
:1005C000064800F08BFDA071BDE870400349C823C8
:1005D000072201F5AF6005F0CDBF00006C4600209A
:1005E00040DF000870B5184C5A202070F22060706F
:1005F0000120DFF858C0A4F1C8031918421E497839
:1006000004EB820201EB41010CEB810189680D785A
:1006100095700D882D0AD5700D682D0C157109681F
:10062000090E5171401C0228E7DD0A21064800F03E
:1006300055FDA072BDE870400349C8230B2201F5A7
:10064000AF6005F097BF00006C46002040DF000857
:1006500070B5184C5A202070F32060700120DFF82C
:1006600058C0A4F1C8031918421E497804EB82024D
:1006700001EB41010CEB810189680D7895700D88C3
:100680002D0AD5700D682D0C15710968090E517170
:10069000401C0328E7DD0E21064800F01FFDA07373
:1006A000BDE870400349C8230F2201F5AF6005F093
:1006B00061BF00006C46002040DF000870B5184C98
:1006C0005A202070F42060700120DFF858C0A4F197
:1006D000C8031918421E497804EB820201EB41015C
:1006E0000CEB810189680D7895700D882D0AD57005
:1006F0000D682D0C15710968090E5171401C0428F4
:10070000E7DD1221064800F0E9FCA074BDE8704066
:100710000349C823132201F5AF6005F02BBF000089
:100720006C46002040DF00082DE9F05F002007F054
:1007300079FBFE4BDFF8F8A303F110010AF11C046A
:1007400093F801B000260127FA4DDFF8ECC3C81D6D
:1007500004F1240804F1480904F15C02F6EE000AF1
:10076000BBF1070F42D2DFE80BF0410454A4F7F5C8
:10077000F400B2F91C20AAF8022000EE102ABCF8FE
:1007800006C0B8EEC01A00EE10CAF8EE401A93ED9B
:10079000010A61EE801A61EEA01AB4EEE11AF1EEE0
:1007A00010FA01DB4B789BB101EE102AF8EEC11A6A
:1007B00001EE10CAB8EE411A21EE000A20EE200A1E
:1007C000F4EEC01AF1EE10FA0CD24A7822B109E028
:1007D0004278521C427005E090F90120002A01DDA8
:1007E000521E42704278012A02D00020BDE8F09FDC
:1007F0004F7046700421D14803F0C5FDA069C8F8C8
:1008000018002868A0612E60A9F802700120BDE8D8
:10081000F09FB2F91820AAF8042000EE102ABCF8C4
:1008200006C0B8EEC01A00EE10CAF8EE401A93EDFA
:10083000010A61EE801A61EEA01AB4EEE11AF1EE3F
:1008400010FA01DB8B789BB101EE102AF8EEC11A89
:1008500001EE10CAB8EE411A21EE000A20EE200A7D
:10086000F4EEC01AF1EE10FA0CD28A7822B109E047
:100870008278521C827005E090F90220002A01DD86
:10088000521E82708278012A02D00020BDE8F09FBB
:100890008F7086700421A94803F075FDA068C8F820
:1008A00008002868A0602E60A9F806700120BDE845
:1008B000F09FB2F91A20AAF8062000EE102ABCF820
:1008C00006C0B8EEC01A00EE10CAF8EE401A93ED5A
:1008D000020A61EE801A61EEA01AB4EEE11AF1EE9E
:1008E00010FA01D8CB789BB101EE102AF8EEC11AAC
:1008F00001EE10CAB8EE411A21EE000A20EE200ADD
:10090000F4EEC01AF1EE10FA0CDDCA7822B109E05B
:10091000C278521CC27005E090F90320002A01DD64
:10092000521EC270C278012A02D00020BDE8F09F9A
:10093000CF70C6700421814803F025FD6068C8F8B7
:100940000400286860602E60A9F804700120BDE8EA
:10095000F09F9DE04EE0FFE7B2F91A20AAF80820C8
:1009600000EE102ABCF806C0B8EEC01A00EE10CA9D
:10097000F8EE401A93ED010A61EE801A61EEA01ABA
:10098000B4EEE11AF1EE10FA01DB0B799BB101EE46
:10099000102AF8EEC11A01EE10CAB8EE411A21EE83
:1009A000000A20EE200AF4EEC01AF1EE10FA0CD282
:1009B0000A7922B109E00279521C027105E090F92E
:1009C0000420002A01DD521E02710279012A01D0A1
:1009D0000020BCE70F7106710421584803F0D3FCD6
:1009E0002069C8F81000286820612E60A9F80A70F4
:1009F0000120ACE7B2F91820AAF80A2000EE102A6C
:100A0000BCF806C0B8EEC01A00EE10CAF8EE401AE4
:100A100093ED020A61EE801A61EEA01AB4EEE11ABB
:100A2000F1EE10FA01D84B799BB101EE102AF8EEE5
:100A3000C11A01EE10CAB8EE411A21EE000A20EEEA
:100A4000200AF4EEC01AF1EE10FA0CDD4A7922B158
:100A500009E04279521C427105E090F90520002A14
:100A600001DD521E42714279012A01D000206EE759
:100A70004F7146710421314803F085FC6069C8F864
:100A80001400286860612E60A9F80C7001205EE7F0
:100A9000B2F91C20AAF80C2000EE102ABCF806C0FF
:100AA000B8EEC01A00EE10CAF8EE401A93ED020A32
:100AB00061EE801A61EEA01AB4EEE11AF1EE10FABE
:100AC00001D88B799BB101EE102AF8EEC11A01EE24
:100AD00010CAB8EE411A21EE000A20EE200AF4EE08
:100AE000C01AF1EE10FA0CDD8A7922B109E08279A0
:100AF000521C827105E090F90620002A01DD521E89
:100B000082718279012A01D0002020E78F718671DD
:100B100004210A4803F037FCE068C8F80C00286894
:100B2000E0602E60A9F80870012010E7040600209C
:100B3000FC420020940500202C420020000C0048BC
:100B4000F0B4244D224E0027B5F806C0B6F90200D5
:100B50000CF101018BB231460028B1F9041001DD1E
:100B6000002903DB002803DA002901DDEB8021E006
:100B70001749B1F90010CA4350B9002901DB0C46EE
:100B800000E01446041BB4F5FA7F01DAEF8011E0AF
:100B9000002800DAC043002900DA1146401AB0F5F7
:100BA000FA7F01DDEB8005E0BCF1000F02D0ACF173
:100BB0000100E880E888B0F57A7F07D9EF8001204E
:100BC0007074F774F0BC800406F012BAF0BC704781
:100BD00030410020D80500202DE9F003002901DA7A
:100BE000494209B290B14F4F4F4A514C97F80A8091
:100BF0004E4B251F261D128842F2341C804517D10A
:100C0000914208DA41F21040186007E0BDE8F003B5
:100C1000802006F0EDB941F250401860C4F800C0E1
:100C2000C5F800C0C6F800C02160BDE8F0037047F9
:100C300097F80B80804512D1914203DA41F21400FB
:100C4000186002E041F254001860C4F800C0C5F812
:100C500000C0C6F800C02160BDE8F003704797F8F7
:100C60000680804512D1914203DA41F204101860E7
:100C700002E041F204501860C4F800C0C5F800C09A
:100C8000C6F800C03160BDE8F003704797F80780F0
:100C9000804512D1914203DA4FF48A50186002E085
:100CA0004FF4AA501860C4F800C0C5F800C0C6F8D8
:100CB00000C03160BDE8F003704797F808808045B8
:100CC00012D1914203DA41F24100186002E041F290
:100CD00045001860C4F800C0C5F800C0C6F800C0E0
:100CE0002960BDE8F00370477F7A874212D19142B4
:100CF00003DA41F20140186002E041F20540186059
:100D0000C4F800C0C5F800C0C6F800C02960BDE83E
:100D1000F00370470728FAD1BDE8F003802006F001
:100D200067B9000008420020CC050020202C0140BB
:100D3000382C0140F0B4254D234E0027B5F808C0EB
:100D4000B6F96E000CF101018BB231460028B1F901
:100D5000701001DD002903DB002803DA002901DD22
:100D60002B8121E01849B1F96C10CA4350B9002910
:100D700001DB0C4600E01446041BB4F5FA7F01DAEF
:100D80002F8111E0002800DAC043002900DA114663
:100D9000401AB0F5FA7F01DD2B8105E0BCF1000FB0
:100DA00002D0ACF1010028812889B0F57A7F09D9F9
:100DB0002F81012086F87D0086F87F70F0BCC0048A
:100DC00006F016B9F0BC704730410020D80500206D
:100DD0002DE9F003002901DA494209B290B1504FE0
:100DE000504A524C97F81C804F4B251F261D1288E5
:100DF00042F2341C804518D1914209DA41F2104088
:100E0000186008E0BDE8F0034FF4006006F0F0B8A9
:100E100041F250401860C4F800C0C5F800C0C6F8E0
:100E200000C02160BDE8F003704797F81D80804541
:100E300012D1914203DA41F21400186002E041F24B
:100E400054001860C4F800C0C5F800C0C6F800C05F
:100E50002160BDE8F003704797F81880804512D1F3
:100E6000914203DA41F20410186002E041F20450AA
:100E70001860C4F800C0C5F800C0C6F800C03160F2
:100E8000BDE8F003704797F81980804512D1914270
:100E900003DA4FF48A50186002E04FF4AA50186049
:100EA000C4F800C0C5F800C0C6F800C03160BDE895
:100EB000F003704797F81A80804512D1914203DA07
:100EC00041F24100186002E041F245001860C4F8A8
:100ED00000C0C5F800C0C6F800C02960BDE8F00336
:100EE0007047FF7E874212D1914203DA41F20140FE
:100EF000186002E041F205401860C4F800C0C5F86F
:100F000000C0C6F800C02960BDE8F003704707289C
:100F1000FAD1BDE8F0034FF4006006F069B80000B4
:100F200008420020CC050020203401403834014024
:100F3000154AB2F87A00002825D0144B92F97E1099
:100F40005878B1F1FF3F11D001290FD0401CC0B239
:100F500058700A2817D90A205870002082F87F009C
:100F6000012082F87D00800306F042B8B2F96C10CF
:100F7000B2F97020891A00D5C943142903DA002870
:100F800001D0401E5870704730410020D805002025
:100F90002DE9F041002000F0FBFC174E174C4FF4F8
:100FA000FA77002550B9F08940B16088401C80B2C2
:100FB0006080B0F5FA7F02D9678000E0658001208B
:100FC00000F0E6FCA0B9B6F87A0088B1A088401C11
:100FD00080B2A080B0F5FA7F0BD9A780012086F8F7
:100FE0007D0086F87F50BDE8F041800306F000B830
:100FF000A580BDE8F081000030410020D805002028
:1010000070B5DDF810C00024134D286040F6FF7065
:101010006860A960EA60C5F810C0BCF1000F06D98D
:101020002919185D0875601C84B26445F8D30A4913
:1010300005F11402A1F1A80002F05CFA07482A6940
:101040002F23416803EBC20211444160032C01D0FD
:10105000002070BD012070BD683F0020A05100201D
:1010600030B583B00546194C55202070662060705D
:101070008820A0709920E0701548E0601548112183
:10108000017022214170332181704421C1700021FF
:101090000120114A029102F1500300920190410394
:1010A000022204F1AC000BF079FF217904F1AC00CD
:1010B0000AF02EF80F20A8606069686003B0284627
:1010C000BDE8304000210AF0C7B80000A8070020A2
:1010D000443322116C5100201C51002000234A1E71
:1010E000D2B206D3017819448BB2401C521ED2B240
:1010F000F8D2D8B27047026B52F82120C2F30742EF
:10110000D0F834C04FF0FF332CF811300121831890
:1011100083F83810036C114618472DE9F007DDF805
:1011200020C0099E079C002849D0FF27ACEB020590
:10113000EDB2002D04D091F8008008FA05F500E02A
:101140000D7805F0FF0802D0CCF1080501E0C2F1EE
:101150000805EDB2854200D905460CEB0509CCF136
:10116000080C07FA09FA27FA0CFC4AEA0C0C28EAE0
:101170000C0894F800A00AEA0C0C4CEA080C84F85D
:1011800000C02A44D2B2072A07D9002213B14FF077
:10119000FF3C01E04FF0010C614409F0FF0CBCF191
:1011A000070F08D94FF0000C16B14FF0FF3801E0DF
:1011B0004FF001084444401BC0B20028B6D1BDE83E
:1011C000F0077047B0F1FF3F0CD0084AB2F90010A9
:1011D000884201D1491E1180054A00EB40000021E0
:1011E00002F830104FF0FF3070470000083C00203C
:1011F0009C54002070B504460125A089002804D025
:10120000401E80B2A08110B10025284670BDB4F9FF
:101210001400217E90FBF1F001B2A06800F0DBF831
:101220000120A073F1E7807B7047C173704710B550
:1012300004460022114660680BF047FCB4F9141014
:1012400060680BF07FFC0021206809F032FA002270
:101250001146206809F0D2F9E28AB4F91210206828
:1012600009F0CCF9E08A218A48434FF47A71B0FB47
:10127000F1F0401CA08110BD2DE9F047036A4FF04A
:10128000000C002290F87540DD6825F00105DD6056
:101290005E6AB0F870900025A0F870501F6807F0E3
:1012A0001008F70F002F03D06FF0010AC3F810A049
:1012B000D3F80CA04AF0010AC3F80CA026F00043B2
:1012C00009EB0706B6F5006F02D9012780F879709F
:1012D000B8F1100F59D0B0F87270B0F86E80DF1B03
:1012E00006FB087690F8787000EB8707BE62002C4A
:1012F00007D900EB8206B66AB444521CD2B2A242AD
:10130000F7D3426A02FB0CFCB0F86E2090F87540EF
:1013100062439CFBF2F20A80B0F80CC0A2EB0C0C0A
:10132000A0F812C0828190F87820B0F86CC000EB71
:101330008202926A02FB0CF290F801C002FB0CF2EE
:10134000B0F86EC092FBFCF2D0F81CC00CFB02F2AD
:10135000B0F81AC092FBFCF2C281A0F8723090F88B
:101360007820521C80F8782090F8782090F875301A
:101370009A4201D180F8785090F8792092B10021FA
:1013800080F87650C27802700FE0B0F87270B0F852
:101390006E80DF1B06FB187690F8787000EB8707ED
:1013A000BE62A4E709F0C0F801460846BDE8F08730
:1013B000002190F87520002A09D9002200EB810352
:1013C0009A62491CC9B290F875308B42F6D8012157
:1013D00080F876107047026AC18043784B4383805F
:1013E0004FF6FF73002903DA494289B2591A00E027
:1013F00089B2B0F86E004843B0FBF3F080B250629F
:101400007047012002F08CBE10B54FF4005002F07E
:1014100087FE4FF4804002F083FEBDE810404FF499
:10142000004002F07DBE022002F07ABE042002F0ED
:1014300077BE10B5202002F073FE402002F070FE4F
:10144000BDE81040802002F06BBE72B6FEE70021BE
:10145000002812D0017843785A180021002B09D9AE
:1014600000EB010C9CF802C0624492B2491CC9B264
:101470008B42F5D802EB1220C1B20846704700003B
:10148000014802F05AB90000C03E0020144901642E
:101490000268D2F88030B0F834C023F4F81343EA7D
:1014A0000C43C2F880300F4A42640268D2F88030A0
:1014B00090F838C023F0706343EA0C63C2F88030C0
:1014C000094A8264094AC264094A0265094A4265B6
:1014D000002201F554700A60091D8142FBD3704758
:1014E00000A4004070A40040B0A4004088A50040C3
:1014F00060A6004078A6004010B588B00024029491
:101500000394022004900120059006940794144847
:10151000C461046244628462C46202A9A83802F011
:1015200011F808B1FFF791FF00231A4619460D483C
:10153000009402F037F808B1FFF787FF094802F07E
:1015400038FB08B1FFF781FF00220121054801F0B7
:1015500043FF002801D0FFF778FF08B010BD00005E
:10156000683F0020C03E002070B4D1F81CC0CC6899
:101570008D684CEA040C0C68002D3ED044F0804489
:101580004CEA040C4D6A8C6A91F82C602C430D6A6D
:1015900045EA06652C430D8A44EA0544406D03EB99
:1015A000C30300EBC300C0F800C0001D0460031DAE
:1015B0000020134CD1F810C014F80CC0BCF1000F7F
:1015C00019D902EB000C155C9CF8036045EA06652E
:1015D0009CF802609CF801C0360446EA0C2C45EAEF
:1015E0000C0CC3F800C01B1D001DD1F810C014F86E
:1015F0000CC08445E5D870BC70474CEA844CC1E708
:1016000010DF0008124A107F1249012801D0032878
:101610000BD10B6843F400630B600B6823F4006389
:101620000B600B6843F400730B60022801D00328A1
:101630000BD1086840F480500860086820F480509E
:101640000860086840F480600860002010777047E8
:10165000A80500200020024010F0010F054803D02B
:10166000416941F004014161416941F480314161C6
:10167000704700000020024008494A69C0B222F4C5
:10168000FC7242EAC0004861486940F002004861CB
:10169000486940F4803048617047000000200240F3
:1016A0000549D1F814C04CF0010CC1F814C0026017
:1016B000BFF36F8F436070470020024040220A4B07
:1016C000D3F814C04CF4802CC3F814C0EFF3108C82
:1016D00072B60B680360001D091D521ED2B2002AAB
:1016E000F7D18CF3108870470020024070B5064691
:1016F00002F058FE0546184C206910F4803F0AD0CD
:1017000002F050FE401BB04201D9032070BD206999
:1017100010F4803FF4D121694CF2FA30084098B1BE
:101720000E494A6802434A6010F0404F04D0A16954
:1017300000F040421143A16130F0404102D020F05E
:1017400040402061012070BD206910F0010F01D0E0
:1017500001202061002070BD00200240A80500206B
:1017600030B583B0054605EB450000EB0511104888
:1017700000EB410494F82400002816D10D4850F8DD
:10178000250008F003FFE08320820B4951F8252053
:10179000002A0AD0ADF80800A08AADF80A00104669
:1017A000029900F052F80190206103B030BD0000B2
:1017B000983F00201C0500206405002010B584B06F
:1017C0000446002003900290019004EB440101EBD9
:1017D0000412174901EB420108604860C8600861C3
:1017E000C883C1F81600C1F81A0008841148002106
:1017F00050F8240007F0E6FE0F48002150F82400BE
:1018000007F0E0FE0D4850F8240008F0EFFE0C4809
:1018100050F8240007F083FF0A4850F824000028FD
:1018200004D004B0BDE8104000F05EB804B010BDB4
:10183000983F00202C050020340500201C050020C6
:101840004C05002064050020704773B504462089CC
:10185000618A48434FF47A71B0FBF1F5608910FB5F
:1018600000F1A08910FB00F0084405F05AFBE0816C
:10187000B0F5004F01DB47F6FF70291A206807F02A
:10188000A7FE002803DBBDF90600208202E0B4F9C0
:1018900010100844B4F91610814200DD0846ADF876
:1018A0000600A16900FB101005F03BFB05466068CF
:1018B00007F0FEFD00FB05F67142606807F084FE4C
:1018C0003146606807F082FEBDF90400A84202DDDF
:1018D000ADF8045005E06942884202DA6842ADF88A
:1018E0000400019802B070BD70B5044600250021C7
:1018F000206807F067FEC4F80A50E581258270BDB4
:1019000007485A210170E221417000218170F021C5
:10191000C17001464FF47A730422024804F02ABED3
:101920002E060020E44B002030B40022002914D9F8
:101930000B4CDFF830C002EB420304EB83035B790E
:101940003BB9DCF818301D6840F822500833CCF859
:101950001830521C92B28A42EDD330BC704700005E
:1019600040DF00083806002010B5074C207800281A
:1019700008D04FF49671054805F012FA002801D0FE
:101980000020207010BD00002406002034470020F5
:1019900000EBC00101EB4102114901EB82010B7C1C
:1019A0004A6E91F912C053430E4A92FBF3F303FBC4
:1019B0000CF38B8000EB80030B4800EB0310C36C2F
:1019C0009B0092FBF3F2C282084A086E1268101A5A
:1019D000032801D900208880B1F904007047000075
:1019E00030410020008793037443002090050020BD
:1019F000A0F10060C00A7047144908280CD2DFE843
:101A000000F004141C180C1008204FF4006005F0BE
:101A1000EFBA41F214400860704741F214100860B8
:101A2000704741F244100860704741F2411008606D
:101A3000704741F241400860704741F21140086030
:101A400070474FF4006005F0D3BA00002034014025
:101A500070B504460D46E06A94F849200021002A3A
:101A600039D0806AB4F8AE20904202D3E181298057
:101A70002CE0B4F9A400E08100B3A0F5FE42FF3AE7
:101A800021D094F8C720012A1AD0B4F8AA10A2884D
:101A9000891A09B2A4F8A810B4F8C42091FBF2F195
:101AA000A4F8AC10618B6278484300EB8000E169D8
:101AB0004000514390FBF1F0288007E0298005E0C9
:101AC000A4F8AC10EEE7B4F8B00028802946204610
:101AD00008F02AFD04E00020E2782270E1812980EC
:101AE0002988A18170BDC16ACA6822F00202CA6059
:101AF000002280F84A2080F84B20012380F84930EA
:101B0000428280F84C2080F84D2080F84E20A0F8CA
:101B1000AC2080F8A23080F898200270B0F8AE3087
:101B20008B624A620A6842F001020A60CA6842F0A7
:101B30000202CA6000F032B870B50A4D0121284691
:101B400002F01AFC44000221284602F015FC204352
:101B500044000421284602F00FFC204300F0070057
:101B600070BD00000004004870B50B4D4FF40051EB
:101B7000284602F001FC44004FF48041284602F060
:101B8000FBFB204344004FF40041284602F0F4FBE5
:101B9000204300F0070070BD0008004870B490F8C2
:101BA0002060D0F830C0056C446BC36B826B416C15
:101BB000002E20D0126933EA020238D0002282F0CF
:101BC000010292002B69994333D0002142EA41027D
:101BD000DCF8101034EA01012DD00021114380F807
:101BE000A61090F8A61007294BD2DFE801F04A2C86
:101BF000383244263E002D69A94312D000218D00C1
:101C0000116933EA01010ED0002145EA4102DCF8F6
:101C1000101034EA010108D00021114380F8A61009
:101C2000DFE70121EBE70121EFE70121F5E70122E1
:101C3000C5E70121CAE70121D0E7418C41F25552A5
:101C40001144818020E0418C43F6FF721144818071
:101C50001AE0418C46F6AA221144818014E0418C9E
:101C6000A1F5D441AA3981800EE0418CA1F57C51C7
:101C7000FF39818008E0418CA1F5A8515539818058
:101C800002E0002180F849108188A0F8AA1070BCF9
:101C900070472DE9F007C26A90F84910002900F05A
:101CA000968190F8A61090F9A25090F82030A3B336
:101CB000D0F83CC0836B1B693CEA030352D000237D
:101CC00083F001039C00D0F844C0036C1B693CEA1C
:101CD000030349D0002344EA4304D0F834C0036B23
:101CE0001B693CEA030341D00023234380F8A6305C
:101CF00090F8A66000244FF0FF3342F6AA2745F281
:101D0000555947F6FF784FF0010C072E74D2DFE8E3
:101D100006F0A8416754942F7D00D0F844C0036CAE
:101D20001B693CEA030317D000239C00D0F83CC099
:101D3000836B1B693CEA030310D0002344EA43048D
:101D4000D0F834C0036B1B693CEA030308D00023BE
:101D5000234380F8A630CBE70123E6E70123EDE734
:101D60000123F5E70123ABE70123B4E70123BCE737
:101D7000042902D0012906D075E080F8A2C0418C68
:101D8000A0F8AA106FE080F8A230418C3944A0F886
:101D9000AA1068E0052902D0032907D063E080F883
:101DA000A2C0418C3944A0F8AA105CE080F8A230AF
:101DB000418C4944A0F8AA1055E0012902D002291B
:101DC00007D050E080F8A2C0418C4944A0F8AA1086
:101DD00049E080F8A230418C4144A0F8AA1042E0CA
:101DE000032902D0062908D03DE080F8A2C0418C2A
:101DF0004144A0F8AA1036E033E080F8A230418CCC
:101E0000A1F5AA415539A0F8AA102CE0022902D068
:101E1000042909D027E080F8A2C0418CA1F5AA418D
:101E20005539A0F8AA101EE080F8A230418CA1F527
:101E30002851AA39A0F8AA1015E0062902D00529D0
:101E400009D010E080F8A2C0418CA1F52851AA3930
:101E5000A0F8AA1007E080F8A230418CA0F8AA10E0
:101E600001E080F8494090F9A210A94203D080F81F
:101E70004D4080F8984090F8C710012902D1B0F881
:101E8000AA10818090F84C10F1B190F84D1090F8A4
:101E90002630994204D290F84D10491C80F84D101C
:101EA000516B8DB2916A89B290F84E3005EB0343C5
:101EB00090F84E60D6B1491C89B2594390F84B3026
:101EC0004BB180F84B4027E090F84C10491C80F84B
:101ED0004C10506B7BE0936AB0F8AE50AB421BD213
:101EE000936A5B1C936280F84BC015E090F84A60DF
:101EF0002EB1891C89B2594380F84A400CE0491C34
:101F000089B25943B5F5AA4F06D2936A23B1936AB1
:101F10005B1E936280F84AC0D0F8BC208A4254D835
:101F200090F89830D0F89C2000EB83031B6DD21AF8
:101F3000C0F89C20D0F8B8208A4208D890F9A23086
:101F40005A4390F8983000EB83031A6511E090F83B
:101F5000982000EB8202116590F8982000EB820334
:101F600090F9A2204A431A65D0F89C301A44C0F870
:101F70009C2090F89820521CD2B280F8982090F8BB
:101F800026309A4201D180F8984090F84920D2B189
:101F900090F84D3090F82620934209D2D0F8B42022
:101FA000B2FBF1F190F9A2205143A0F8A4100CE08B
:101FB000D0F89C1091FBF2F1D0F8B42092FBF1F133
:101FC000A0F8A41001E0A0F8A44080F84E40BDE8BD
:101FD000F0070020704770B50446E16A94F84900A4
:101FE00000283BD094F84E00401C84F84E00886ACC
:101FF0004FF47A71401C4843B4F8C010B4F8C220C2
:102000005143B1FBF0F080B294F84E10814225D3D9
:102010000025E5812046FFF7C1FD84F84E5084F885
:102020004C50002094F8261000290AD904EB8002B5
:10203000D4F8B8101165401CC0B294F82610814243
:10204000F4D884F84D50A4F8A45084F8985094F82B
:102050002610D4F8B8004843C4F89C00002070BD96
:10206000704700002DE9F80700239C46CDF800C01A
:1020700000224669F94D90F85840012C0DD00124FA
:1020800080F85840F64F66B10E6A012E09D0D0F89C
:102090006880B8F1000F20D02EE0BDE8F8070220DC
:1020A00070474A68092A41D18A6A4AB10E6802F02B
:1020B0007C0206F0F84642EA5642CE6A324303E01A
:1020C0000A6802F0F842520C0668D6F84C8008EA1A
:1020D00007071743F764426628E08666C0F864C0C5
:1020E0008A6A3AB10E6A02F07C02761E3243CE6AE8
:1020F000324301E00A6A521E0E6891F80480C6F36A
:10210000846608F01F0806FA08F63243866E761ECB
:102110008666D0F8648048EA0202426636B90668EC
:10212000D6F84C8008EA07073A43F26402689668DA
:10213000C6F3C00656B991F82560A6B1D66891F8E5
:10214000267026F4401646EA4756D660026896681E
:10215000C6F380069768C7F3C00737434FF00706FA
:102160000ED000F04BB991F8266091F824707605F6
:1021700046EA0756D76827F440173E43D660E5E79E
:102180008F6A002F6DD0CF6A002F6AD091F825702A
:10219000012F76D0D76827F00077D76091F83020EC
:1021A000012A74D00268176927F002071761D1F875
:1021B0000880B8F1004F79D007680A6802F000790A
:1021C00007EBD957D7F81490C2F3045206FA02FA73
:1021D00029EA0A0908FA02F249EA02027A61026867
:1021E000576927F00047576102684F69D2F80C80A1
:1021F000C8F3C1084FEA480807FA08F80F69042F26
:1022000073D0D1F8009002EB8702176EDFF854A26A
:1022100009F0F84907EA0A0749EA080847EA0807FF
:1022200047F0004717660268D1F810808F6902EB0B
:102230008802D2F8608028F0807848EA070717669D
:102240000F7F0268D1F81080012F4BD0002702EBDE
:102250008802D2F8608028F0007848EA07071766FD
:10226000CCE091F82570012F06D0D76827F00077D1
:10227000D76093E705E00AE0D76847F00077D760BA
:102280008CE7C26D42F02002C265012386E78F6BA6
:102290004A6B17430268D2F8108028F4FF7848F0A0
:1022A000020847EA0807176181E7FFE707680A683D
:1022B0004FF0000802F0007907EBD957D7F81490D7
:1022C000C2F3045206FA02FA29EA0A0908FA02F2EB
:1022D00049EA02027A610268576947F0004757618C
:1022E00082E702E04FF00077B1E702F160073F6854
:1022F00000277F037F0B7CD002F160073F6807F067
:10230000F84797FAA7F7B7FA87F80F68C7F31209E3
:10231000B9F1000F6ED097FAA7F7B7FA87F7B8456B
:1023200003D1176E27F0004717660268121D02F1ED
:1023300060073F6800277F037F0B71D002F16007C1
:102340003F6807F0F84797FAA7F7B7FA87F80F68DA
:10235000C7F31209B9F1000F6AD097FAA7F7B7FAD5
:1023600087F7B84503D1176E27F000471766026854
:10237000083202F160073F6800277F037F0B5AD0C5
:1023800002F160073F6807F0F84797FAA7F7B7FA36
:1023900087F80F68C7F31209B9F1000F53D097FA05
:1023A000A7F7B7FA87F7B84503D1176E27F00047AC
:1023B000176602680C3202F160073F6800277F034E
:1023C0007F0B43D002F160073F6807F0F84797FAA8
:1023D000A7F7B7FA87F80F68C7F31209B9F1000F2A
:1023E00043D097FAA7F7B7FA87F7B84506D1176E23
:1023F00001E009E010E027F00047176602689768DF
:1024000007F0010787B3D2E002F160073F6807F0E9
:10241000F8474FEA976878E7C7F384677FE7FFE7F5
:1024200002F160073F6807F0F8474FEA97688EE7C8
:10243000C7F3846795E702F160073F6807F0F84744
:102440004FEA9768A5E7C7F38467ACE702F1600736
:102450003F6807F0F8474FEA9768BCE700007F4005
:102460000040100400F0FF0302E0C7F38467BCE7FC
:1024700091F80C800F68D2F8B090C7F3120A29EADD
:102480000A09DFF8E4A108F018082AFA08F808EAAF
:10249000070749EA0707C2F8B070CA68AA427CD1A8
:1024A0000A68076812EA0A051AD092FAA2F5B5FA84
:1024B00085F56D1C05F01F05092D32D8C2F31205F4
:1024C000002D10D092FAA2F5B5FA85F505F10105B7
:1024D00005F01F0504FA05F508D1C2F3846409E08C
:1024E000C2F38465E5E7C2F38465EFE792FAA2F4EC
:1024F000B4FA84F404F1010404F01F0445EA84648E
:1025000002D1C2F3846203E092FAA2F2B2FA82F23A
:1025100002F1010202F01F0202EB420244EA0252FF
:1025200032E0C2F31205002D0DD092FAA2F5B5FAF1
:1025300085F505F1010505F01F0504FA05F505D13E
:10254000C2F3846406E0C2F38465F2E792FAA2F46F
:10255000B4FA84F404F1010404F01F0445EA84642D
:1025600002D1C2F3846203E092FAA2F2B2FA82F2DA
:1025700002F1010202F01F02A2F10A0202EB420282
:1025800044EA025242F000728D6802F0007407EBD8
:10259000D4546769C2F3045200E008E006FA02F678
:1025A00027EA060605FA02F246EA020262610A68B2
:1025B0002E490A4252D02E4CA16801F0E07102F17E
:1025C000705515F55F0502D02A4DAA4202D111F4CB
:1025D000000F11D0284D02F1605616F52E0602D1DB
:1025E00011F0807F25D002F1505616F5F80635D14E
:1025F00011F4800F28D031E00268B2F1A04F2DD144
:1026000041F40001A26822F0E0721143A1601B496D
:102610001B4A0968B1FBF2F101EB4101890000910D
:102620000099D9B10099491E009100990029F9D16A
:1026300014E00268AA4211D041F08071A26822F031
:10264000E0721143A16009E00268AA4206D041F499
:102650008001A26822F0E0721143A16080F858C0A6
:102660001846BDE8F8077047FFFF07000000088024
:10267000000300501000C09000010050C805002069
:10268000400D0300F0B44749036800250A78464C22
:10269000A3F1A04C4FF0A046BCF5807C45D1D6F804
:1026A0008C110BB241490B86B1F918C0A3EB0C0396
:1026B000DB1063440B83D6F884311BB24B86B1F92F
:1026C0001AC0A3EB0C03DB1063444B83D6F88831AC
:1026D0001BB28B86B1F91CC0A3EB0C03DB10634467
:1026E0008B83032A21D1D6F8801109B2A182002957
:1026F00000DAA582B4F91430B4F916105B1A1B1174
:10270000194409B2E18200EE101ADFED290A9FEDAB
:10271000291AB8EEC00A20EE200AD4ED090A00EE0C
:10272000810A84ED0A0A84ED090A0068B0F1A04F1D
:1027300009D1D6F88400204B80B21880D988401A7D
:1027400000110844D880032A29D1174AB4F902009D
:10275000517CB2F90E20002801DA002A11DC002891
:1027600001DD002A0DDB60B101290AD01348808801
:10277000E081E07C01280AD0002810D1F0BC08F0EC
:1027800081BC0F4845610F484561E581F1E70029AB
:1027900005D1B4F90E10F0BC002008F0D1BBF0BC9C
:1027A00070470000020000203041002074430020E8
:1027B0000AD7A33B52B87E3F2C4200208805002058
:1027C000904F0020005000207047000070B5044674
:1027D0004B48806800F01F0520688168C1F3C00184
:1027E000002901D0022070BDC16801F00041C06C19
:1027F00010F4C07F00D191B194F85800012814D092
:10280000012084F858002046FDF7E6FD024610003E
:102810004FF0000C0BD084F858C0104670BDE06D2E
:1028200040F02000E065012070BD022070BDE06D29
:1028300010F4807F04D0206E20F00800206601E0B4
:10284000C4F860C0E06D20F0010020F4005040F4B6
:102850008050E0652B4B2068984202D14FF0A04198
:1028600000E00146814200D01DB9E16D21F48011E4
:10287000E1656021016084F858C02068C16811F4E6
:10288000001F03D0416841F480614160A0690828BD
:102890000FD02068416821F0400141602068416804
:1028A00041F020014160206898420DD14FF0A041D5
:1028B0000BE02068416821F02001416020684168F8
:1028C00041F040014160EEE70146814209D045B147
:1028D000062D06D0072D04D0E06D40F48010E06591
:1028E0009BE7C16801F00071002996D1816821F051
:1028F0003F0121F0004141F0080181608DE70000B7
:102900000003005000010050704770472DE9F807A0
:1029100000239C46CDF800C0FE4E90F85820012AB6
:1029200012D0012480F858400568AA68C2F38002DA
:1029300072B1C16D41F02001C165012380F858C01A
:102940001846BDE8F8077047BDE8F8070220704751
:102950008A880F6802F4407805EB9815D5F8308026
:1029600002F01F024FF01F0909FA02F9C7F384674A
:1029700028EA090807FA02F248EA02022A63026812
:102980009568C5F380059768C7F3C0072F434FF0DC
:10299000070540F0FF80D1F80880B8F1004F53D010
:1029A0000F6807F0007902EBD952D2F81490C7F300
:1029B000045705FA07FA29EA0A0908FA07F749EA63
:1029C000070757610268576927F000475761026897
:1029D0004F69D2F80C80C8F3C1084FEA480807FADB
:1029E00008F80F69042F4CD0D1F8009002EB870251
:1029F000176EDFF824A309F0F84907EA0A0749EA45
:102A0000080847EA080747F0004717660268D1F848
:102A100010808F6902EB8802D2F8608028F08078FD
:102A200048EA070717660F7F0268D1F81080012F68
:102A300024D0002702EB8802D2F8608028F00078CA
:102A400048EA07071766A5E00F684FF0000807F08F
:102A5000007902EBD952D2F81490C7F3045705FA63
:102A600007FA29EA0A0908FA07F749EA0707576146
:102A70000268576947F000475761A8E74FF00077B1
:102A8000D8E702F160073F6800277F037F0B7CD007
:102A900002F160073F6807F0F84797FAA7F7B7FA1F
:102AA00087F80F68C7F31209B9F1000F6ED097FAD3
:102AB000A7F7B7FA87F7B84503D1176E27F0004795
:102AC00017660268121D02F160073F6800277F0346
:102AD0007F0B71D002F160073F6807F0F84797FA63
:102AE000A7F7B7FA87F80F68C7F31209B9F1000F13
:102AF0006AD097FAA7F7B7FA87F7B84503D1176EE8
:102B000027F0004717660268083202F160073F6845
:102B100000277F037F0B5AD002F160073F6807F060
:102B2000F84797FAA7F7B7FA87F80F68C7F31209BB
:102B3000B9F1000F53D097FAA7F7B7FA87F7B8455E
:102B400003D1176E27F00047176602680C3202F1B6
:102B500060073F6800277F037F0B43D002F16007C7
:102B60003F6807F0F84797FAA7F7B7FA87F80F68B2
:102B7000C7F31209B9F1000F3CD097FAA7F7B7FADB
:102B800087F7B84506D1176E01E009E010E027F09D
:102B9000004717660268976807F001076FB3D1E036
:102BA00002F160073F6807F0F8474FEA976878E757
:102BB000C7F384677FE7FFE702F160073F6807F02C
:102BC000F8474FEA97688EE7C7F3846795E702F105
:102BD00060073F6807F0F8474FEA9768A5E7C7F333
:102BE0008467ACE702F160073F6807F0F8474FEAF7
:102BF0009768BCE7C7F38467C3E791F80C800F6858
:102C0000D2F8B090C7F3120A29EA0A09DFF80CA13A
:102C100008F018082AFA08F808EA070749EA070737
:102C2000C2F8B070CA68B2427AD10A68076812EA7C
:102C30000A061AD092FAA2F6B6FA86F6761C06F0C2
:102C40001F06092E32D8C2F31206002E10D092FAB7
:102C5000A2F6B6FA86F606F1010606F01F0604FA99
:102C600006F608D1C2F3846409E0C2F38466E5E79E
:102C7000C2F38466EFE792FAA2F4B4FA84F404F1A2
:102C8000010404F01F0446EA846402D1C2F38462A2
:102C900003E092FAA2F2B2FA82F202F1010202F029
:102CA0001F0202EB420244EA025232E0C2F3120671
:102CB000002E0DD092FAA2F6B6FA86F606F10106BB
:102CC00006F01F0604FA06F605D1C2F3846406E096
:102CD000C2F38466F2E792FAA2F4B4FA84F404F13F
:102CE000010404F01F0446EA846402D1C2F3846242
:102CF00003E092FAA2F2B2FA82F202F1010202F0C9
:102D00001F02A2F10A0202EB420244EA025242F01E
:102D1000007206E000007F4000F0FF03FFFF0700A5
:102D200010E08E6802F0007407EBD4546769C2F3B8
:102D3000045205FA02F527EA050506FA02F245EA09
:102D4000020262610A682F490A423FF4F7AD2E4C35
:102D5000A16801F0E07102F1705515F55F0502D030
:102D60002A4DAA4202D111F4000F1ED0284D02F1C3
:102D7000605616F52E0602D111F0807F35D002F193
:102D8000505616F5F8067FF4D9AD11F4800F7FF494
:102D9000D5AD0268AA423FF4D1AD41F48001A268EA
:102DA00022F0E0721143A160C8E50268B2F1A04FC1
:102DB0007FF4C4AD41F40001A26822F0E072114337
:102DC000A1601449144A0968B1FBF2F101EB410119
:102DD00089000091009900293FF4B0AD0099491E87
:102DE000009100990029F9D1A8E50268AA423FF4B0
:102DF000A5AD41F08071A26822F0E0721143A1609C
:102E00009CE5000000000880000300501000C09006
:102E100000010050C8050020400D030070477047B6
:102E20002DE9F04704464FF0000820680568466821
:102E3000DFF8B8A2DAF8080000F01F0715F0020F5B
:102E400010D016F0020F0DD0E06D10F0100F03D16E
:102E5000E06D40F40060E0652046FFF701F921686D
:102E600002200860DFF8889215F0040F02D016F0F7
:102E7000040F05D115F0080F42D016F0080F3FD00F
:102E8000E06D10F0100F03D1E06D40F40070E065CC
:102E90002068C16811F4406F06D0002151B3484545
:102EA00004D14FF0A04102E00121F7E70146814241
:102EB00009D047B1052F06D0092F04D0484504D1C9
:102EC0004FF0A04102E0C16801E00146C96811F479
:102ED000005F0FD1016811F0080F0BD08168C1F3BA
:102EE0008001A1B1E06D40F01000E065206E40F07F
:102EF000010020662046FFF791FF21680C20086042
:102F000015F0200F14D016F0200F17D110E04168F3
:102F100021F00C014160E06D20F48070E065E06D0F
:102F200010F4805FE6D1E06D40F00100E065E1E77C
:102F300015F0400F50D016F0400F4DD0E06D10F05E
:102F4000100F03D1E06D40F40050E0652068C16CC3
:102F500011F4C07F0AD00022C16811F4406F07D07D
:102F60000023484506D14FF0A04104E00122F3E7D9
:102F70000123F6E70146814209D047B1062F06D06A
:102F8000072F04D0484504D14FF0A04102E0C168AA
:102F900001E00146C96832B911F0007F16D1ABB12A
:102FA00011F4005F12D1026812F0400F0ED011F43C
:102FB000001F0BD18168C1F3C001E1B3E06D40F0A7
:102FC0001000E065206E40F0010020662046FFF70B
:102FD00059FB21686020086015F0800F0CD016F0B6
:102FE000800F09D0E06D40F48030E065204600F0AD
:102FF00087F921688020086015F4807F0DD016F4D1
:10300000807F0AD0E06D40F40030E0652046FFF795
:103010007BFC21684FF48070086015F4007F0FD0AE
:1030200016F4007F0CD0E06D40F48020E06520466F
:10303000FFF76BFC00E014E021684FF400700860BB
:1030400015F0100F39D016F0100F36D0E06BC8B164
:10305000DFB1DAF8080000F46040E8B14FF0010891
:103060001AE0416821F060014160E06D20F4805079
:10307000E065E06D10F4807FA8D1E06D40F00100C4
:10308000E065A3E74FF0010806E02068C06810F093
:10309000010F01D04FF00108B8F1010F0AD1E06D26
:1030A00040F48060E065206E40F00200206620461B
:1030B000FFF7B5FE21681020086015F4806F13D06B
:1030C00016F4806F10D0E06D40F48040E065206E13
:1030D00040F00800206621684FF4806008602046B8
:1030E000BDE8F047FFF770BBBDE8F0870003005074
:1030F00000010050F8B50446002500260096002C7B
:1031000002D0E06D10B107E00120F8BD204600F0CC
:10311000F9F8266684F8586020688168C1F3407128
:1031200029B1816821F03F0121F0204181602068B0
:103130008168C1F30071A9B9816821F03F0121F0D4
:10314000004141F080518160684869490068B0FBE6
:10315000F1F00090009828B10098401E009000986F
:103160000028F9D120688168C1F3007141B9E16D8F
:1031700041F01001E165216E41F001012166012558
:103180008168C1F38001E26D12F0100F00D131B1FE
:10319000E06D40F01000E06501252846F8BDE16DC6
:1031A00021F4807141F00201E165806800F00100C6
:1031B00088B94FF0A040806800F001004D4989684F
:1031C00001F00101084306D160684B498A6822F486
:1031D0007C1210438860E168E06B627F0843A1685D
:1031E00041EA4231084394F8241040EA01400129A1
:1031F00003D1218D491E40EA4140E16A21B101F429
:103200007871226B084310432168CA683B4B1A400F
:103210001043C86020680169626B21F0406111436E
:10322000016120688168C1F380018268C2F3C00235
:10323000114332D1217F94F83820890341EA4201B9
:10324000C26822F0020222F480421143C160206968
:1032500070B12068016941F4803101612068D0F8C3
:10326000C01022696FF30D011143C0F8C0100BE0CC
:103270002068016921F4803101612068D0F8C01014
:103280006FF30D01C0F8C01094F84000012813D06E
:103290002068016921F001010161606901281CD0E9
:1032A0002068016B21F00F010163E06D20F0020046
:1032B00040F00100E06570E7A16C606C226D08438E
:1032C000E16C114340EA0102206801696FF38A0151
:1032D000114341F001010161DFE72068016B226ABF
:1032E00021F00F01521E11430163DEE7C8050020E3
:1032F000400D030000010050000300500740F0FFA4
:103300007047000070B586B00024019402940394C5
:103310000494059402682D4903252D4EB2F1A04F67
:103320002AD0A2F1A040B0F5807023D129480268CC
:10333000521C0260C86C40F00100C864C86C00F008
:1033400001000090C86C40F00400C864C86C00F034
:103350000400009051200190029501A94FF0904087
:1033600000F0EAFE382001900295039401A930464E
:1033700000F0E2FE06B070BDC86C40F40050C864B6
:10338000C86C00F400500090886C40F00100886424
:10339000886C00F001000090C86C40F00100C86427
:1033A000C86C00F001000090C86C40F00400C864D4
:1033B000C86C00F00400009007200190029501A95C
:1033C000304600F0B9FE06B070BD000000100240AB
:1033D000000800489805002010B490F85C30012BDC
:1033E00008D0022B06D0016E41F00201016610BC2C
:1033F00001207047D0F800C0DCF8583011F0070FFA
:1034000002D013F0010F23D011F0380F02D013F0C7
:10341000020F1DD011F4E07F02D013F0040F17D07B
:1034200011F4F05F02D013F0080F11D011F4604FC7
:1034300002D013F0100F0BD011F4403F02D013F064
:10344000200F05D011F47C0F08D013F0400F05D1E8
:10345000DCF85C4044F00104CCF85C4011F0070F4C
:1034600002D013F0010F23D111F0380F02D013F066
:10347000020F1DD111F4E07F02D013F0040F17D119
:1034800011F4F05F02D013F0080F11D111F4604F66
:1034900002D013F0100F0BD111F4403F02D013F003
:1034A000200F05D111F47C0F09D013F0400F06D086
:1034B0000368D3F85CC04CF0020CC3F85CC011F098
:1034C000800F06D00368D3F8DCC04CEA020CC3F8C6
:1034D000DCC011F4807F06D00368D3F8E0C04CEA6A
:1034E0000202C3F8E0200068426D1143416510BC40
:1034F0000020704770B5044694F85C00022805D09F
:10350000206E40F008002066012070BD2068D0F8D1
:10351000C43013F4001F05D0206E40F40070206604
:10352000012070BDD0F8C400C0F301452B462046F1
:10353000FEF71AF821680120A840C1F8CC00A06568
:10354000002070BD90F85C20012A07D0022A05D027
:10355000016E41F002010166012070470A6882B1E4
:103560000B7B0A6942EA437391F808C04A6942EA50
:103570008C72406C496800EBC1000360426000201F
:1035800070470B7A4A69B1F810C042EA83720B7B2C
:10359000DB0643EA0C431A43006C496800EB8100E8
:1035A0000260ECE710B4DDF804C090F85C40012C38
:1035B00006D0016E41F00401016610BC0120704785
:1035C0000901006841EA820141EA4301D0F8802004
:1035D00041EA0C0122F03F021143C0F8801010BCF8
:1035E00000207047704770470068402904D0D0F829
:1035F000980000F00F007047D0F8900000F00F0026
:1036000070470000F0B490F85CC0BCF1020F06D027
:10361000016E41F008010166F0BC012070474029AD
:103620005CD0D0F800C0DCF8984014F00F0F6FD0D9
:10363000DCF898C0CCF30124D0F84CC004EBC405EE
:103640000CEBC50CDCF8005005F080459560002DB2
:1036500065D0DCF8005025F060451560DCF80050BE
:1036600005F00055D560DCF8005005F00045D56147
:10367000BCF80450ADB29562DCF80450C5F30347C2
:103680001761DCF8045005F480151562DCF804506D
:1036900005F400155562DCF80450C5F30665D562E3
:1036A0005CF8045FED0F15630CF104054FF0000C9E
:1036B000204EF75D002F09D915F80C7003F80C7037
:1036C0000CF1010C1769F75D6745F5D840292CD03E
:1036D0000068C0F89C40F0BC00207047D0F800C0E3
:1036E000DCF8904014F00F0F0AD0DCF890C0CCF357
:1036F0000124D0F848C004EBC4050CEBC50CA1E7CD
:10370000016E41F480710166F0BC01207047FFE753
:10371000016E41F480710166F0BC01207047DCF855
:103720000050C5F38A45156098E70068C0F89440DA
:10373000D1E7000010DF000870472DE9F04704468C
:103740002068016D01F4E051426D02EA0107016D4C
:1037500001F00701426D02EA0108016D01F0380134
:10376000426D02EA0109016D01F47101426D02EA44
:103770000105016D01F46021426D02EA0106016D4F
:1037800011F0400F08D0416D11F0400F04D04021DE
:1037900001652046FFF7D0FF2068016D11F4807F9E
:1037A0000ED0416D11F4807F0AD0D0F8D810D0F837
:1037B000E02011404FF480720265204600F011FABB
:1037C0002FB1206807653946204600F00CFAB8F1A1
:1037D000000F06D02068C0F850804146204600F017
:1037E000B9F9B9F1000F06D02068C0F850904946E9
:1037F000204600F0DDF92068016D11F4007F09D04A
:10380000416D11F4007F05D04FF400710165204631
:1038100000F0EAF92068016D11F0800F0DD0416DC4
:1038200011F0800F09D0D0F8D410D0F8DC2011406E
:1038300080220265204600F0D5F92068016D11F460
:10384000005F09D0416D11F4005F05D04FF40051C5
:103850000165204600F0C4F92068016D11F4004FA5
:1038600009D0416D11F4004F05D04FF400410165BE
:10387000204600F0B4F92068016D11F4804F0AD0A1
:10388000416D11F4804F06D04FF480410165206EE8
:1038900040F0800020662EB1206806653146204643
:1038A000FFF7A1FE25B120680565206E284320663C
:1038B000206E002802D02046FFF794FEBDE8F08776
:1038C0002DE9F0410446002C05D0784F94F85C00B7
:1038D000002618B107E00120BDE8F08184F85D60A2
:1038E000204600F0E7F82068816921F0100181612D
:1038F00000F058FD0546206880694FF0030810F07D
:10390000080F12D000F04EFD401B0A2808D9206E87
:1039100040F00100206684F85C800120BDE8F08161
:103920002068806910F0080FECD12068816941F0AF
:103930000101816100F036FD05462068806910F0C4
:10394000010F12D100F02EFD401B0A2808D9206E6D
:1039500040F00100206684F85C800120BDE8F08121
:103960002068806910F0010FECD02068816941F077
:10397000020181612068B84202D14D496068086047
:10398000207C012839D02068816941F040018161A3
:10399000607C012837D02068816921F480418161F1
:1039A000A07C012835D02068816941F48051816173
:1039B00020688169A26821F4407111438161206807
:1039C000816921F0A40181612068016921F0100161
:1039D0000161E068012822D030B302282BD0206892
:1039E000816941F0800181612068016941F0100125
:1039F0000161E068032818D022E02068816921F085
:103A000040018161C4E72068816941F4804181619E
:103A1000C6E72068816921F480518161C8E7206888
:103A2000816941F0040181610AE02068816941F007
:103A30002001816104E02068816941F020018161F9
:103A4000207EE169401E4006491E40EA0120216AAD
:103A5000491E0843A18A491E40EA01402168C86105
:103A6000A068B0F5407F0FD1A06AE16A401E491EF0
:103A700040EA0120216B491E40EA0110A18C491E39
:103A800040EA01402168C8602068D0F8C010E26BAD
:103A90001143C0F8C0102046FDF7F8FCA665266665
:103AA000012084F85C000020BDE8F0810064004043
:103AB0000065004010B586B0002401940294039480
:103AC000049405940168A1F18040B0F5C8403DD14F
:103AD0001F48816D41F000718165816D01F00071B9
:103AE0000091C16C41F00101C164C06C00F00100A3
:103AF00000904FF4C05001900220029009200590E0
:103B000001A9C00600F018FB4FF48070019001205D
:103B100002900394049401A94FF0904000F00CFB34
:103B200000224FF480714FF0904000F034FC0022EE
:103B30004FF480714FF0904000F02DFC00221146B0
:103B4000152000F07BFF152000F06AFF06B010BDC5
:103B50000010024010B540211148FFF745FD002834
:103B60001DD0104B4021A3F11402A2F17400FFF705
:103B700049FD0D48D0F84C02816800290FD10B494E
:103B800003694FF02F0C4A680CEBC3031A444A60D8
:103B9000027B0168BDE81040034803F0A7BF10BDD9
:103BA000C03E0020483F002054080020A0510020C3
:103BB000704790F85C10012905D0016E41F00401B6
:103BC000016601207047022180F85C1001688A6953
:103BD00022F001028A6100210166002070477047CF
:103BE0007047704770477047704700002DE9F047F5
:103BF00004460F46DFF8E88098F8000001280DD051
:103C0000012588F800504FF47A70FDF76FFD824669
:103C10004FF00009BAF1000F03D05CE00220BDE8CC
:103C2000F087C8F804902F4E306810F4007F12D04F
:103C3000306820F400703060306810F4806F07D076
:103C4000306820F480603060032088F81C0010E0A9
:103C500088F81C500DE0306810F4806F07D0306891
:103C600020F480603060022088F81C0001E088F8B1
:103C70001C902068012819D04FF0FF303860A568EB
:103C8000E0682844A84224D928466168FDF7F4FC7E
:103C90004FF47A70FDF72AFD8246706920F4FD70BA
:103CA00070615FEA0A000ED03D6012E06068FDF7C7
:103CB000D3FC4FF47A70FDF719FD8246706920F04D
:103CC0000400706105E06D1CE168A0680844A8422A
:103CD000DAD8FDF797FC88F800905046BDE8F087E9
:103CE000A805002000200240012005494A6942F051
:103CF00000424A61496911F0004F00D0002070472E
:103D0000002002402DE9F04707468A4614461D462A
:103D10000026DFF86C8098F80000012809D0012007
:103D200088F800004FF47A70FDF7E0FCB14618B156
:103D300021E00220BDE8F087C8F8049027B1012FE8
:103D400009D0022F07D00DE022462B465046FDF742
:103D5000A7FC012606E021465046FDF7AFFC022FE6
:103D600000D17E044FF47A70FDF7C0FC1EB1054906
:103D70004A69B2434A6188F80090BDE8F0870000C4
:103D8000A805002000200240002007494A6912F0DF
:103D9000004F08D0054A8A60054A8A60496911F0D7
:103DA000004F00D0012070470020024023016745EA
:103DB000AB89EFCD2DE9F05F0446D44EDFF840B378
:103DC000DFF84083D04FDFF84893D24D06F1010A67
:103DD000012C03D0022C01D0042C7DD198F80000D6
:103DE000032849D195F8550085F85600FDF7A4FE43
:103DF00085F8550095F8561040EAC101C9B285F81A
:103E000057109AF800201BF8011012FB01F1A97459
:103E100098F8001008292FD1411E062920D299F8C0
:103E20000C1001290AD002290BD003290CD0042937
:103E30000DD005290ED006290FD014E089F8060010
:103E400011E089F807000EE089F808000BE089F816
:103E5000090008E089F80A0005E089F80B0002E093
:103E6000802003F0C5F895F91200002804DA9AF8CA
:103E7000000040428AF8000098F80000032874D13E
:103E800095F9120001280AD0B0F1FF3F07D095F84C
:103E90005500A8B307283BD004283DD04EE095F844
:103EA000550001281DD1386880B2A5F85C00B5F82E
:103EB0005E10B5F86030421AB168CB1A02EB0342CB
:103EC0006A66A5F85E002966B5F90400642808DD75
:103ED000E87C012805D100E062E0288808B103F001
:103EE00033FE687CC0BBB5F90E10002909DA95F8DD
:103EF000550080F0070085F85800FCF76DFE34E0AF
:103F000006E095F8550085F85900FCF765FE2CE0B1
:103F1000802003F06DF828E0396889B2A5F85C10BC
:103F2000B5F85E20B5F860C08B1AB268A2EB0C0C35
:103F300003EB0C436B66A5F85E102A66B5F9021018
:103F400000290ADA80F0070085F8580085F85A0041
:103F5000B5F90E10FCF740FE07E085F8590085F82A
:103F60005A00B5F90E10FCF737FE98F800000A2841
:103F700016D1694A92F83800012811D1386880B208
:103F8000A2F84400B2F84610B2F848C0431AB1682B
:103F9000A1EB0C0C03EB0C43D364A2F84600916434
:103FA000B4F5005F05D0B4F5804F02D0B4F5004FF2
:103FB00064D195F8C10085F8C200FDF7D5FD85F8FC
:103FC000C1003178554B4A1CD2B232705854112A74
:103FD00001D90021317095F8C21040EAC101C9B27F
:103FE00085F8C3109AF801201BF8011012FB01F1AB
:103FF00049B285F87E1098F80020092A0DD00129D1
:104000003ED0B1F1FF3F3BD008B1072836D1BDE823
:10401000F05F4FF4006002F0EBBF411E062920D292
:1040200099F81E1001290AD002290BD003290CD0BF
:1040300004290DD005290ED006290FD015E089F8E6
:10404000180012E089F819000FE089F81A000CE056
:1040500089F81B0009E089F81C0006E089F81D00BA
:1040600003E04FF4006002F0C3FF95F97E000028E2
:1040700004DA9AF8010040428AF80100BDE8F09F96
:10408000FCF756FF95F8C10001281FD1386880B2AF
:10409000A5F8C800B5F8CA10B5F8CC30421AB16816
:1040A000CB1A02EB0342C5F8D020A5F8CA00C5F828
:1040B000CC10B5F97000642808DD95F87F00012860
:1040C00004D1B5F86C0008B103F024FE95F87D002A
:1040D0000028D3D1B5F97A10002909DA95F8C10082
:1040E00080F0070085F8C400BDE8F05FFCF770BE03
:1040F00095F8C10085F8C500BDE8F05FFCF768BE23
:10410000B7DE00080200002024440140880500209A
:10411000084200203041002074430020D04000209D
:1041200010B504490A68024202D00860FFF742FE57
:1041300010BD0000140401402DE9F84F00220B6867
:10414000002B7CD00324874E874F0F250123D1F805
:1041500000C003FA02F80CEA0803002B70D0D1F873
:1041600004C0BCF1010F08D0BCF1020F05D0BCF1B6
:10417000110F02D0BCF1120F1DD1D0F808904FEAF8
:10418000420C04FA0CFA29EA0A09D1F80CA00AFA3E
:104190000CFC4CEA090CC0F808C0D0F804C02CEAAA
:1041A000080C91F80480C8F3001808FA02F848EAED
:1041B0000C0CC0F804C0D0F80C804FEA420C04FA92
:1041C0000CFA28EA0A08D1F8089009FA0CF949EA29
:1041D0000808C0F80C80D1F80480B8F1020F02D0B2
:1041E000B8F1120F15D14FEAD20800EB8808D8F8C1
:1041F00020B04FEA42794FEAD96905FA09FE2BEA65
:104200000E0BD1F810E00EFA09F949EA0B09C8F8CB
:104210002090D0F8008028EA0A0891F8049009F06C
:10422000030909FA0CFC4CEA080CC0F800C0D1F8EC
:1042300004C01CF0805F7CD0D6F860C001E07DE057
:1042400077E04CF0010CC6F860C0D6F860C00CF006
:10425000010CCDF800C022F0030C0CF1804909F5E7
:104260008039D9F808C04FEA82784FEA187805FA01
:1042700008FA2CEA0A0AB0F1904F64D0A0F1904CF1
:10428000BCF5806C5CD0A0F1904CBCF5006C5DD0AE
:10429000A0F1904CBCF5406C5BD0A0F1904CBCF50B
:1042A000805C59D0A0F1904CBCF5A05C57D04FF089
:1042B000060C0CFA08FC4CEA0A0CC9F808C0D7F83E
:1042C00000C02CEA030CD1F8048018F4803F01D020
:1042D0004CEA030CC7F800C0DFF89080D8F800C0A3
:1042E0002CEA030CD1F8049019F4003F01D04CEAF9
:1042F000030CC8F800C0DFF87880D8F800C02CEABA
:10430000030CD1F8049019F4801F01D04CEA030C7F
:10431000C8F800C0DFF85C80D8F800C02CEA030CB5
:10432000D1F8049019F4001F01D04CEA030CC8F82E
:1043300000C0521C0B68D3407FF408AFBDE8F88F73
:104340004FF0010CB5E74FF0000CB2E74FF0020C54
:10435000AFE74FF0030CACE74FF0040CA9E74FF0C8
:10436000050CA6E7001002400004014004040140CF
:10437000080401400C0401400069084201D00120FA
:10438000704700207047426921EA0203114043EA66
:10439000014181617047002A01D0816170478162CB
:1043A0007047000001488068704700009C050020AD
:1043B00090F84120202A01D00220704790F8402038
:1043C000012A20D0012280F84020242280F84120B8
:1043D0000268136823F0010313600268136823F472
:1043E00080531360026813681943116001680A68FA
:1043F00042F001020A60202180F84110002180F87B
:104400004010002070470220704790F84120202A79
:1044100001D00220704790F84020012A1ED00122CE
:1044200080F84020242280F841200268136823F09D
:10443000010313600268136823F4706343EA0121E7
:10444000116001680A6842F001020A60202180F8C8
:104450004110002180F84010002070470220704772
:1044600070B50446002C04D094F84100002510B12A
:1044700006E0012070BD84F84050204600F0FAF9B3
:10448000242084F841002068016821F001010160C6
:104490006068216820F0706008612068816821F4FC
:1044A00000418160E068012808D0A068216840F4DC
:1044B00004408860E068022806D009E0A06821680E
:1044C00040F400408860F5E721684FF400604860E0
:1044D0002068416841F4004141F00071416020686A
:1044E000C16821F40041C160616920690843A16984
:1044F00040EA01202168C860216AE0690843216818
:1045000008602068016841F00101016065642020B5
:1045100084F84100256384F84250002070BD0000FB
:104520002DE9FF4F83B00446DDF84490DDF840806C
:10453000129F92469B4694F84100202803D007B072
:104540000220BDE8F08FB8F1000F18D0B9F1000FCC
:1045500015D094F84000012818D0012084F84000BC
:10456000FFF720FF054601221923D10320460095BD
:1045700002F0D2FA70B107B00120BDE8F08F4FF41D
:104580000070606407B00120BDE8F08F07B0022022
:10459000BDE8F08F222084F84100402084F84200DA
:1045A00000266664C4F82480A4F82A9066635B46FB
:1045B0005246009701952046049902F017FA28B157
:1045C00084F8406007B00120BDE8F08F618D3E485F
:1045D0004FF0FF08FF290AD94246A4F8288000902E
:1045E0004FF080732046049902F07CFA0AE0618D56
:1045F0002185009094F828204FF0007320460499FC
:1046000002F070FA3B46002204212046009502F099
:1046100083FA18B107B00120BDE8F08F2068406A26
:10462000616A0870606A401C6062208D401E80B222
:104630002085618D491E6185618D29B320BB3B4674
:10464000002280212046009502F066FA18B107B0DA
:104650000120BDE8F08F608DFF280AD94246A4F8FA
:1046600028804FF0807300962046049902F03AFAB1
:104670000AE0608D2085009694F828204FF00073A2
:104680002046049902F02EFA608D0028BAD12A46FD
:104690003946204602F076FA18B107B00120BDE88D
:1046A000F08F20682021C16120684268074B1A40C2
:1046B000426084F8411084F8426084F8406007B09A
:1046C0000020BDE8F08F00000024008000E800FE1C
:1046D0002DE9FF4F83B00446DDF84490DDF84080BB
:1046E000129F92469B4694F84100202803D007B0C1
:1046F0000220BDE8F08FB8F1000F18D0B9F1000F1B
:1047000015D094F84000012818D0012084F840000A
:10471000FFF748FE054601221923D10320460095E4
:1047200002F0FAF970B107B00120BDE8F08F4FF444
:104730000070606407B00120BDE8F08F07B0022070
:10474000BDE8F08F212084F84100402084F8420029
:1047500000266664C4F82480A4F82A9066635B4649
:104760005246009701952046049902F07DF928B140
:1047700084F8406007B00120BDE8F08F608D4FF0F5
:10478000FF08FF280AD94246A4F828804FF080731A
:1047900000962046049902F0A5F90AE0608D208574
:1047A000009694F828204FF000732046049902F0F8
:1047B00099F92A463946204602F010FA18B107B096
:1047C0000120BDE8F08F606A216800788862606A25
:1047D000401C6062608D401E6085208D401E80B24E
:1047E0002085618D29B320BB3B46002280212046D5
:1047F000009502F091F918B107B00120BDE8F08FE3
:10480000608DFF280AD94246A4F828804FF08073B3
:1048100000962046049902F065F90AE0608D208533
:10482000009694F828204FF000732046049902F077
:1048300059F9608D0028BCD12A463946204602F03D
:10484000A1F918B107B00120BDE8F08F2068202140
:10485000C16120684268064B1A40426084F84110EA
:1048600084F8426084F8406007B00020BDE8F08F13
:1048700000E800FE10B586B000210191029103917D
:10488000049105910068A0F18041B1F5F0411DD17E
:104890000F4CE06C40F00400E064E06C00F00400B9
:1048A00000904FF44070019012200290012003907C
:1048B0000820059001A90748FFF73EFCA06D40F0D5
:1048C0008040A065A06D00F08040009006B010BD53
:1048D000001002400008004870B50446002C1AD0B1
:1048E00021684CF6CC400860216845F255500860BC
:1048F0002168606848602168A0688860FFF752FD01
:1049000005462068C06860B1FFF74CFD401B3028A9
:1049100003D9032070BD012070BD2068C068002845
:10492000F2D120680269E1688A4201D0016102E0A7
:104930004AF6AA210160002070BD00684AF6AA214B
:1049400001600020704700000248816842681144FD
:10495000816070479C05002010B50024032000F002
:10496000A1F8042000F008F808B1012401E000F0EB
:1049700029F8204610BD000070B5054600240F4EF2
:104980007068002817D04FF47A71B1FBF0F00C4931
:104990000968B1FBF0F000F0A3FF08B101240BE0BF
:1049A000102D06D200222946501E00F047F835602F
:1049B00002E0012400E00124204670BD9C05002097
:1049C000C805002008B50C48016E41F001010166E0
:1049D000016E01F001010091816D41F0805181650E
:1049E000806D00F080500090042000F05BF8BDE87E
:1049F000084000F0D7B800000010024000280EDB8D
:104A000000F01F01012202FA01F14009800000F1CB
:104A1000E020C0F88011BFF34F8FBFF36F8F704756
:104A200000280ADB00F01F01012202FA01F140090F
:104A3000800000F1E020C0F80011704710B4184B5E
:104A40001B68C3F30223C3F1070CBCF1040F01D9A7
:104A50004FF0040C1C1D072C01D2002300E0DB1ECC
:104A6000012404FA0CFCACF1010C0CEA01019940A0
:104A700004FA03F35B1E1A401143002806DB00F121
:104A8000E020090180F8001410BC704700F00F000E
:104A900000F1E020090180F8141D10BC70470000EF
:104AA0000CED00E000F00700064A11684FF6FF0326
:104AB000194041EA002040F0FD7040F08060106035
:104AC000704700000CED00E033493222334B096897
:104AD0004A43334900280AD0B0F5007F31D0086836
:104AE00020F4C06040F480600860002070470868CF
:104AF00000F4C060B0F5806F06D0D1F8800020F4DB
:104B00008070C1F88000F0E7D1F8800020F4807058
:104B1000C1F88000086820F4C06040F400700860AC
:104B2000B2FBF3F0401C00E0401E4A6912F4806FB3
:104B300001D00028F8D1486910F4806FD5D0032047
:104B40007047086800F4C060B0F5806F06D0D1F8F7
:104B5000800040F48070C1F88000C6E7D1F8800082
:104B600040F48070C1F88000086820F4C06040F410
:104B700000700860B2FBF3F0401C00E0401E4A6980
:104B800012F4806F01D00028F8D1486910F4806FCA
:104B9000ABD0032070470000C805002040420F0042
:104BA000007000400248816841F480418160704794
:104BB000007000402DE9F84F0446002500272068CA
:104BC000B04E10F4002F76D0A846B06D10F0805F84
:104BD00009D1B06D40F08050B065B06D00F08050EC
:104BE00000904FF00108DFF8A0A2DAF8000040F4CE
:104BF0008070CAF80000FFF7D5FB8146DAF80000A4
:104C000010F4807F0CD1FFF7CDFBA0EB0900022848
:104C100001D9032504E0DAF8000010F4807FF2D017
:104C200025B12F46B8F1010F41D044E0D6F89000ED
:104C300000F44070A0B1216C814211D0D6F89000F0
:104C400020F44070D6F8901041F48031C6F89010EE
:104C5000D6F8901021F48031C6F89010C6F8900074
:104C600010F0010F16D0FFF79DFB8146D6F890009B
:104C700010F0020F0ED141F2883AFFF793FBA0EB40
:104C80000900504501D9032504E0D6F8900010F042
:104C9000020FF2D00DB12F46C4E7D6F89000216C78
:104CA00020F440700843C6F89000BBE703E0B06D05
:104CB00020F08050B065207810F0010F07D0D6F8B2
:104CC0008800616820F003000843C6F88800207857
:104CD00010F0020F07D0D6F88800A16820F00C0071
:104CE0000843C6F88800207810F0040F07D0D6F8E3
:104CF0008800E16820F030000843C6F8880020787A
:104D000010F0080F07D0D6F88800216920F0C00005
:104D10000843C6F88800207810F0200F07D0D6F896
:104D20008800616920F440600843C6F88800207854
:104D300010F0400F07D0D6F88800A16920F4405049
:104D40000843C6F88800207810F0800F07D0D6F806
:104D50008800E16920F440400843C6F888002088B4
:104D600010F4807F07D0D6F88800216A20F4403004
:104D70000843C6F88800208810F4007F07D0D6F8D2
:104D80008800616A20F440200843C6F88800208823
:104D900010F4806F0FD0D6F88800A16A20F440107C
:104DA0000843C6F88800A06AB0F5801F03D1F068F8
:104DB00040F48010F060208810F4006F0FD0D6F817
:104DC0008800E16A20F440000843C6F88800E06AE1
:104DD000B0F5800F03D1F06840F48010F0602088B7
:104DE00010F4805F0FD0D6F88800216B20F040705F
:104DF0000843C6F88800206BB0F1807F03D1F068CB
:104E000040F48010F060208810F4005F0FD0D6F8D6
:104E10008800616B20F040600843C6F88800606B32
:104E2000B0F1006F03D1F06840F48010F06020888A
:104E300010F4804F0FD0D6F88800A16B20F04060AE
:104E40000843C6F88800A06BB0F1006F03D1F0688A
:104E500040F48010F060208810F4004F0FD0D6F896
:104E60008800E16B20F040500843C6F88800E06BF2
:104E7000B0F1805F03D1F06840F48030F0603846D4
:104E8000BDE8F88F00100240007000402DE9F047A7
:104E900004460D460027002C17D0DFF8DC91D9F826
:104EA000000000F00F00A84212D2D9F8000020F054
:104EB0000F002843C9F80000D9F8000000F00F00E7
:104EC000A84205D00120BDE8F0870120BDE8F087A9
:104ED00020786A4E10F0010F41F2883A5ED0606887
:104EE000DFF89C81032806D0022822D0306810F415
:104EF000806F49D021E0306810F0007F0ED004F0C0
:104F0000F9FC404524D9B06810F0F00F09D02078A2
:104F100010F0020F1CD0A06818B119E00120BDE804
:104F2000F087B06820F0F00040F08000B06080278B
:104F30000EE0306810F4003F23D000F0D3F8404575
:104F400006D9B06820F0F00040F08000B060802703
:104F5000B068616820F003000843B060FFF722FAF0
:104F60008046B068616800F00C00B0EB810F15D08E
:104F7000FFF718FAA0EB0800504508D90320BDE858
:104F8000F0870120BDE8F0870120BDE8F087B06818
:104F9000616800F00C00B0EB810FE9D1206810F0DF
:104FA000020F17D010F0040F03D0B06840F4E06097
:104FB000B060207810F0080F05D0B06820F4605081
:104FC00040F4E060B060B068A16820F0F0000843F1
:104FD000B06005E0802F03D1B06820F0F000B06031
:104FE000D9F8000000F00F00A8421DD9D9F8000040
:104FF00020F00F002843C9F80000FFF7D3F9074657
:10500000D9F8000000F00F00A8420DD0FFF7CAF950
:10501000C01B504502D90320BDE8F087D9F8000035
:1050200000F00F00A842F1D1207810F0040F05D055
:10503000B068E16820F4E0600843B060207810F0C8
:10504000080F06D0B068216920F4605040EAC10022
:10505000B06000F047F8B1680A4AC1F30311515C2F
:1050600001F01F01C8400849086008480068BDE811
:10507000F047FFF781BC0000002002400010024012
:1050800000B4C40420DF0008C80500209C050020EF
:105090000148006870470000C805002000B5FFF710
:1050A000F7FF05498968054AC1F30221515C01F007
:1050B0001F01C84000BD00000010024030DF0008A2
:1050C00000B5FFF7E5FF05498968054AC1F3C2212C
:1050D000515C01F01F01C84000BD000000100240FB
:1050E00030DF00081A4A9068DFF868C000F00C0052
:1050F00004280CD0906800F00C011748082905D04E
:1051000091680C2333EA010103D000207047604608
:105110007047D16801F00303D168C1F30311491C42
:10512000032B0DD0BCFBF1F0D168C1F3062148433D
:10513000D168C1F34161491C4900B0FBF1F07047EF
:10514000B0FBF1F0D168C1F306214843F0E700005D
:10515000001002400024F40000366E012DE9F843EF
:105160000446002C0ED02078FD4F10F0010F60D0C7
:10517000B8683D4600F00C00E96801F003010C2816
:1051800003D004E00120BDE8F88303291AD00828E1
:1051900018D06068B0F5803F1DD0B0F5A02F1FD0AB
:1051A000286820F480302860286820F48020286057
:1051B000606858B3FFF7F6F80646286810F4003F19
:1051C00017D036E0286810F4003F32D0606880BB0A
:1051D0000120BDE8F883286840F480302860E7E7C4
:1051E000286840F480202860286840F480302860D7
:1051F000DEE7FFF7D7F8801B642802D90320BDE85B
:10520000F883286810F4003FF3D012E0FFF7CAF8E3
:105210000646286810F4003F0BD0FFF7C3F8801B48
:10522000642802D90320BDE8F883286810F4003F01
:10523000F3D1207810F0020F5ED0B8683D4600F040
:105240000C00E96801F003010C2801D102290FD0FC
:1052500004280DD0E068B8B3286840F48070286056
:10526000FFF7A0F80646286810F4806F18D023E0F6
:10527000286810F4806F01D0E06870B16868217C04
:1052800020F0FE4040EA01606860B6480068FFF721
:1052900073FB88B30120BDE8F8830120BDE8F883E3
:1052A000FFF780F8801B022802D90320BDE8F883AD
:1052B000286810F4806FF3D06868217C20F0FE40ED
:1052C00040EA0160686017E0FFE7286820F480701A
:1052D0002860FFF767F80646286810F4806F0BD047
:1052E000FFF760F8801B022802D90320BDE8F8838D
:1052F000286810F4806FF3D1207810F0080F3AD0AE
:105300006069E0B1D7F894003D4640F00100C7F86D
:105310009400FFF747F80646D5F8940010F0020F06
:1053200029D1FFF73FF8801B022802D90320BDE8EE
:10533000F883D5F8940010F0020FF2D01BE0D7F8F4
:1053400094003D4620F00100C7F89400FFF72AF8CA
:105350000646D5F8940010F0020F0CD0FFF722F8A3
:10536000801B022802D90320BDE8F883D5F89400F9
:1053700010F0020FF2D1207810F0040F7BD04FF024
:105380000008B86D10F0805F09D1B86D40F0805012
:10539000B865B86D00F0805000904FF00108724D74
:1053A000286810F4807F16D1286840F48070286047
:1053B000FEF7F8FF0646286810F4807F0BD1FEF751
:1053C000F1FF801B022802D90320BDE8F88328687A
:1053D00010F4807FF3D0A06801281AD005281FD0D0
:1053E000D7F8900020F00100C7F89000D7F890009F
:1053F00020F00400C7F89000A06841F2883650B34E
:10540000FEF7D0FF0546D7F8900010F0020F14D039
:1054100037E0D7F8900040F00100C7F89000EBE7C4
:10542000D7F8900040F00400C7F89000D7F890003B
:1054300040F00100C7F89000DEE7FEF7B3FF401B25
:10544000B04202D90320BDE8F883D7F8900010F0ED
:10545000020FF2D015E0FEF7A5FF0546D7F8900041
:1054600010F0020F0DD0FEF79DFF401BB04203D994
:105470000320BDE8F8830BE0D7F8900010F0020F8E
:10548000F1D1B8F1010F03D1B86D20F08050B865AB
:10549000207810F0200F3AD0A069E0B1D7F898003A
:1054A0003D4640F00100C7F89800FEF77BFF064636
:1054B000D5F8980010F0020F29D1FEF773FF801B7A
:1054C000022802D90320BDE8F883D5F8980010F02F
:1054D000020FF2D01BE0D7F898003D4620F0010003
:1054E000C7F89800FEF75EFF0646D5F8980010F062
:1054F000020F0CD0FEF756FF801B022802D90320B2
:10550000BDE8F883D5F8980010F0020FF2D1E069F9
:1055100060B3B9683D460C2232EA01014FF0FF3812
:1055200078D0022823D0286820F080702860E868AE
:1055300020F00300E860E86820F4881020F0807014
:10554000E860FEF72FFF0446286810F0007F0DD0BA
:10555000FEF728FF001B022857D90320BDE8F88377
:10556000001002409C0500200070004083E0286885
:1055700020F080702860FEF715FF0646286810F0BE
:10558000007F0AD0FEF70EFF801B022801D90320FE
:10559000E4E7286810F0007FF4D1616A206A491EB0
:1055A00040EA0110A16A228E090208EB520241EA88
:1055B0004251084394F8341008EB510140EA41602D
:1055C00094F82C1040EAC160E9682C4A1140084365
:1055D000E860286840F080702860E86840F08070DB
:1055E000E860FEF7DFFE0446286810F0007F42D135
:1055F000FEF7D8FE001B022801D90320AEE7286879
:1056000010F0007FF4D036E004E0286810F0007F4E
:105610009ED130E001282CD0E868226A00F0030116
:10562000914224D1626A00F0F001521EB1EB021FD8
:105630001DD1A26A00F4FE41B1EB022F17D194F8FC
:105640002C1000F07842B2EBC16F10D1228E00F422
:10565000C00108EB5202B1EB425F08D194F834105C
:1056600000F0C06008EB5101B0EB416F03D00120A6
:1056700074E7012072E7002070E700000C809F01B2
:105680004FF0E021042804D0086920F004000861EC
:105690007047086940F00400086170472DE9F04147
:1056A000FEF780FEFBF774FC0020FCF771F9012087
:1056B000FCF76EF98048017841F001010170FEF7B6
:1056C00071FE7E4880780A2880F0D380DFE800F001
:1056D000050A1A1E6BD1D16F76A478490120887013
:1056E00000F0C7B87549022088702820FFF798F9A4
:1056F0000620FFF795F90720FFF792F90820FFF73A
:105700008FF9B6E06D4903208870B2E000246C4E3A
:105710006C4D002704EBC40000EB400005EB80005B
:10572000C17C012901D071B338E02CB1012C15D016
:10573000417C49B3C77431E0002004F0BBF900207C
:10574000FCF726F9A880FBF7FBF9B5F90410B5F9C9
:1057500002005B4A03F0EEFE28831FE0012004F004
:10576000A9F90120FCF714F9A5F87000FBF7E2FA9B
:10577000B5F97010B5F96E0006F1380203F0DAFEE3
:10578000A5F884000AE006E0FFE7B0F90E10204615
:1057900005F0D6FB02E0204605F074FC601CC4B2A4
:1057A000022CB7D365E045490620887061E0464881
:1057B000006800285DD1414988705AE03F4C20784C
:1057C00001280ED1414800220260001D0260001D28
:1057D0000260002042F21071401C80B28842FBD36C
:1057E000227000F033FF3A49087C032841D10020A1
:1057F0000874087035490860091D0860091D0860B3
:105800003149097811F0800F04D00720A0700120E1
:1058100020702EE0A070FAE7284C607801280ED1A5
:105820002C4800220260001D0260001D0260002062
:1058300042F21071401C80B28842FBD3627000F0CB
:105840006BFF234991F82200032812D1002081F830
:10585000220088741F490860091D0860091D08603E
:105860001949098811F4006F10D00720A070012099
:105870006070FEF797FD1849A1FB0021C908494255
:1058800001EB810110EB410002D003E0A070EEE7D4
:1058900003F014FDFEF786FD4FF4FA71B0FBF1F250
:1058A00001FB1200002804D1BDE8F0410B48FFF7CE
:1058B00044B8BDE8F0810000100000200000002086
:1058C000904F002030410020E8050020342C01409A
:1058D0000842002034340140CDCCCCCC243F002001
:1058E000401EB0F1807F01D3012070474FF0E021CE
:1058F0004861044AF0201070002088610720086188
:105900000020704723ED00E010B5FFF7C7FE10BD83
:105910007047000070B504461048002501268442F7
:105920000AD10F480560001D0560001D05600D4887
:105930000660700701F05CFB0B4884420CD10B48F9
:105940000560001D0560001D056009480660BDE892
:105950007040000701F04CBB70BD0000F83C002017
:10596000342C0140142C0140DC3D00203434014033
:10597000143401407047000070B490F83C20012AB4
:105980004CD0012280F83C20CA684FF0000C8B6894
:1059900022F440721A434B6822F480621A430B6867
:1059A00022F400621A430B6922F480521A434B69B5
:1059B00022F400521A430B6B22F480421A430B8BE1
:1059C00022F4702242EA0342164C0368164DA342A9
:1059D00001D0AB4203D1CE6922F080523243A342C0
:1059E00001D0AB4214D10E8D22F4700242EA06526D
:1059F0000E6A22F0807232434E6A22F00072324305
:105A0000A34201D0AB4203D1C96A22F000520A433B
:105A10005A6480F83CC070BC0020704770BC022003
:105A200070470000002C014000340140F0B490F8B1
:105A30003C30012B0BD0012380F83C301368042B41
:105A400021D007DC012B12D0022B07D115E0F0BCCE
:105A500002207047082B1CD0102B20D000239C461E
:105A600000240025012920D002293FD12EE0012366
:105A700000244FF4007C0925F4E7022301244FF4AD
:105A8000806C0A25EEE7042302244FF4006C0B25FA
:105A9000E8E7082303244FF4805C0C25E2E7102399
:105AA00004244FF4005C0D25DCE701680E6E9E4374
:105AB000576807FA04F42340334323EA0C0392683F
:105AC000AA4002EA0C021A430A660FE001684E6E11
:105AD0009E43576807FA04F42340334323EA0C0338
