:020000040800F2
:10000000D81A0020ED010008F5010008F95C00088D
:10001000F9010008FB010008FD01000800000000D4
:10002000000000000000000000000000FF010008C8
:100030000102000800000000030200080D8400080F
:10004000070200080702000807020008070200086C
:100050000702000807020008730D0008970D00084A
:100060009D0D0008070200080702000807020008AB
:10007000070200080702000807020008070200083C
:100080000702000800000000090500080702000838
:1000900007020008F10D000807020008A30D000880
:1000A00065850008A585000807020008070200080A
:1000B000C185000807020008018600080702000841
:1000C00007020008070200080702000807020008EC
:1000D000070200085D9900080702000807020008EF
:1000E000790D000807020008070200084186000891
:1000F00081860008070200080702000800000000CF
:1001000000000000070200080000000007020008CD
:1001100007020008000000000702000807020008AC
:10012000070200080702000807020008070200088B
:10013000070200080000000000000000070200089D
:10014000070200080702000800000000000000008D
:10015000000000000000000000000000000000009F
:10016000000000000000000000000000070200087E
:10017000070200080000000000000000000000006E
:10018000000000000702000800000000000000005E
:10019000000000000000000000000000000000005F
:1001A000000000000000000007020008070200082D
:1001B000070200080702000807020008000000000C
:1001C000000000000702000800000000000000001E
:1001D0000702000807020008DFF80CD000F056F90B
:1001E00000480047099D0008D81A002006488047AB
:1001F00006480047FEE7FEE7FEE7FEE7FEE7FEE70C
:10020000FEE7FEE7FEE7FEE749850008D9010008A2
:100210002DE9F05F0546002092469B46884606463B
:10022000814640241BE0284641464746224600F0CE
:10023000C0F853465A46C01A914110D31146184689
:10024000224600F0A7F82D1A67EB01084F46224618
:100250000120002100F09EF817EB00094E41201EFE
:10026000A4F10104DFDC484631462A464346BDE896
:10027000F09FD2B201E000F8012B491EFBD270477B
:100280000022F6E710B513460A4604461946FFF762
:10029000F0FF204610BD2DE9FE4F81EA030404F073
:1002A000004421F0004100944FF0000B23F0004384
:1002B00050EA01045ED052EA03045BD0C3F30A544F
:1002C000C1F30A552C44A4F2F3340194A0FB025468
:1002D000C1F3130141F48011C3F3130343F48013FA
:1002E00001FB024400FB034E840A970A44EA81544E
:1002F00047EA8357A4FB076802958D0A05FB07852B
:100300004FEA932C04FB0C542705029D4FEA065834
:1003100047EA1637B5EB08056EEB070C870E920E11
:1003200047EA811742EA8312A7FB0201B6EB0B01F1
:1003300064EB00042B0D43EA0C335E1844EB1C50B5
:10034000DA465146E7FB0201C5F313044FEA0B33CB
:1003500043EA14534FEA0432019C43EA0603A4F132
:100360000C040294009CCDE900B400F041F803B005
:10037000BDE8F08F00200146F9E70EB540F23341A9
:1003800002910021CDE900110A460B4600F030F839
:1003900003B000BD202A04DB203A00FA02F100205D
:1003A00070479140C2F1200320FA03F319439040B3
:1003B0007047202A04DB203A21FA02F0002170471E
:1003C00021FA02F3D040C2F12002914008431946BD
:1003D000704710B5141E73F1000408DA401C41F197
:1003E000000192185B411A4301D120F0010010BDB9
:1003F0002DE9F04D92469B4611B1B1FA81F202E02F
:10040000B0FA80F220329046FFF7C4FF04460F4650
:1004100040EA0A0041EA0B0153465A46084313D00A
:10042000114653EA010019D0C8F140025046FFF7C7
:10043000C0FF05460E46504659464246FFF7AAFF02
:10044000084305D0012004E020463946BDE8F08D80
:100450000020054346EAE0762C4337430A986305BB
:10046000E40AA0EB08000022FD0A44EA47540A30DF
:1004700002D500200146E9E7010510196941DDE9CF
:10048000084500196941BDE8F04DA2E7064C074D4B
:1004900006E0E06840F0010394E807009847103454
:1004A000AC42F6D3FFF79CFEDCAE0008FCAE0008C1
:1004B00070B58C1810F8015B15F0070301D110F826
:1004C000013B2A1106D110F8012B03E010F8016B53
:1004D00001F8016B5B1EF9D12B0705D40023521ED6
:1004E0000DD401F8013BFAE710F8013BCB1A921C3E
:1004F00003E013F8015B01F8015B521EF9D5A1423C
:10050000D8D3002070BD000010B5044802F0A4F953
:10051000BDE81040024802F09FB9000050070020DB
:10052000BC07002070B504462068816801F0010115
:1005300000293ED181686FF39E1149B1E06D40F012
:100540001000E065206E40F001002066012070BDC3
:10055000816821F03F0121F0004141F001018160FB
:1005600003F0A8FA05462068006810F0010F20D1BA
:100570002068816801F0010139B9816821F03F01EB
:1005800021F0004141F00101816003F093FA401B2A
:10059000022809D9E06D40F01000E065206E40F0BF
:1005A00001002066012070BD2068006810F0010F76
:1005B000DED0002070BD00002DE9F0411E4C5A2015
:1005C00020704FF0030C84F801C0A4F1C805AB788B
:1005D000A3700120012B18DB184E2918421E8978C0
:1005E00004EB820201EB410106EB810189680F787F
:1005F000D7700F883F0A17710F683F0C5771096851
:10060000090E9171401C8342E7DA0CEB8300C1B202
:10061000094800F00DFAA97804EB8102D070BDE81A
:10062000F041042000EB810203494FF47A7301F595
:10063000AF6005F02DBA0000400D0020CCA00008EE
:1006400070B51E4C5A202070EF206070A4F1C805D0
:10065000AB78A3700120012B19DBDFF864C02918E7
:10066000421E897804EB820201EB41010CEB81010F
:1006700089680E78D6700E88360A16710E68360CA8
:1006800056710968090E9171401C8342E7DA032014
:1006900000EB8300C1B2094800F0CAF9A97804EB65
:1006A0008102D070042000EB8102BDE87040034954
:1006B0004FF4FA7301F5AF6005F0EAB9400D002080
:1006C000CCA0000870B5184C5A202070F120607042
:1006D0000120DFF858C0A4F1C8031918421E497858
:1006E00004EB820201EB41010CEB810189680D787A
:1006F00095700D882D0AD5700D682D0C157109683F
:10070000090E5171401C0128E7DD0621064800F062
:100710008FF9A071BDE870400349C823072201F595
:10072000AF6005F0B5B90000400D0020CCA0000876
:1007300070B5184C5A202070F22060700120DFF84C
:1007400058C0A4F1C8031918421E497804EB82026C
:1007500001EB41010CEB810189680D7895700D88E2
:100760002D0AD5700D682D0C15710968090E51718F
:10077000401C0228E7DD0A21064800F059F9A07262
:10078000BDE870400349C8230B2201F5AF6005F0B6
:100790007FB90000400D0020CCA0000870B5184CB7
:1007A0005A202070F32060700120DFF858C0A4F1B7
:1007B000C8031918421E497804EB820201EB41017B
:1007C0000CEB810189680D7895700D882D0AD57024
:1007D0000D682D0C15710968090E5171401C032814
:1007E000E7DD0E21064800F023F9A073BDE8704054
:1007F0000349C8230F2201F5AF6005F049B9000095
:10080000400D0020CCA0000870B5184C5A20207074
:10081000F42060700120DFF858C0A4F1C803191853
:10082000421E497804EB820201EB41010CEB81018D
:1008300089680D7895700D882D0AD5700D682D0C7E
:1008400015710968090E5171401C0428E7DD122159
:10085000064800F0EDF8A074BDE870400349C823D5
:10086000132201F5AF6005F013B90000400D002020
:10087000CCA00008F0B4002901DA494209B2A0B1C5
:10088000304E324B304DB77A1C1D42F2D002A3F1EC
:10089000040C87420DD141F2104028601A60CCF858
:1008A000002022601960F0BC7047F0BC802005F089
:1008B00045BEF77A874209D141F2140028601A60D8
:1008C000CCF8002022601960F0BC7047B7798742ED
:1008D00009D141F2041028601A60CCF8002022608F
:1008E0002160F0BC7047F779874209D14FF48A50F4
:1008F00028601A60CCF8002022602160F0BC7047AC
:10090000377A87420AD141F2410028601A60CCF858
:1009100000202260CCF80010F0BC7047767A864246
:100920000AD141F2014028601A60CCF80020226010
:10093000CCF80010F0BC70470728FBD1F0BC802039
:1009400005F0FCBD380C0020202C0140382C014063
:10095000F0B4002901DA494209B2A0B1314E334B5B
:10096000314D377F1C1D42F2D002A3F1040C8742A7
:100970000ED141F2104028601A60CCF800202260AD
:100980001960F0BC7047F0BC4FF4006005F0D6BDB4
:10099000777F874209D141F2140028601A60CCF8B1
:1009A000002022601960F0BC7047377E874209D171
:1009B00041F2041028601A60CCF800202260216007
:1009C000F0BC7047777E874209D14FF48A50286087
:1009D0001A60CCF8002022602160F0BC7047B77E1E
:1009E00087420AD141F2410028601A60CCF8002009
:1009F0002260CCF80010F0BC7047F67E86420AD127
:100A000041F2014028601A60CCF800202260CCF846
:100A10000010F0BC70470728FBD1F0BC4FF4006019
:100A200005F08CBD380C00202034014038340140E2
:100A300000234A1ED2B206D3017819448BB2401C5F
:100A4000521ED2B2F8D2D8B2704700002DE9F04160
:100A50000646434806EB460100EB41140027B4F973
:100A60001400002800DAA7823D4B06EB460003EB9A
:100A70004010B4F91410628B008E914269DD401C65
:100A800080B22086228F90420BD9B4F90E00002844
:100A900003DDA0F10100E08103E002DA00F10100D2
:100AA000E081A08B81424DDD608E401C80B260866B
:100AB000618F4FF0010808FA06F5884208D93046E0
:100AC00007F004FC284605F039FD84F8118067869C
:100AD000B4F91400E18B88422DDDA08E401C80B259
:100AE000A086A18F884208D9304607F0EFFB284640
:100AF00005F024FD84F81180A786B4F91400218C38
:100B0000884211DDE08E401C80B2E086E18F884291
:100B100008D9304607F0DAFB284605F00FFD84F8C7
:100B20001180E786BDE8F081E08E0028FAD0401EF3
:100B3000E086BDE8F081A08E0028FAD0401EA08695
:100B4000BDE8F081608E0028FAD0401E6086BDE8C6
:100B5000F0810028FBD0401E2086BDE8F081000017
:100B6000780B002070B504460125A089002804D028
:100B7000401E80B2A08110B10025284670BDB4F996
:100B80001400217E90FBF1F001B2A06800F0DBF8C8
:100B90000120A073F1E7807B7047C173704710B5E7
:100BA000044600221146606808F00FFFB4F91410E3
:100BB000606808F047FF0021206807F0A3F80022D2
:100BC0001146206807F043F8E28AB4F91210206851
:100BD00007F03DF8E08A218A48434FF47A71B0FB70
:100BE000F1F0401CA08110BD2DE9F047036A4FF0E1
:100BF000000C002290F87540DD6825F00105DD60ED
:100C00005E6AB0F870900025A0F870501F6807F079
:100C10001008F70F002F03D06FF0010AC3F810A0DF
:100C2000D3F80CA04AF0010AC3F80CA026F0004348
:100C300009EB0706B6F5006F02D9012780F8797035
:100C4000B8F1100F59D0B0F87270B0F86E80DF1B99
:100C500006FB087690F8787000EB8707BE62002CE0
:100C600007D900EB8206B66AB444521CD2B2A24243
:100C7000F7D3426A02FB0CFCB0F86E2090F8754086
:100C800062439CFBF2F20A80B0F80CC0A2EB0C0CA1
:100C9000A0F812C0828190F87820B0F86CC000EB08
:100CA0008202926A02FB0CF290F801C002FB0CF285
:100CB000B0F86EC092FBFCF2D0F81CC00CFB02F244
:100CC000B0F81AC092FBFCF2C281A0F8723090F822
:100CD0007820521C80F8782090F8782090F87530B1
:100CE0009A4201D180F8785090F8792092B1002191
:100CF00080F87650C27802700FE0B0F87270B0F8E9
:100D00006E80DF1B06FB187690F8787000EB870783
:100D1000BE62A4E706F031FF01460846BDE8F08751
:100D2000002190F87520002A09D9002200EB8103E8
:100D30009A62491CC9B290F875308B42F6D80121ED
:100D400080F876107047026AC18043784B438380F5
:100D50004FF6FF73002903DA494289B2591A00E0BD
:100D600089B2B0F86E004843B0FBF3F080B2506235
:100D70007047012002F05CBD10B54FF4005002F046
:100D800057FD4FF4804002F053FDBDE810404FF492
:100D9000004002F04DBD022002F04ABD042002F0E6
:100DA00047BD10B5202002F043FD402002F040FD79
:100DB000BDE81040802002F03BBD72B6FEE7002186
:100DC000002812D0017843785A180021002B09D945
:100DD00000EB010C9CF802C0624492B2491CC9B2FB
:100DE0008B42F5D802EB1220C1B2084670470000D2
:100DF000014802F0EEB800005809002014490164CF
:100E00000268D2F88030B0F834C023F4F81343EA13
:100E10000C43C2F880300F4A42640268D2F8803036
:100E200090F838C023F0706343EA0C63C2F8803056
:100E3000094A8264094AC264094A0265094A42654C
:100E4000002201F554700A60091D8142FBD37047EE
:100E500000A4004070A40040B0A4004088A5004059
:100E600060A6004078A6004030B589B00024029406
:100E70000394022004900120059040F2016506953C
:100E800040F2FF70079002A9154802F04FF808B130
:100E9000FFF793FF0222002311461148009402F04D
:100EA00075F808B1FFF789FF0D4802F0A1FA08B103
:100EB000FFF783FF00220121094801F0A9FF08B1D3
:100EC000FFF77BFF07480560446084604FF4802192
:100ED000C160046144618461C461046209B030BDD1
:100EE00058090020BC090020124A107F124901282D
:100EF00001D003280BD10B6843F400630B600B682F
:100F000023F400630B600B6843F400730B6002284A
:100F100001D003280BD1086840F4805008600868AD
:100F200020F480500860086840F480600860002069
:100F300010777047EC0600200020024010F0010FEF
:100F4000054803D0416941F004014161416941F420
:100F500080314161704700000020024008494A6921
:100F6000C0B222F4FC7242EAC0004861486940F015
:100F700002004861486940F48030486170470000D1
:100F8000002002400549D1F814C04CF0010CC1F812
:100F900014C00260BFF36F8F4360704700200240AF
:100FA00040220A4BD3F814C04CF4802CC3F814C070
:100FB000EFF3108C72B60B680360001D091D521E02
:100FC000D2B2002AF7D18CF310887047002002407B
:100FD00070B5064602F06EFD0546184C206910F407
:100FE000803F0AD002F066FD401BB04201D90320C9
:100FF00070BD206910F4803FF4D121694CF2FA30C1
:10100000084098B10E494A6802434A6010F0404FC8
:1010100004D0A16900F040421143A16130F0404189
:1010200002D020F040402061012070BD206910F006
:10103000010F01D001202061002070BD002002407E
:10104000EC06002030B583B0054605EB450000EB0B
:101050000511104800EB410494F82400002816D133
:101060000D4850F8250006F0BAFDE08320820B49B8
:1010700051F82520002A0AD0ADF80800A08AADF862
:101080000A001046029900F052F80190206103B066
:1010900030BD0000E009002068060020B0060020F6
:1010A00010B584B00446002003900290019004EB38
:1010B000440101EB0412174901EB4201086048604A
:1010C000C8600861C883C1F81600C1F81A00088416
:1010D0001148002150F8240005F000FF0F480021BE
:1010E00050F8240005F0FAFE0D4850F8240006F0F0
:1010F000A6FD0C4850F8240005F09DFF0A4850F862
:101100002400002804D004B0BDE8104000F05EB810
:1011100004B010BDE0090020780600208006002001
:101120006806002098060020B0060020704773B5BE
:1011300004462089618A48434FF47A71B0FBF1F587
:10114000608910FB00F1A08910FB00F0084405F055
:101150008EF9E081B0F5004F01DB47F6FF70291AE8
:10116000206805F0C1FE002803DBBDF906002082DF
:1011700002E0B4F910100844B4F91610814200DD01
:101180000846ADF80600A16900FB101005F06FF9E4
:101190000546606805F018FE00FB05F671426068C0
:1011A00005F09EFE3146606805F09CFEBDF9040026
:1011B000A84202DDADF8045005E06942884202DA37
:1011C0006842ADF80400019802B070BD70B50446E5
:1011D00000250021206805F081FEC4F80A50E58151
:1011E000258270BD07485A210170E221417000211B
:1011F0008170F021C17001464FF47A7304220248D5
:1012000004F046BC2A070020B812002030B40022A7
:10121000002914D90B4CDFF830C002EB420304EB79
:1012200083035B793BB9DCF818301D6840F8225025
:101230000C33CCF81830521C92B28A42EDD330BC39
:1012400070470000CCA000083407002000EB4001EC
:101250000B4800EB4110027C816D5143094A92FB1F
:10126000F1F190F9122051438180074A416D1268D3
:10127000511A032901D900218180B0F90400704777
:10128000780B002000879303D8060020A0F10060AF
:10129000C00A704710B5114AD2F8000110494B8DB1
:1012A000C01A888488821068B1F88A30C01AA1F800
:1012B0008400A1F87400D06801F1E40280B21080CB
:1012C000D188401A00110844D08000242046FFF73E
:1012D000BDFB601CC4B2022CF8D310BD80000050CE
:1012E000780B002070B43A49364B354DDFF8D8C042
:1012F000364A1C1DB1F90E10082815D2DFE800F09F
:1013000004324E401624085C70BC802005F016B9EB
:1013100041F2144028601960CCF80010D068401CDD
:10132000D060052800D1216070BC704741F21410D4
:1013300028601960D068401CD0600528F4D1216075
:10134000CCF8001070BC704741F24410286019605E
:101350002160D068401CD0600528F3D1CCF8001083
:1013600070BC704741F2411028602160D068401C79
:10137000D0600528F4D1CCF80010196070BC70471B
:1013800041F2414028602160CCF80010D068401C38
:10139000D0600528F2D1196070BC704741F211404D
:1013A0002860CCF80010D068401CD0600528F3D12C
:1013B0002160196070BC704770BC802005F0BEB819
:1013C000202C0140342C01403C2C0140100700200F
:1013D000380C0020144908280CD2DFE800F004146F
:1013E0001C180C1008204FF4006005F0A7B841F25B
:1013F00014400860704741F214100860704741F2D1
:1014000044100860704741F241100860704741F293
:1014100041400860704741F21140086070474FF446
:10142000006005F08BB800002034014070B5044620
:101430000D46E06A94F849200021002A39D0806ADC
:10144000B4F8AE20904202D3E18129802CE0B4F9B7
:10145000A400E08100B3A0F5FE42FF3A21D094F849
:10146000C720012A1AD0B4F8AA10A288891A09B292
:10147000A4F8A810B4F8C42091FBF2F1A4F8AC10C1
:10148000618B6278484300EB8000E1694000514382
:1014900090FBF1F0288007E0298005E0A4F8AC106B
:1014A000EEE7B4F8B00028802946204606F065FB38
:1014B00004E00020E2782270E18129802988A1815E
:1014C00070BDC16ACA6822F00202CA60002280F8B8
:1014D0004A2080F84B20012380F84930428280F86E
:1014E0004C2080F84D2080F84E20A0F8AC2080F8E9
:1014F000A23080F898200270B0F8AE308B624A6259
:101500000A6842F001020A60CA6842F00202CA6038
:1015100000F032B870B50A4D0121284602F0B4FA45
:1015200044000221284602F0AFFA2043440004217F
:10153000284602F0A9FA204300F0070070BD000021
:101540000004004870B50B4D4FF40051284602F0DE
:101550009BFA44004FF48041284602F095FA20435C
:1015600044004FF40041284602F08EFA204300F078
:10157000070070BD0008004870B490F82060D0F8F3
:1015800030C0056C446BC36B826B416C002E20D065
:10159000126933EA020238D0002282F0010292007E
:1015A0002B69994333D0002142EA4102DCF8101044
:1015B00034EA01012DD00021114380F8A61090F8E3
:1015C000A61007294BD2DFE801F04A2C3832442616
:1015D0003E002D69A94312D000218D00116933EA24
:1015E00001010ED0002145EA4102DCF8101034EA76
:1015F000010108D00021114380F8A610DFE7012186
:10160000EBE70121EFE70121F5E70122C5E7012121
:10161000CAE70121D0E7418C41F255521144818043
:1016200020E0418C43F6FF72114481801AE0418C26
:1016300046F6AA221144818014E0418CA1F5D441E0
:10164000AA3981800EE0418CA1F57C51FF3981805F
:1016500008E0418CA1F5A8515539818002E00021B4
:1016600080F849108188A0F8AA1070BC70472DE955
:10167000F007C26A90F84910002900F0968190F8AE
:10168000A61090F9A25090F82030A3B3D0F83CC037
:10169000836B1B693CEA030352D0002383F00103F0
:1016A0009C00D0F844C0036C1B693CEA030349D09A
:1016B000002344EA4304D0F834C0036B1B693CEABE
:1016C000030341D00023234380F8A63090F8A6609E
:1016D00000244FF0FF3342F6AA2745F2555947F64A
:1016E000FF784FF0010C072E74D2DFE806F0A84116
:1016F0006754942F7D00D0F844C0036C1B693CEA0A
:10170000030317D000239C00D0F83CC0836B1B69F7
:101710003CEA030310D0002344EA4304D0F834C069
:10172000036B1B693CEA030308D00023234380F8C2
:10173000A630CBE70123E6E70123EDE70123F5E738
:101740000123ABE70123B4E70123BCE7042902D05E
:10175000012906D075E080F8A2C0418CA0F8AA103B
:101760006FE080F8A230418C3944A0F8AA1068E0FC
:10177000052902D0032907D063E080F8A2C0418C7C
:101780003944A0F8AA105CE080F8A230418C4944AA
:10179000A0F8AA1055E0012902D0022907D050E094
:1017A00080F8A2C0418C4944A0F8AA1049E080F812
:1017B000A230418C4144A0F8AA1042E0032902D093
:1017C000062908D03DE080F8A2C0418C4144A0F831
:1017D000AA1036E033E080F8A230418CA1F5AA418E
:1017E0005539A0F8AA102CE0022902D0042909D00A
:1017F00027E080F8A2C0418CA1F5AA415539A0F894
:10180000AA101EE080F8A230418CA1F52851AA3917
:10181000A0F8AA1015E0062902D0052909D010E089
:1018200080F8A2C0418CA1F52851AA39A0F8AA10CD
:1018300007E080F8A230418CA0F8AA1001E080F8FF
:10184000494090F9A210A94203D080F84D4080F899
:10185000984090F8C710012902D1B0F8AA108180F1
:1018600090F84C10F1B190F84D1090F82630994254
:1018700004D290F84D10491C80F84D10516B8DB278
:10188000916A89B290F84E3005EB034390F84E60B0
:10189000D6B1491C89B2594390F84B304BB180F80E
:1018A0004B4027E090F84C10491C80F84C10506BCE
:1018B0007BE0936AB0F8AE50AB421BD2936A5B1CDC
:1018C000936280F84BC015E090F84A602EB1891CF5
:1018D00089B2594380F84A400CE0491C89B2594307
:1018E000B5F5AA4F06D2936A23B1936A5B1E936241
:1018F00080F84AC0D0F8BC208A4254D890F898307A
:10190000D0F89C2000EB83031B6DD21AC0F89C20FA
:10191000D0F8B8208A4208D890F9A2305A4390F8FB
:10192000983000EB83031A6511E090F8982000EBE3
:101930008202116590F8982000EB820390F9A220B2
:101940004A431A65D0F89C301A44C0F89C2090F89D
:101950009820521CD2B280F8982090F826309A42F3
:1019600001D180F8984090F84920D2B190F84D30DC
:1019700090F82620934209D2D0F8B420B2FBF1F1BE
:1019800090F9A2205143A0F8A4100CE0D0F89C10CC
:1019900091FBF2F1D0F8B42092FBF1F1A0F8A41081
:1019A00001E0A0F8A44080F84E40BDE8F007002018
:1019B000704770B50446E16A94F8490000283BD0AE
:1019C00094F84E00401C84F84E00886A4FF47A71F7
:1019D000401C4843B4F8C010B4F8C2205143B1FBD6
:1019E000F0F080B294F84E10814225D30025E581B5
:1019F0002046FFF7C1FD84F84E5084F84C5000207B
:101A000094F8261000290AD904EB8002D4F8B81003
:101A10001165401CC0B294F826108142F4D884F8B5
:101A20004D50A4F8A45084F8985094F82610D4F897
:101A3000B8004843C4F89C00002070BD7047000007
:101A40002DE9F80700239C46CDF800C00022466926
:101A5000F94D90F85840012C0DD0012480F85840E1
:101A6000F64F66B10E6A012E09D0D0F86880B8F141
:101A7000000F20D02EE0BDE8F807022070474A682A
:101A8000092A41D18A6A4AB10E6802F07C0206F046
:101A9000F84642EA5642CE6A324303E00A6802F050
:101AA000F842520C0668D6F84C8008EA070717433C
:101AB000F764426628E08666C0F864C08A6A3AB174
:101AC0000E6A02F07C02761E3243CE6A324301E097
:101AD0000A6A521E0E6891F80480C6F3846608F004
:101AE0001F0806FA08F63243866E761E8666D0F820
:101AF000648048EA0202426636B90668D6F84C802D
:101B000008EA07073A43F26402689668C6F3C0061B
:101B100056B991F82560A6B1D66891F8267026F4DA
:101B2000401646EA4756D66002689668C6F38006B5
:101B30009768C7F3C00737434FF007060ED000F091
:101B40004BB991F8266091F82470760546EA07565D
:101B5000D76827F440173E43D660E5E78F6A002F29
:101B60006DD0CF6A002F6AD091F82570012F76D002
:101B7000D76827F00077D76091F83020012A74D019
:101B80000268176927F002071761D1F80880B8F1D9
:101B9000004F79D007680A6802F0007907EBD9573F
:101BA000D7F81490C2F3045206FA02FA29EA0A0995
:101BB00008FA02F249EA02027A610268576927F0DC
:101BC0000047576102684F69D2F80C80C8F3C1081A
:101BD0004FEA480807FA08F80F69042F73D0D1F8C4
:101BE000009002EB8702176EDFF854A209F0F84963
:101BF00007EA0A0749EA080847EA080747F00047E2
:101C000017660268D1F810808F6902EB8802D2F85B
:101C1000608028F0807848EA070717660F7F02681F
:101C2000D1F81080012F4BD0002702EB8802D2F8A8
:101C3000608028F0007848EA07071766CCE091F842
:101C40002570012F06D0D76827F00077D76093E77B
:101C500005E00AE0D76847F00077D7608CE7C26DEF
:101C600042F02002C265012386E78F6B4A6B17435F
:101C70000268D2F8108028F4FF7848F0020847EA9A
:101C80000807176181E7FFE707680A684FF0000857
:101C900002F0007907EBD957D7F81490C2F3045239
:101CA00006FA02FA29EA0A0908FA02F249EA0202E5
:101CB0007A610268576947F00047576182E702E09E
:101CC0004FF00077B1E702F160073F6800277F031C
:101CD0007F0B7CD002F160073F6807F0F84797FA66
:101CE000A7F7B7FA87F80F68C7F31209B9F1000F21
:101CF0006ED097FAA7F7B7FA87F7B84503D1176EF2
:101D000027F0004717660268121D02F160073F685E
:101D100000277F037F0B71D002F160073F6807F057
:101D2000F84797FAA7F7B7FA87F80F68C7F31209C9
:101D3000B9F1000F6AD097FAA7F7B7FA87F7B84555
:101D400003D1176E27F0004717660268083202F1C8
:101D500060073F6800277F037F0B5AD002F16007BE
:101D60003F6807F0F84797FAA7F7B7FA87F80F68C0
:101D7000C7F31209B9F1000F53D097FAA7F7B7FAD2
:101D800087F7B84503D1176E27F00047176602683A
:101D90000C3202F160073F6800277F037F0B43D0BE
:101DA00002F160073F6807F0F84797FAA7F7B7FA1C
:101DB00087F80F68C7F31209B9F1000F43D097FAFB
:101DC000A7F7B7FA87F7B84506D1176E01E009E023
:101DD00010E027F0004717660268976807F00107D0
:101DE00087B3D2E002F160073F6807F0F8474FEA97
:101DF000976878E7C7F384677FE7FFE702F160073A
:101E00003F6807F0F8474FEA97688EE7C7F38467A3
:101E100095E702F160073F6807F0F8474FEA9768D7
:101E2000A5E7C7F38467ACE702F160073F6807F0F6
:101E3000F8474FEA9768BCE700007F400040100475
:101E400000F0FF0302E0C7F38467BCE791F80C8061
:101E50000F68D2F8B090C7F3120A29EA0A09DFF82E
:101E6000E4A108F018082AFA08F808EA070749EA7E
:101E70000707C2F8B070CA68AA427CD10A6807682E
:101E800012EA0A051AD092FAA2F5B5FA85F56D1C88
:101E900005F01F05092D32D8C2F31205002D10D010
:101EA00092FAA2F5B5FA85F505F1010505F01F05D1
:101EB00004FA05F508D1C2F3846409E0C2F384652D
:101EC000E5E7C2F38465EFE792FAA2F4B4FA84F48A
:101ED00004F1010404F01F0445EA846402D1C2F352
:101EE000846203E092FAA2F2B2FA82F202F10102F3
:101EF00002F01F0202EB420244EA025232E0C2F355
:101F00001205002D0DD092FAA2F5B5FA85F505F16E
:101F1000010505F01F0504FA05F505D1C2F3846437
:101F200006E0C2F38465F2E792FAA2F4B4FA84F40C
:101F300004F1010404F01F0445EA846402D1C2F3F1
:101F4000846203E092FAA2F2B2FA82F202F1010292
:101F500002F01F02A2F10A0202EB420244EA02521C
:101F600042F000728D6802F0007407EBD454676988
:101F7000C2F3045200E008E006FA02F627EA060679
:101F800005FA02F246EA020262610A682E490A4232
:101F900052D02E4CA16801F0E07102F1705515F598
:101FA0005F0502D02A4DAA4202D111F4000F11D0D0
:101FB000284D02F1605616F52E0602D111F0807FF1
:101FC00025D002F1505616F5F80635D111F4800FE0
:101FD00028D031E00268B2F1A04F2DD141F40001C8
:101FE000A26822F0E0721143A1601B491B4A0968F4
:101FF000B1FBF2F101EB4101890000910099D9B1E7
:102000000099491E009100990029F9D114E0026855
:10201000AA4211D041F08071A26822F0E07211430F
:10202000A16009E00268AA4206D041F48001A268DA
:1020300022F0E0721143A16080F858C01846BDE854
:10204000F8077047FFFF07000000088000030050FA
:102050001000C090000100500C070020400D03004C
:1020600010B52DED048B06F057FDFFF713F91A4C50
:1020700054F8840CFEF781F99FED198B53EC182B63
:10208000FEF709F99FED189B53EC192BFEF703F9A6
:10209000174A51601060E06FFEF76FF953EC182B90
:1020A000FEF7F9F853EC192BFEF7F5F8114A5160D9
:1020B0001060E06FFEF761F953EC182BFEF7EBF8B8
:1020C00053EC192BFEF7E7F80B4A51601060BDEC9A
:1020D000048B10BD0000000004010050000000004F
:1020E0006666666666660A40000000000000303FD3
:1020F0001800002020000020280000207047000069
:1021000070B504464B48806800F01F052068816860
:10211000C1F3C001002901D0022070BDC16801F0E7
:102120000041C06C10F4C07F00D191B194F8580008
:10213000012814D0012084F858002046FEF7F2F957
:10214000024610004FF0000C0BD084F858C0104627
:1021500070BDE06D40F02000E065012070BD022000
:1021600070BDE06D10F4807F04D0206E20F0080078
:10217000206601E0C4F860C0E06D20F0010020F4AA
:10218000005040F48050E0652B4B2068984202D10B
:102190004FF0A04100E00146814200D01DB9E16D41
:1021A00021F48011E1656021016084F858C0206845
:1021B000C16811F4001F03D0416841F4806141609F
:1021C000A06908280FD02068416821F040014160D3
:1021D0002068416841F020014160206898420DD19B
:1021E0004FF0A0410BE02068416821F020014160E0
:1021F0002068416841F040014160EEE701468142BC
:1022000009D045B1062D06D0072D04D0E06D40F46D
:102210008010E0659BE7C16801F00071002996D14C
:10222000816821F03F0121F0004141F00801816007
:102230008DE7000000030050000100507047704718
:10224000F0B49BB0002390F85820012A19D0012245
:1022500080F858200268394C0025B2F1A04F14D004
:102260000095DDF800C0BCF1000F10D0DDF800C013
:10227000DCF808C0CCF3800C9268C2F3800282B113
:1022800012E01BB00220F0BC70470094E9E7C16D7A
:1022900041F02001C16580F858501BB00120F0BC0E
:1022A0007047BCF1000F0AD0C16D41F02001C1653B
:1022B000012380F858501BB01846F0BC7047204AE4
:1022C0000E684FF0A04C16B3966890F8387026F45C
:1022D000604646EA47364F683E439660DCF808C0E1
:1022E0000CF0010CA46804F001045CEA040CE0D1D9
:1022F000D1F800C089684CEA0101D2F808C02CF07E
:102300001F0C2CF4706C41EA0C019160D1E79168CC
:1023100021F460419160DCF8081001F00101D4F86B
:1023200008C00CF0010C51EA0C01C2D1916821F0F7
:102330001F0121F470619160BBE7000000010050B3
:10234000000300502DE9F80700239C46CDF800C09B
:10235000FE4E90F85820012A12D0012480F85840EF
:102360000568AA68C2F3800272B1C16D41F0200114
:10237000C165012380F858C01846BDE8F8077047CA
:10238000BDE8F807022070478A880F6802F4407899
:1023900005EB9815D5F8308002F01F024FF01F09A9
:1023A00009FA02F9C7F3846728EA090807FA02F272
:1023B00048EA02022A6302689568C5F380059768B7
:1023C000C7F3C0072F434FF0070540F0FF80D1F857
:1023D0000880B8F1004F53D00F6807F0007902EB86
:1023E000D952D2F81490C7F3045705FA07FA29EA2C
:1023F0000A0908FA07F749EA0707576102685769A7
:1024000027F00047576102684F69D2F80C80C8F383
:10241000C1084FEA480807FA08F80F69042F4CD0A2
:10242000D1F8009002EB8702176EDFF824A309F0C1
:10243000F84907EA0A0749EA080847EA080747F09F
:10244000004717660268D1F810808F6902EB880296
:10245000D2F8608028F0807848EA070717660F7F77
:102460000268D1F81080012F24D0002702EB8802E7
:10247000D2F8608028F0007848EA07071766A5E0E0
:102480000F684FF0000807F0007902EBD952D2F83C
:102490001490C7F3045705FA07FA29EA0A0908FA5B
:1024A00007F749EA070757610268576947F000478D
:1024B0005761A8E74FF00077D8E702F160073F685F
:1024C00000277F037F0B7CD002F160073F6807F095
:1024D000F84797FAA7F7B7FA87F80F68C7F3120912
:1024E000B9F1000F6ED097FAA7F7B7FA87F7B8459A
:1024F00003D1176E27F0004717660268121D02F11C
:1025000060073F6800277F037F0B71D002F16007EF
:102510003F6807F0F84797FAA7F7B7FA87F80F6808
:10252000C7F31209B9F1000F6AD097FAA7F7B7FA03
:1025300087F7B84503D1176E27F000471766026882
:10254000083202F160073F6800277F037F0B5AD0F3
:1025500002F160073F6807F0F84797FAA7F7B7FA64
:1025600087F80F68C7F31209B9F1000F53D097FA33
:10257000A7F7B7FA87F7B84503D1176E27F00047DA
:10258000176602680C3202F160073F6800277F037C
:102590007F0B43D002F160073F6807F0F84797FAD6
:1025A000A7F7B7FA87F80F68C7F31209B9F1000F58
:1025B0003CD097FAA7F7B7FA87F7B84506D1176E58
:1025C00001E009E010E027F000471766026897680D
:1025D00007F001076FB3D1E002F160073F6807F031
:1025E000F8474FEA976878E7C7F384677FE7FFE724
:1025F00002F160073F6807F0F8474FEA97688EE7F7
:10260000C7F3846795E702F160073F6807F0F84772
:102610004FEA9768A5E7C7F38467ACE702F1600764
:102620003F6807F0F8474FEA9768BCE7C7F384674D
:10263000C3E791F80C800F68D2F8B090C7F3120A84
:1026400029EA0A09DFF80CA108F018082AFA08F8A4
:1026500008EA070749EA0707C2F8B070CA68B24239
:102660007AD10A68076812EA0A061AD092FAA2F624
:10267000B6FA86F6761C06F01F06092E32D8C2F38B
:102680001206002E10D092FAA2F6B6FA86F606F1DD
:10269000010606F01F0604FA06F608D1C2F38464A8
:1026A00009E0C2F38466E5E7C2F38466EFE792FAD5
:1026B000A2F4B4FA84F404F1010404F01F0446EA1D
:1026C000846402D1C2F3846203E092FAA2F2B2FA05
:1026D00082F202F1010202F01F0202EB420244EA1E
:1026E000025232E0C2F31206002E0DD092FAA2F688
:1026F000B6FA86F606F1010606F01F0604FA06F69B
:1027000005D1C2F3846406E0C2F38466F2E792FA6C
:10271000A2F4B4FA84F404F1010404F01F0446EABC
:10272000846402D1C2F3846203E092FAA2F2B2FAA4
:1027300082F202F1010202F01F02A2F10A0202EB90
:10274000420244EA025242F0007206E000007F407A
:1027500000F0FF03FFFF070010E08E6802F0007436
:1027600007EBD4546769C2F3045205FA02F527EA6D
:10277000050506FA02F245EA020262610A682F497B
:102780000A423FF4F7AD2E4CA16801F0E07102F16E
:10279000705515F55F0502D02A4DAA4202D111F4F9
:1027A000000F1ED0284D02F1605616F52E0602D1FC
:1027B00011F0807F35D002F1505616F5F8067FF4FF
:1027C000D9AD11F4800F7FF4D5AD0268AA423FF471
:1027D000D1AD41F48001A26822F0E0721143A16002
:1027E000C8E50268B2F1A04F7FF4C4AD41F4000126
:1027F000A26822F0E0721143A1601449144A0968EA
:10280000B1FBF2F101EB410189000091009900292F
:102810003FF4B0AD0099491E009100990029F9D10B
:10282000A8E50268AA423FF4A5AD41F08071A26814
:1028300022F0E0721143A1609CE5000000000880D6
:10284000000300501000C090000100500C07002051
:10285000400D0300704770472DE9F04704464FF0E4
:102860000008206805684668DFF8B8A2DAF80800B2
:1028700000F01F0715F0020F10D016F0020F0DD058
:10288000E06D10F0100F03D1E06D40F40060E065E2
:102890002046FFF7D3F8216802200860DFF888920D
:1028A00015F0040F02D016F0040F05D115F0080F33
:1028B00042D016F0080F3FD0E06D10F0100F03D19A
:1028C000E06D40F40070E0652068C16811F4406F6D
:1028D00006D0002151B3484504D14FF0A04102E099
:1028E0000121F7E70146814209D047B1052F06D003
:1028F000092F04D0484504D14FF0A04102E0C1683F
:1029000001E00146C96811F4005F0FD1016811F0C0
:10291000080F0BD08168C1F38001A1B1E06D40F0D8
:102920001000E065206E40F0010020662046FFF7B1
:1029300091FF21680C20086015F0200F14D016F0CC
:10294000200F17D110E0416821F00C014160E06DCB
:1029500020F48070E065E06D10F4805FE6D1E06DFA
:1029600040F00100E065E1E715F0400F50D016F0AF
:10297000400F4DD0E06D10F0100F03D1E06D40F42A
:102980000050E0652068C16C11F4C07F0AD00022BD
:10299000C16811F4406F07D00023484506D14FF0BD
:1029A000A04104E00122F3E70123F6E7014681425A
:1029B00009D047B1062F06D0072F04D0484504D1CF
:1029C0004FF0A04102E0C16801E00146C96832B998
:1029D00011F0007F16D1ABB111F4005F12D1026883
:1029E00012F0400F0ED011F4001F0BD18168C1F31B
:1029F000C001E1B3E06D40F01000E065206E40F0F2
:102A0000010020662046FFF72BFB2168602008604C
:102A100015F0800F0CD016F0800F09D0E06D40F457
:102A20008030E065204600F087F92168802008604A
:102A300015F4807F0DD016F4807F0AD0E06D40F44D
:102A40000030E0652046FFF7F9FB21684FF4807005
:102A5000086015F4007F0FD016F4007F0CD0E06DF5
:102A600040F48020E0652046FFF7E9FB00E014E039
:102A700021684FF40070086015F0100F39D016F07F
:102A8000100F36D0E06BC8B1DFB1DAF8080000F4FF
:102A90006040E8B14FF001081AE0416821F06001A0
:102AA0004160E06D20F48050E065E06D10F4807FBF
:102AB000A8D1E06D40F00100E065A3E74FF0010808
:102AC00006E02068C06810F0010F01D04FF0010847
:102AD000B8F1010F0AD1E06D40F48060E065206E2E
:102AE00040F0020020662046FFF7B5FE2168102066
:102AF000086015F4806F13D016F4806F10D0E06D6D
:102B000040F48040E065206E40F0080020662168B7
:102B10004FF4806008602046BDE8F047FFF7EEBA4A
:102B2000BDE8F0870003005000010050F8B50446EE
:102B3000002500260096002C02D0E06D10B107E0C1
:102B40000120F8BD204600F0F9F8266684F85860A8
:102B500020688168C1F3407129B1816821F03F018B
:102B600021F02041816020688168C1F30071A9B91A
:102B7000816821F03F0121F0004141F080518160E6
:102B8000684869490068B0FBF1F00090009828B1EE
:102B90000098401E009000980028F9D120688168B4
:102BA000C1F3007141B9E16D41F01001E165216EA1
:102BB00041F00101216601258168C1F38001E26DC8
:102BC00012F0100F00D131B1E06D40F01000E0655F
:102BD00001252846F8BDE16D21F4807141F0020124
:102BE000E165806800F0010088B94FF0A04080687E
:102BF00000F001004D49896801F00101084306D148
:102C000060684B498A6822F47C1210438860E1684E
:102C1000E06B627F0843A16841EA4231084394F8BF
:102C2000241040EA0140012903D1218D491E40EAC8
:102C30004140E16A21B101F47871226B08431043ED
:102C40002168CA683B4B1A401043C860206801697C
:102C5000626B21F040611143016120688168C1F31A
:102C600080018268C2F3C002114332D1217F94F8FF
:102C70003820890341EA4201C26822F0020222F4AC
:102C800080421143C160206970B12068016941F43C
:102C9000803101612068D0F8C01022696FF30D0106
:102CA0001143C0F8C0100BE02068016921F48031A5
:102CB00001612068D0F8C0106FF30D01C0F8C0109A
:102CC00094F84000012813D02068016921F0010127
:102CD0000161606901281CD02068016B21F00F019F
:102CE0000163E06D20F0020040F00100E06570E754
:102CF000A16C606C226D0843E16C114340EA010253
:102D0000206801696FF38A01114341F001010161FB
:102D1000DFE72068016B226A21F00F01521E114388
:102D20000163DEE70C070020400D030000010050A6
:102D3000000300500740F0FF7047000070B586B0F8
:102D400000240194029403940494059402682D498C
:102D500003252D4EB2F1A04F2AD0A2F1A040B0F52C
:102D6000807023D129480268521C0260C86C40F070
:102D70000100C864C86C00F001000090C86C40F00D
:102D80000400C864C86C00F0040000905120019059
:102D9000029501A94FF0904000F056FD38200190B7
:102DA0000295039401A9304600F04EFD06B070BDB7
:102DB000C86C40F40050C864C86C00F40050009027
:102DC000886C40F001008864886C00F0010000907D
:102DD000C86C40F00100C864C86C00F001000090AD
:102DE000C86C40F00400C864C86C00F00400009097
:102DF00007200190029501A9304600F025FD06B09C
:102E000070BD00000010024000080048DC060020F1
:102E100010B490F85C30012B08D0022B06D0016E64
:102E200041F00201016610BC01207047D0F800C0DB
:102E3000DCF8583011F0070F02D013F0010F23D047
:102E400011F0380F02D013F0020F1DD011F4E07F03
:102E500002D013F0040F17D011F4F05F02D013F07A
:102E6000080F11D011F4604F02D013F0100F0BD0E7
:102E700011F4403F02D013F0200F05D011F47C0F65
:102E800008D013F0400F05D1DCF85C4044F0010499
:102E9000CCF85C4011F0070F02D013F0010F23D1E2
:102EA00011F0380F02D013F0020F1DD111F4E07FA2
:102EB00002D013F0040F17D111F4F05F02D013F019
:102EC000080F11D111F4604F02D013F0100F0BD185
:102ED00011F4403F02D013F0200F05D111F47C0F04
:102EE00009D013F0400F06D00368D3F85CC04CF053
:102EF000020CC3F85CC011F0800F06D00368D3F851
:102F0000DCC04CEA020CC3F8DCC011F4807F06D0B0
:102F10000368D3F8E0C04CEA0202C3F8E02000687E
:102F2000426D1143416510BC0020704790F85C2051
:102F3000012A07D0022A05D0016E41F00201016684
:102F4000012070470A6882B10B7B0A6942EA437329
:102F500091F808C04A6942EA8C72406C496800EBFB
:102F6000C10003604260002070470B7A4A69B1F8E3
:102F700010C042EA83720B7BDB0643EA0C431A4320
:102F8000006C496800EB81000260ECE710B4DDF8EA
:102F900004C090F85C40012C06D0016E41F00401A1
:102FA000016610BC012070470901006841EA8201F6
:102FB00041EA4301D0F8802041EA0C0122F03F02AF
:102FC0001143C0F8801010BC002070477047704754
:102FD00070472DE9F04704462068016D01F4E05187
:102FE000426D02EA0107016D01F00701426D02EA3C
:102FF0000108016D01F03801426D02EA0109016D1D
:1030000001F47101426D02EA0105016D01F46021D4
:10301000426D02EA0106016D11F0400F08D0416DCA
:1030200011F0400F04D0402101652046FFF7D0FF8A
:103030002068016D11F4807F0ED0416D11F4807F06
:103040000AD0D0F8D810D0F8E02011404FF48072A8
:103050000265204600F0E4F92FB120680765394683
:10306000204600F0DFF9B8F1000F06D02068C0F864
:1030700050804146204600F0B9F9B9F1000F06D062
:103080002068C0F850904946204600F0B0F920680A
:10309000016D11F4007F09D0416D11F4007F05D05E
:1030A0004FF400710165204600F0BDF92068016D04
:1030B00011F0800F0DD0416D11F0800F09D0D0F8C4
:1030C000D410D0F8DC20114080220265204600F0A8
:1030D000A8F92068016D11F4005F09D0416D11F469
:1030E000005F05D04FF400510165204600F097F9CC
:1030F0002068016D11F4004F09D0416D11F4004FAB
:1031000005D04FF400410165204600F087F92068A2
:10311000016D11F4804F0AD0416D11F4804F06D03B
:103120004FF480410165206E40F0800020662EB192
:103130002068066531462046FFF749FF25B1206823
:103140000565206E28432066206E002802D02046A8
:10315000FFF73CFFBDE8F0872DE9F0410446002C65
:1031600005D0784F94F85C00002618B107E00120E4
:10317000BDE8F08184F85D60204600F0E7F8206843
:10318000816921F01001816100F094FC05462068FE
:1031900080694FF0030810F0080F12D000F08AFC8D
:1031A000401B0A2808D9206E40F00100206684F8F0
:1031B0005C800120BDE8F0812068806910F0080F74
:1031C000ECD12068816941F00101816100F072FC5D
:1031D00005462068806910F0010F12D100F06AFCEA
:1031E000401B0A2808D9206E40F00100206684F8B0
:1031F0005C800120BDE8F0812068806910F0010F3B
:10320000ECD02068816941F0020181612068B842F8
:1032100002D14D4960680860207C012839D02068BF
:10322000816941F040018161607C012837D02068CC
:10323000816921F480418161A07C012835D020681A
:10324000816941F48051816120688169A26821F41B
:103250004071114381612068816921F0A40181617D
:103260002068016921F010010161E068012822D085
:1032700030B302282BD02068816941F08001816140
:103280002068016941F010010161E068032818D04D
:1032900022E02068816921F040018161C4E7206853
:1032A000816941F480418161C6E72068816921F428
:1032B00080518161C8E72068816941F00401816122
:1032C0000AE02068816941F02001816104E0206802
:1032D000816941F020018161207EE169401E400644
:1032E000491E40EA0120216A491E0843A18A491E5D
:1032F00040EA01402168C861A068B0F5407F0FD165
:10330000A06AE16A401E491E40EA0120216B491E65
:1033100040EA0110A18C491E40EA01402168C860C2
:103320002068D0F8C010E26B1143C0F8C0102046EE
:10333000FDF764FDA6652666012084F85C00002088
:10334000BDE8F081006400400065004010B586B023
:103350000024019402940394049405940168A1F15B
:103360008040B0F5C8403DD11F48816D41F00071EB
:103370008165816D01F000710091C16C41F0010126
:10338000C164C06C00F0010000904FF4C050019087
:10339000022002900920059001A9C00600F054FA0D
:1033A0004FF480700190012002900394049401A9CD
:1033B0004FF0904000F048FA00224FF480714FF037
:1033C000904000F070FB00224FF480714FF090406D
:1033D00000F069FB00221146152000F07FFE152049
:1033E00000F06EFE06B010BD00100240704770473E
:1033F00090F85C10012905D0016E41F004010166CE
:1034000001207047022180F85C1001688A6922F06F
:1034100001028A61002101660020704770477047F1
:1034200070477047704770472DE9F04704460F46D4
:10343000DFF8E88098F8000001280DD0012588F811
:1034400000504FF47A70FDF7C3FD82464FF000093B
:10345000BAF1000F03D05CE00220BDE8F087C8F8A5
:1034600004902F4E306810F4007F12D0306820F4A2
:1034700000703060306810F4806F07D0306820F43E
:1034800080603060032088F81C0010E088F81C5031
:103490000DE0306810F4806F07D0306820F4806051
:1034A0003060022088F81C0001E088F81C90206839
:1034B000012819D04FF0FF303860A568E068284433
:1034C000A84224D928466168FDF748FD4FF47A7078
:1034D000FDF77EFD8246706920F4FD7070615FEA41
:1034E0000A000ED03D6012E06068FDF727FD4FF442
:1034F0007A70FDF76DFD8246706920F004007061FE
:1035000005E06D1CE168A0680844A842DAD8FDF720
:10351000EBFC88F800905046BDE8F087EC060020F0
:1035200000200240012005494A6942F000424A61F8
:10353000496911F0004F00D0002070470020024080
:103540002DE9F04707468A4614461D460026DFF857
:103550006C8098F80000012809D0012088F800004C
:103560004FF47A70FDF734FDB14618B121E0022026
:10357000BDE8F087C8F8049027B1012F09D0022FC9
:1035800007D00DE022462B465046FDF7FBFC0126F6
:1035900006E021465046FDF703FD022F00D17E04D0
:1035A0004FF47A70FDF714FD1EB105494A69B24324
:1035B0004A6188F80090BDE8F0870000EC06002022
:1035C00000200240002007494A6912F0004F08D04D
:1035D000054A8A60054A8A60496911F0004F00D0A7
:1035E000012070470020024023016745AB89EFCDE1
:1035F0002DE9F05F0446DFF82882DFF81892DFF843
:1036000018A2DFF818B2874E874D08F10107012C88
:1036100003D0022C01D0042C6ED195F8490085F816
:103620004A00FDF777FF85F8490095F84A1040EA0F
:10363000C101C9B285F84B103A7819F8011012FB94
:1036400001F1A9749AF80010082902D0042828D0A2
:103650003BE0411E062919D2317B01290AD00229FB
:103660000AD003290AD004290AD005290AD006293C
:103670000AD00EE0B0710CE0F0710AE0307208E0A0
:10368000707206E0B07204E0F07202E0802002F096
:1036900055FF95F9120000282EDA3878404238702C
:1036A0002AE0DBF8001089B2A5F85010B5F85220D6
:1036B000B5F854C08B1AD8F80420A2EB0C0C03EB1D
:1036C0000C43AB65A5F852106A65B5F902100029E4
:1036D0000ADA80F0070085F84C0085F84E00B5F94D
:1036E0000E10FDF7C7F807E085F84D0085F84E008D
:1036F000B5F90E10FDF7BEF8B4F5005F05D0B4F5CE
:10370000804F02D0B4F5004F51D195F8A90085F84B
:10371000AA00FDF717FF85F8A90098F80010434BA1
:103720004A1CD2B288F800205854112A02D900212C
:1037300088F8001095F8AA1040EAC101C9B285F8CE
:10374000AB107A7819F8011012FB01F185F87210AC
:103750009AF80010092902D001282AD03FE0411E22
:10376000062919D2B17F01290AD002290AD00329DA
:103770000AD004290AD005290AD006290AD00FE068
:1037800030760DE070760BE0B07609E0F07607E079
:10379000307705E0707703E04FF4006002F0CEFE72
:1037A00095F97200002802DA787840427870BDE816
:1037B000F09FDBF8001089B2A5F8B010B5F8B22080
:1037C000B5F8B4C08B1AD8F80420A2EB0C0C03EBAC
:1037D0000C43C5F8B830A5F8B210C5F8B420B5F957
:1037E000621000290BDA80F0070085F8AC0085F83C
:1037F000AE00B5F96E10BDE8F05FFDF7A9B885F829
:10380000AD0085F8AE00B5F96E10BDE8F05FFDF7CC
:103810009FB8000040A0000802000020244401409E
:10382000D4060020380C0020780B0020180B002054
:1038300010B504490A68024202D00860FFF7D8FEBA
:1038400010BD0000140401402DE9F84F00220B6860
:10385000002B7CD00324874E874F0F250123D1F8FE
:1038600000C003FA02F80CEA0803002B70D0D1F86C
:1038700004C0BCF1010F08D0BCF1020F05D0BCF1AF
:10388000110F02D0BCF1120F1DD1D0F808904FEAF1
:10389000420C04FA0CFA29EA0A09D1F80CA00AFA37
:1038A0000CFC4CEA090CC0F808C0D0F804C02CEAA3
:1038B000080C91F80480C8F3001808FA02F848EAE6
:1038C0000C0CC0F804C0D0F80C804FEA420C04FA8B
:1038D0000CFA28EA0A08D1F8089009FA0CF949EA22
:1038E0000808C0F80C80D1F80480B8F1020F02D0AB
:1038F000B8F1120F15D14FEAD20800EB8808D8F8BA
:1039000020B04FEA42794FEAD96905FA09FE2BEA5D
:103910000E0BD1F810E00EFA09F949EA0B09C8F8C4
:103920002090D0F8008028EA0A0891F8049009F065
:10393000030909FA0CFC4CEA080CC0F800C0D1F8E5
:1039400004C01CF0805F7CD0D6F860C001E07DE050
:1039500077E04CF0010CC6F860C0D6F860C00CF0FF
:10396000010CCDF800C022F0030C0CF1804909F5E0
:103970008039D9F808C04FEA82784FEA187805FAFA
:1039800008FA2CEA0A0AB0F1904F64D0A0F1904CEA
:10399000BCF5806C5CD0A0F1904CBCF5006C5DD0A7
:1039A000A0F1904CBCF5406C5BD0A0F1904CBCF504
:1039B000805C59D0A0F1904CBCF5A05C57D04FF082
:1039C000060C0CFA08FC4CEA0A0CC9F808C0D7F837
:1039D00000C02CEA030CD1F8048018F4803F01D019
:1039E0004CEA030CC7F800C0DFF89080D8F800C09C
:1039F0002CEA030CD1F8049019F4003F01D04CEAF2
:103A0000030CC8F800C0DFF87880D8F800C02CEAB2
:103A1000030CD1F8049019F4801F01D04CEA030C78
:103A2000C8F800C0DFF85C80D8F800C02CEA030CAE
:103A3000D1F8049019F4001F01D04CEA030CC8F827
:103A400000C0521C0B68D3407FF408AFBDE8F88F6C
:103A50004FF0010CB5E74FF0000CB2E74FF0020C4D
:103A6000AFE74FF0030CACE74FF0040CA9E74FF0C1
:103A7000050CA6E7001002400004014004040140C8
:103A8000080401400C0401400069084201D00120F3
:103A9000704700207047426921EA0203114043EA5F
:103AA000014181617047002A01D0816170478162C4
:103AB000704700000148806870470000E006002061
:103AC00090F84120202A01D00220704790F8402031
:103AD000012A20D0012280F84020242280F84120B1
:103AE0000268136823F0010313600268136823F46B
:103AF00080531360026813681943116001680A68F3
:103B000042F001020A60202180F84110002180F873
:103B10004010002070470220704790F84120202A72
:103B200001D00220704790F84020012A1ED00122C7
:103B300080F84020242280F841200268136823F096
:103B4000010313600268136823F4706343EA0121E0
:103B5000116001680A6842F001020A60202180F8C1
:103B60004110002180F8401000207047022070476B
:103B700070B50446002C04D094F84100002510B123
:103B800006E0012070BD84F84050204600F0FAF9AC
:103B9000242084F841002068016821F001010160BF
:103BA0006068216820F0706008612068816821F4F5
:103BB00000418160E068012808D0A068216840F4D5
:103BC00004408860E068022806D009E0A068216807
:103BD00040F400408860F5E721684FF400604860D9
:103BE0002068416841F4004141F000714160206863
:103BF000C16821F40041C160616920690843A1697D
:103C000040EA01202168C860216AE0690843216810
:103C100008602068016841F00101016065642020AE
:103C200084F84100256384F84250002070BD0000F4
:103C30002DE9FF4F83B00446DDF84490DDF8408065
:103C4000129F92469B4694F84100202803D007B06B
:103C50000220BDE8F08FB8F1000F18D0B9F1000FC5
:103C600015D094F84000012818D0012084F84000B5
:103C7000FFF720FF054601221923D10320460095B6
:103C800002F064F970B107B00120BDE8F08F4FF485
:103C90000070606407B00120BDE8F08F07B002201B
:103CA000BDE8F08F222084F84100402084F84200D3
:103CB00000266664C4F82480A4F82A9066635B46F4
:103CC0005246009701952046049902F0A9F828B1C0
:103CD00084F8406007B00120BDE8F08F618D3E4858
:103CE0004FF0FF08FF290AD94246A4F82880009027
:103CF0004FF080732046049902F00EF90AE0618DBE
:103D00002185009094F828204FF0007320460499F4
:103D100002F002F93B46002204212046009502F001
:103D200015F918B107B00120BDE8F08F2068406A8E
:103D3000616A0870606A401C6062208D401E80B21B
:103D40002085618D491E6185618D29B320BB3B466D
:103D5000002280212046009502F0F8F818B107B043
:103D60000120BDE8F08F608DFF280AD94246A4F8F3
:103D700028804FF0807300962046049902F0CCF81A
:103D80000AE0608D2085009694F828204FF000739B
:103D90002046049902F0C0F8608D0028BAD12A4666
:103DA0003946204602F008F918B107B00120BDE8F5
:103DB000F08F20682021C16120684268074B1A40BB
:103DC000426084F8411084F8426084F8406007B093
:103DD0000020BDE8F08F00000024008000E800FE15
:103DE0002DE9FF4F83B00446DDF84490DDF84080B4
:103DF000129F92469B4694F84100202803D007B0BA
:103E00000220BDE8F08FB8F1000F18D0B9F1000F13
:103E100015D094F84000012818D0012084F8400003
:103E2000FFF748FE054601221923D10320460095DD
:103E300002F08CF870B107B00120BDE8F08F4FF4AC
:103E40000070606407B00120BDE8F08F07B0022069
:103E5000BDE8F08F212084F84100402084F8420022
:103E600000266664C4F82480A4F82A9066635B4642
:103E70005246009701952046049902F00FF828B1A8
:103E800084F8406007B00120BDE8F08F608D4FF0EE
:103E9000FF08FF280AD94246A4F828804FF0807313
:103EA00000962046049902F037F80AE0608D2085DC
:103EB000009694F828204FF000732046049902F0F1
:103EC0002BF82A463946204602F0A2F818B107B06E
:103ED0000120BDE8F08F606A216800788862606A1E
:103EE000401C6062608D401E6085208D401E80B247
:103EF0002085618D29B320BB3B46002280212046CE
:103F0000009502F023F818B107B00120BDE8F08F4A
:103F1000608DFF280AD94246A4F828804FF08073AC
:103F200000962046049901F0F7FF0AE0608D208595
:103F3000009694F828204FF000732046049901F071
:103F4000EBFF608D0028BCD12A463946204602F09E
:103F500033F818B107B00120BDE8F08F20682021A8
:103F6000C16120684268064B1A40426084F84110E3
:103F700084F8426084F8406007B00020BDE8F08F0C
:103F800000E800FE10B586B0002101910291039176
:103F9000049105910068A0F18041B1F5F0411DD177
:103FA0000F4CE06C40F00400E064E06C00F00400B2
:103FB00000904FF440700190122002900120039075
:103FC0000820059001A90748FFF73EFCA06D40F0CE
:103FD0008040A065A06D00F08040009006B010BD4C
:103FE00000100240000800480248816842681144FD
:103FF00081607047E006002010B50024032000F027
:10400000A1F8042000F008F808B1012401E000F054
:1040100029F8204610BD000070B5054600240F4E5B
:104020007068002817D04FF47A71B1FBF0F00C499A
:104030000968B1FBF0F000F055FF08B101240BE076
:10404000102D06D200222946501E00F047F8356098
:1040500002E0012400E00124204670BDE0060020BB
:104060000C07002008B50C48016E41F00101016603
:10407000016E01F001010091816D41F08051816577
:10408000806D00F080500090042000F05BF8BDE8E7
:10409000084000F0D7B800000010024000280EDBF6
:1040A00000F01F01012202FA01F14009800000F135
:1040B000E020C0F88011BFF34F8FBFF36F8F7047C0
:1040C00000280ADB00F01F01012202FA01F1400979
:1040D000800000F1E020C0F80011704710B4184BC8
:1040E0001B68C3F30223C3F1070CBCF1040F01D911
:1040F0004FF0040C1C1D072C01D2002300E0DB1E36
:10410000012404FA0CFCACF1010C0CEA0101994009
:1041100004FA03F35B1E1A401143002806DB00F18A
:10412000E020090180F8001410BC704700F00F0077
:1041300000F1E020090180F8141D10BC7047000058
:104140000CED00E000F00700064A11684FF6FF038F
:10415000194041EA002040F0FD7040F0806010609E
:10416000704700000CED00E033493222334B096800
:104170004A43334900280AD0B0F5007F31D008689F
:1041800020F4C06040F48060086000207047086838
:1041900000F4C060B0F5806F06D0D1F8800020F444
:1041A0008070C1F88000F0E7D1F8800020F48070C2
:1041B000C1F88000086820F4C06040F40070086016
:1041C000B2FBF3F0401C00E0401E4A6912F4806F1D
:1041D00001D00028F8D1486910F4806FD5D00320B1
:1041E0007047086800F4C060B0F5806F06D0D1F861
:1041F000800040F48070C1F88000C6E7D1F88000EC
:1042000040F48070C1F88000086820F4C06040F479
:1042100000700860B2FBF3F0401C00E0401E4A69E9
:1042200012F4806F01D00028F8D1486910F4806F33
:10423000ABD00320704700000C07002040420F0065
:10424000007000400248816841F4804181607047FD
:10425000007000402DE9F84F044600250027206833
:10426000B04E10F4002F76D0A846B06D10F0805FED
:1042700009D1B06D40F08050B065B06D00F0805055
:1042800000904FF00108DFF8A0A2DAF8000040F437
:104290008070CAF80000FFF70DFC8146DAF80000D4
:1042A00010F4807F0CD1FFF705FCA0EB0900022879
:1042B00001D9032504E0DAF8000010F4807FF2D081
:1042C00025B12F46B8F1010F41D044E0D6F8900057
:1042D00000F44070A0B1216C814211D0D6F890005A
:1042E00020F44070D6F8901041F48031C6F8901058
:1042F000D6F8901021F48031C6F89010C6F89000DE
:1043000010F0010F16D0FFF7D5FB8146D6F89000CC
:1043100010F0020F0ED141F2883AFFF7CBFBA0EB71
:104320000900504501D9032504E0D6F8900010F0AB
:10433000020FF2D00DB12F46C4E7D6F89000216CE1
:1043400020F440700843C6F89000BBE703E0B06D6E
:1043500020F08050B065207810F0010F07D0D6F81B
:104360008800616820F003000843C6F888002078C0
:1043700010F0020F07D0D6F88800A16820F00C00DA
:104380000843C6F88800207810F0040F07D0D6F84C
:104390008800E16820F030000843C6F888002078E3
:1043A00010F0080F07D0D6F88800216920F0C0006F
:1043B0000843C6F88800207810F0200F07D0D6F800
:1043C0008800616920F440600843C6F888002078BE
:1043D00010F0400F07D0D6F88800A16920F44050B3
:1043E0000843C6F88800207810F0800F07D0D6F870
:1043F0008800E16920F440400843C6F8880020881E
:1044000010F4807F07D0D6F88800216A20F440306D
:104410000843C6F88800208810F4007F07D0D6F83B
:104420008800616A20F440200843C6F8880020888C
:1044300010F4806F0FD0D6F88800A16A20F44010E5
:104440000843C6F88800A06AB0F5801F03D1F06861
:1044500040F48010F060208810F4006F0FD0D6F880
:104460008800E16A20F440000843C6F88800E06A4A
:10447000B0F5800F03D1F06840F48010F060208820
:1044800010F4805F0FD0D6F88800216B20F04070C8
:104490000843C6F88800206BB0F1807F03D1F06834
:1044A00040F48010F060208810F4005F0FD0D6F840
:1044B0008800616B20F040600843C6F88800606B9C
:1044C000B0F1006F03D1F06840F48010F0602088F4
:1044D00010F4804F0FD0D6F88800A16B20F0406018
:1044E0000843C6F88800A06BB0F1006F03D1F068F4
:1044F00040F48010F060208810F4004F0FD0D6F800
:104500008800E16B20F040500843C6F88800E06B5B
:10451000B0F1805F03D1F06840F48030F06038463D
:10452000BDE8F88F00100240007000402DE9F04710
:1045300004460D460027002C17D0DFF8DC91D9F88F
:10454000000000F00F00A84212D2D9F8000020F0BD
:104550000F002843C9F80000D9F8000000F00F0050
:10456000A84205D00120BDE8F0870120BDE8F08712
:1045700020786A4E10F0010F41F2883A5ED06068F0
:10458000DFF89C81032806D0022822D0306810F47E
:10459000806F49D021E0306810F0007F0ED003F02A
:1045A00019FA404524D9B06810F0F00F09D02078EE
:1045B00010F0020F1CD0A06818B119E00120BDE86E
:1045C000F087B06820F0F00040F08000B0608027F5
:1045D0000EE0306810F4003F23D000F0D3F84045DF
:1045E00006D9B06820F0F00040F08000B06080276D
:1045F000B068616820F003000843B060FFF75AFA22
:104600008046B068616800F00C00B0EB810F15D0F7
:10461000FFF750FAA0EB0800504508D90320BDE889
:10462000F0870120BDE8F0870120BDE8F087B06881
:10463000616800F00C00B0EB810FE9D1206810F048
:10464000020F17D010F0040F03D0B06840F4E06000
:10465000B060207810F0080F05D0B06820F46050EA
:1046600040F4E060B060B068A16820F0F00008435A
:10467000B06005E0802F03D1B06820F0F000B0609A
:10468000D9F8000000F00F00A8421DD9D9F80000A9
:1046900020F00F002843C9F80000FFF70BFA074687
:1046A000D9F8000000F00F00A8420DD0FFF702FA81
:1046B000C01B504502D90320BDE8F087D9F800009F
:1046C00000F00F00A842F1D1207810F0040F05D0BF
:1046D000B068E16820F4E0600843B060207810F032
:1046E000080F06D0B068216920F4605040EAC1008C
:1046F000B06000F047F8B1680A4AC1F30311515C99
:1047000001F01F01C8400849086008480068BDE87A
:10471000F047FFF781BC000000200240001002407B
:1047200000B4C40498A000080C070020E006002094
:1047300001480068704700000C07002000B5FFF733
:10474000F7FF05498968054AC1F30221515C01F070
:104750001F01C84000BD000000100240A8A00008D2
:1047600000B5FFF7E5FF05498968054AC1F3C22195
:10477000515C01F01F01C84000BD00000010024064
:10478000A8A000081A4A9068DFF868C000F00C0082
:1047900004280CD0906800F00C011748082905D0B7
:1047A00091680C2333EA010103D000207047604672
:1047B0007047D16801F00303D168C1F30311491CAC
:1047C000032B0DD0BCFBF1F0D168C1F306214843A7
:1047D000D168C1F34161491C4900B0FBF1F0704759
:1047E000B0FBF1F0D168C1F306214843F0E70000C7
:1047F000001002400024F40000366E012DE9F84359
:104800000446002C0ED02078FD4F10F0010F60D030
:10481000B8683D4600F00C00E96801F003010C287F
:1048200003D004E00120BDE8F88303291AD008284A
:1048300018D06068B0F5803F1DD0B0F5A02F1FD014
:10484000286820F480302860286820F480202860C0
:10485000606858B3FFF72EF90646286810F4003F49
:1048600017D036E0286810F4003F32D0606880BB73
:104870000120BDE8F883286840F480302860E7E72D
:10488000286840F480202860286840F48030286040
:10489000DEE7FFF70FF9801B642802D90320BDE88B
:1048A000F883286810F4003FF3D012E0FFF702F914
:1048B0000646286810F4003F0BD0FFF7FBF8801B7A
:1048C000642802D90320BDE8F883286810F4003F6B
:1048D000F3D1207810F0020F5ED0B8683D4600F0AA
:1048E0000C00E96801F003010C2801D102290FD066
:1048F00004280DD0E068B8B3286840F480702860C0
:10490000FFF7D8F80646286810F4806F18D023E027
:10491000286810F4806F01D0E06870B16868217C6D
:1049200020F0FE4040EA01606860B6480068FFF78A
:1049300073FB88B30120BDE8F8830120BDE8F8834C
:10494000FFF7B8F8801B022802D90320BDE8F883DE
:10495000286810F4806FF3D06868217C20F0FE4056
:1049600040EA0160686017E0FFE7286820F4807083
:104970002860FFF79FF80646286810F4806F0BD078
:10498000FFF798F8801B022802D90320BDE8F883BE
:10499000286810F4806FF3D1207810F0080F3AD017
:1049A0006069E0B1D7F894003D4640F00100C7F8D7
:1049B0009400FFF77FF80646D5F8940010F0020F38
:1049C00029D1FFF777F8801B022802D90320BDE820
:1049D000F883D5F8940010F0020FF2D01BE0D7F85E
:1049E00094003D4620F00100C7F89400FFF762F8FC
:1049F0000646D5F8940010F0020F0CD0FFF75AF8D5
:104A0000801B022802D90320BDE8F883D5F8940062
:104A100010F0020FF2D1207810F0040F7BD04FF08D
:104A20000008B86D10F0805F09D1B86D40F080507B
:104A3000B865B86D00F0805000904FF00108724DDD
:104A4000286810F4807F16D1286840F480702860B0
:104A5000FFF730F80646286810F4807F0BD1FFF787
:104A600029F8801B022802D90320BDE8F8832868B2
:104A700010F4807FF3D0A06801281AD005281FD039
:104A8000D7F8900020F00100C7F89000D7F8900008
:104A900020F00400C7F89000A06841F2883650B3B7
:104AA000FFF708F80546D7F8900010F0020F14D071
:104AB00037E0D7F8900040F00100C7F89000EBE72E
:104AC000D7F8900040F00400C7F89000D7F89000A5
:104AD00040F00100C7F89000DEE7FEF7EBFF401B57
:104AE000B04202D90320BDE8F883D7F8900010F057
:104AF000020FF2D015E0FEF7DDFF0546D7F8900073
:104B000010F0020F0DD0FEF7D5FF401BB04203D9C5
:104B10000320BDE8F8830BE0D7F8900010F0020FF7
:104B2000F1D1B8F1010F03D1B86D20F08050B86514
:104B3000207810F0200F3AD0A069E0B1D7F89800A3
:104B40003D4640F00100C7F89800FEF7B3FF064667
:104B5000D5F8980010F0020F29D1FEF7ABFF801BAB
:104B6000022802D90320BDE8F883D5F8980010F098
:104B7000020FF2D01BE0D7F898003D4620F001006C
:104B8000C7F89800FEF796FF0646D5F8980010F093
:104B9000020F0CD0FEF78EFF801B022802D90320E3
:104BA000BDE8F883D5F8980010F0020FF2D1E06963
:104BB00060B3B9683D460C2232EA01014FF0FF387C
:104BC00078D0022823D0286820F080702860E86818
:104BD00020F00300E860E86820F4881020F080707E
:104BE000E860FEF767FF0446286810F0007F0DD0EC
:104BF000FEF760FF001B022857D90320BDE8F883A9
:104C000000100240E00600200070004083E02868A9
:104C100020F080702860FEF74DFF0646286810F0EF
:104C2000007F0AD0FEF746FF801B022801D903202F
:104C3000E4E7286810F0007FF4D1616A206A491E19
:104C400040EA0110A16A228E090208EB520241EAF1
:104C50004251084394F8341008EB510140EA416096
:104C600094F82C1040EAC160E9682C4A11400843CE
:104C7000E860286840F080702860E86840F0807044
:104C8000E860FEF717FF0446286810F0007F42D165
:104C9000FEF710FF001B022801D90320AEE72868A9
:104CA00010F0007FF4D036E004E0286810F0007FB8
:104CB0009ED130E001282CD0E868226A00F0030180
:104CC000914224D1626A00F0F001521EB1EB021F42
:104CD0001DD1A26A00F4FE41B1EB022F17D194F866
:104CE0002C1000F07842B2EBC16F10D1228E00F48C
:104CF000C00108EB5202B1EB425F08D194F83410C6
:104D000000F0C06008EB5101B0EB416F03D001200F
:104D100074E7012072E7002070E700000C809F011B
:104D20004FF0E021042804D0086920F00400086155
:104D30007047086940F004000861704770B5FEF7DD
:104D4000B9FE0020FCF782FA0120FCF77FFA5D48EB
:104D5000017841F001010170FEF7ACFE10F0010F87
:104D600043D104215848FEF796FE584880780A2817
:104D70003BD2DFE800F00509191D3BA1A13F4674B5
:104D800052490120887097E05049022088702820FD
:104D9000FFF796F90620FFF793F90720FFF790F940
:104DA0000820FFF78DF987E048490320887083E0E9
:104DB0000024474D002604EB440005EB4010C17C65
:104DC000012901D051B10CE0417C09B1C67408E061
:104DD000B0F90E10204603F0C9F902E0204603F0B6
:104DE00075FA601CC4B2022CE5D365E03749062091
:104DF000887061E03748006800285DD133498870C9
:104E00005AE0324C207801280ED13348002202604B
:104E1000001D0260001D0260002042F21071401C63
:104E200080B28842FBD3227000F09EFE2B49087CA2
:104E3000032841D100200874087027490860091D23
:104E40000860091D08602349097811F0800F04D01B
:104E50000720A070012020702EE0A070FAE71B4C04
:104E6000607801280ED11E4800220260001D0260F9
:104E7000001D0260002042F21071401C80B2884286
:104E8000FBD3627000F0CCFE144991F82200032895
:104E900012D1002081F82200887411490860091D90
:104EA0000860091D08600B49098811F4006F07D0DC
:104EB0000720A07001206070BDE87040FEF7FABDC9
:104EC000A070F7E70C000020000C00480000002054
:104ED000780B002010070020342C0140380C0020F3
:104EE00034340140401EB0F1807F01D3012070476F
:104EF0004FF0E0214861044AF020107000208861E2
:104F0000072008610020704723ED00E010B5FFF78F
:104F100015FF10BD704770477047000070B490F8DF
:104F20003C20012A4CD0012280F83C20CA684FF076
:104F3000000C8B6822F440721A434B6822F48062A2
:104F40001A430B6822F400621A430B6922F4805260
:104F50001A434B6922F400521A430B6B22F480422D
:104F60001A430B8B22F4702242EA0342164C036868
:104F7000164DA34201D0AB4203D1CE6922F080523C
:104F80003243A34201D0AB4214D10E8D22F4700201
:104F900042EA06520E6A22F0807232434E6A22F0D2
:104FA00000723243A34201D0AB4203D1C96A22F05E
:104FB00000520A435A6480F83CC070BC002070471D
:104FC00070BC022070470000002C014000340140FA
:104FD000F0B490F83C30012B0BD0012380F83C302A
:104FE0001368042B21D007DC012B12D0022B07D130
:104FF00015E0F0BC02207047082B1CD0102B20D0ED
:1050000000239C4600240025012920D002293FD1FD
:105010002EE0012300244FF4007C0925F4E702234D
:1050200001244FF4806C0A25EEE7042302244FF498
:10503000006C0B25E8E7082303244FF4805C0C2563
:10504000E2E7102304244FF4005C0D25DCE701683F
:105050000E6E9E43576807FA04F42340334323EA55
:105060000C039268AA4002EA0C021A430A660FE097
:1050700001684E6E9E43576807FA04F42340334399
:1050800023EA0C039268AA4002EA0C021A434A6619
:10509000002180F83C10F0BC00207047704770473A
:1050A00070470000F0B490F83C20012A3ED0012463
:1050B00080F83C40022280F83D2003685A68D3F80B
:1050C00008C01C4D1C4EAB4201D0B34203D122F4A8
:1050D00070024F683A4322F0700222F000720F68AB
:1050E0003A435A600268AA4213D0B2F1804F10D0FE
:1050F000A2F18043B3F580630BD0A2F18043B3F5F6
:10510000006306D0B24204D0A2F18043B3F5A033CD
:1051100004D12CF0800389681943916080F83D40E8
:10512000002180F83C10F0BC00207047F0BC022049
:1051300070470000002C014000340140704710B55A
:105140000446002C03D094F83D0010B107E0012084
:1051500010BD002084F83C00204600F023F8022017
:1051600084F83D00211D206803F08CFA012084F8AA
:10517000480084F83E0084F83F0084F8400084F83A
:10518000410084F8420084F8430084F8440084F825
:10519000450084F8460084F8470084F83D0000206C
:1051A00010BD000086B0002101910291039104918D
:1051B000059102681D49A2F18043B3F596330FD1E2
:1051C0000A6E42F400620A660A6E02F400620092FD
:1051D000CA6C42F00102CA64CA6C02F00102009279
:1051E0000268A2F18043B3F59A330FD10A6E42F4FC
:1051F00000520A660A6E02F400520092CA6C42F033
:105200000202CA64CA6C02F0020200920268A2F1B1
:105210008040B0F5A23007D1086E40F40030086637
:10522000086E00F40030009006B070470010024095
:1052300090F83D10012901D001207047022180F82B
:105240003D100168CA6842F00102CA600068A0F11E
:105250008041B1F596311CD0B0F1804F19D0A0F14A
:105260008041B1F5806114D0A0F18041B1F50061B9
:105270000FD0A0F18041B1F59A310AD0A0F1804160
:10528000B1F5A03105D0016841F0010101600020B5
:1052900070478168054A11400629F8D0B1F5803F72
:1052A000F5D0016841F001010160F0E7070001005D
:1052B000704770B50446206801694FF0000511F091
:1052C000020F17D0C16811F0020F13D0E91E01615F
:1052D000012020772068806910F0030F03D020465A
:1052E000FFF7E6FF05E0204600F05EF9204600F0FB
:1052F0005AFA25772068016911F0040F18D0C168A7
:1053000011F0040F14D06FF0040101610220207726
:105310002068806910F4407F03D02046FFF7C8FF63
:1053200005E0204600F040F9204600F03CFA2577E1
:105330002068016911F0080F18D0C16811F0080F3A
:1053400014D06FF008010161042020772068C06943
:1053500010F0030F03D02046FFF7AAFF05E0204618
:1053600000F022F9204600F01EFA25772068016936
:1053700011F0100F18D0C16811F0100F14D06FF099
:1053800010010161082020772068C06910F4407F77
:1053900003D02046FFF78CFF05E0204600F004F91B
:1053A000204600F000FA25772068016911F0010F0E
:1053B00009D0C16811F0010F05D06FF00101016142
:1053C000204600F07DFA2068016911F0800F09D0B5
:1053D000C16811F0800F05D06FF080010161204697
:1053E000FFF799FD2068016911F4807F09D0C16839
:1053F00011F0800F05D06FF4807101612046FFF736
:1054000089FD2068016911F0400F09D0C16811F0D1
:10541000400F05D06FF040010161204600F05CFABA
:105420002068016911F0200F09D0C16811F0200F28
:1054300005D06FF0200101612046FFF76DFD206867
:10544000016911F4801F09D0C16811F4801F05D0D3
:105450006FF4801101612046FFF721FE2068016989
:1054600011F4001F09D0C16811F4001F05D06FF4BA
:10547000001101612046FFF711FE2068016911F457
:10548000800F09D0C16811F4800F05D06FF480013E
:1054900001612046FFF704FE2068016911F4000F46
:1054A0000BD0C16811F4000F07D06FF40001016147
:1054B0002046BDE87040FFF741BE70BD70B586B0B4
:1054C00000240194029403940494059400683349E1
:1054D0000225A0F18042B2F5963242D0A0F180427E
:1054E000B2F59A323BD1086E40F400500866086E5F
:1054F00000F400500090C86C40F00200C864C86C12
:1055000000F00200009040200190029505200590D7
:10551000234E01A93046FEF797F918200190029515
:10552000039404940420059001A93046FEF78CF9F9
:105530004FF4407001900295039404940A20059062
:1055400001A93046FEF780F92020019002950394CE
:1055500004940320059001A93046FEF775F906B0C2
:1055600070BDC86C40F00100C864C86C00F0010058
:105570000090C86C40F01000C864C86C00F01000C7
:1055800000904FF47C50019002950395059501A978
:105590000448FEF759F906B070BD00000010024043
:1055A0000004004800100048704710B50446002C65
:1055B00003D094F83D0010B107E0012010BD002099
:1055C00084F83C00204600F022F8022084F83D00D8
:1055D000211D206803F056F8012084F8480084F863
:1055E0003E0084F83F0084F8400084F8410084F8CD
:1055F000420084F8430084F8440084F8450084F8AD
:10560000460084F8470084F83D00002010BD704734
:1056100070B504460D4694F83C0001280BD00120DB
:1056200084F83C000C2A4AD007DC5AB1042A1DD069
:10563000082A43D12FE0022070BD102A54D0142A2A
:105640007AD165E02946206803F084F820688169F2
:1056500041F0080181612068816921F004018161C4
:10566000206881692A691143816165E029462068C3
:1056700003F0C4F82068816941F400618161206809
:10568000816921F480618161206881692A6941EA28
:105690000221816150E02946206803F0FDF820686E
:1056A000C16941F00801C1612068C16921F00401AC
:1056B000C1612068C1692A691143C1613CE0294682
:1056C000206803F037F92068C16941F40061C161C5
:1056D0002068C16921F48061C1612068C1692A69BB
:1056E00041EA0221C16127E02946206803F070F9F0
:1056F0002068016D41F0080101652068016D21F00D
:10570000040101652068016D2A691143016513E0F8
:105710002946206803F096F92068016D41F4006184
:1057200001652068016D21F4806101652068016DCB
:105730002A6941EA02210165002084F83C0070BD1D
:1057400010B50446002C03D094F83D0010B107E0DA
:10575000012010BD002084F83C00204600F022F813
:10576000022084F83D00211D206802F08BFF0120FB
:1057700084F8480084F83E0084F83F0084F8400034
:1057800084F8410084F8420084F8430084F844001F
:1057900084F8450084F8460084F8470084F83D000A
:1057A000002010BD7047704710B5044600290DD089
:1057B00004290ED008290FD00C2910D0102911D09F
:1057C00094F84300012810D0012010BD94F83E0049
:1057D000F8E794F83F00F5E794F84000F2E794F812
:1057E0004100EFE794F84200ECE70220F1B304290E
:1057F0004BD008294CD00C294DD010294ED084F81C
:1058000043000122206802F095FF29492068294AB7
:10581000294B88420DD090420BD0984209D0A0F17C
:10582000804CBCF5A23C04D0A0F1804CBCF5A43C5B
:1058300005D1D0F844C04CF4004CC0F844C02068F6
:10584000884210D0B0F1804F0DD0A0F18041B1F569
:10585000806108D0A0F18041B1F5006103D0904291
:1058600001D098421DD18168144A00E00AE011403D
:1058700006291AD0B1F5803F17D0016841F0010127
:10588000016012E084F83E00BBE784F83F00B8E70F
:1058900084F84000B5E784F84100B2E784F842009C
:1058A000AFE7016841F001010160002010BD000078
:1058B000002C01400034014000400140070001007D
:1058C0000349884203D103480168491C01607047BD
:1058D0000C090020D8060020704790F87C100129A0
:1058E00018D0012180F87C102421C0F880100168B4
:1058F0000A680B6823F001030B6022F000510022BC
:105900004266036819602021C0F8801080F87C206E
:10591000002070470220704770B5044694F87C0060
:1059200001281DD0012084F87C002420C4F88000C8
:1059300020680568026822F001020260206882681F
:1059400022F0606211438160204603F06FFC206802
:1059500005602020C4F88000002084F87C0070BD21
:10596000022070BD70B5044694F87C0001281DD05B
:10597000012084F87C002420C4F880002068056899
:10598000026822F0010202602068826822F0604210
:1059900011438160204603F049FC20680560202007
:1059A000C4F88000002084F87C0070BD022070BD27
:1059B00010B50446002C03D0D4F8800010B107E0E5
:1059C000012010BD002084F87C00204600F028F85B
:1059D0002420C4F880002068016821F001010160E2
:1059E000204603F0FFFC012818D0A06A10B1204621
:1059F00003F058FC2068416821F490414160206820
:105A0000816821F02A0181602068016841F001016C
:105A100001602046BDE8104003F0B0BC012010BD7D
:105A200000B587B000210291039104910591069180
:105A30000068A0F18041B1F59C3124D11348016E7A
:105A400041F480410166016E01F480410191C16C15
:105A500041F00201C164C16C01F002010191C16C0D
:105A600041F00101C164C06C00F0010001904FF4ED
:105A7000C0600290022003900720069002A94FF018
:105A80009040FDF7E1FE07B000BD000000100240AD
:105A90002DE9F84304460E4615461F46D4F880000B
:105AA000202802D00220BDE8F883D6B1CDB194F809
:105AB0007C00012818D0012084F87C004FF00009F8
:105AC000C4F888902120C4F88000FDF7F3FF8046D9
:105AD000A4F85450A4F85650A068B0F5805F06D0E2
