:020000040800F2
:10000000B0A500209D01000819880008116B0008A8
:10001000698200082B1000081DDA000800000000AB
:100020000000000000000000000000007FBA00088F
:1000300067180008000000000DA1000853CC00085C
:10004000B7010008B7010008B7010008B7010008B0
:10005000B7010008B7010008A1180008D718000868
:10006000E1180008EB180008F5180008B7010008AF
:10007000B7010008B7010008B7010008B701000880
:10008000B7010008B701000895060008B70100088D
:10009000B7010008B7010008B7010008FF18000801
:1000A000B1CD0008C9CD0008B7010008B7010008AC
:1000B000B7010008B7010008B7010008B701000840
:1000C000B7010008B7010008B7010008B701000830
:1000D000B7010008B7010008B701000801DA0008FD
:1000E000AB180008B7010008B7010008A5CE00084A
:1000F000B7010008B7010008B7010008B701000800
:10010000B7010008B7010008E1CD0008B7010008F9
:10011000B7010008B7010008F1CD000895CE00082E
:100120004D170008B7010008B7010008B701000823
:10013000B7010008B7010008B7010008B7010008BF
:10014000B5100008B7010008B7010008B7010008A2
:10015000B7010008B7010008B7010008B70100089F
:10016000B7010008B7010008B7010008B70100088F
:10017000B7010008B7010008B7010008000000003F
:10018000B7010008B7010008DFF80CD000F0F2F961
:1001900000480047E9E50008B0A500200648804770
:1001A00006480047FEE7FEE7FEE7FEE7FEE7FEE75C
:1001B000FEE7FEE7FEE7FEE795CD000889010008AF
:1001C0002DE9F05F0546002092469B46884606468C
:1001D000814640241BE0284641464746224600F01F
:1001E0005CF953465A46C01A914110D3114618463D
:1001F000224600F043F92D1A67EB01084F462246CC
:100200000120002100F03AF917EB00094E41201EB1
:10021000A4F10104DFDC484631462A464346BDE8E6
:10022000F09F40EA01039B0703D009E008C9121FB1
:1002300008C0042AFAD203E011F8013B00F8013BA0
:10024000521EF9D27047D2B201E000F8012B491ECC
:10025000FBD270470022F6E710B513460A46044663
:100260001946FFF7F0FF204610BD30B504460020C8
:10027000034600E05B1C934203D2E05CCD5C401B74
:10028000F8D030BD2DE9FE4F81EA030404F00044AC
:1002900021F0004100944FF0000B23F0004350EA9E
:1002A00001045ED052EA03045BD0C3F30A54C1F3E5
:1002B0000A552C44A4F2F3340194A0FB0254C1F378
:1002C000130141F48011C3F3130343F4801301FBC2
:1002D000024400FB034E840A970A44EA815447EA29
:1002E0008357A4FB076802958D0A05FB07854FEA33
:1002F000932C04FB0C542705029D4FEA065847EA4D
:100300001637B5EB08056EEB070C870E920E47EA21
:10031000811742EA8312A7FB0201B6EB0B0164EBE3
:1003200000042B0D43EA0C335E1844EB1C50DA46F4
:100330005146E7FB0201C5F313044FEA0B3343EACE
:1003400014534FEA0432019C43EA0603A4F10C045F
:100350000294009CCDE900B400F0BEF803B0BDE803
:10036000F08F00200146F9E70EB5C10F80EAE0707A
:100370000844CA07002140F233438DE80E000A46C4
:100380000B4600F0A9F803B000BD70B5C1F30A52E6
:1003900001F000450024C1F3130140F2FF3341F4A2
:1003A00080119A4201DA002070BD40F233439A4234
:1003B000A2F2334203DC524200F06FF800E09040BA
:1003C0002C43F1D0404270BD00F0004230F00040BC
:1003D0000AD0C10D01F56071C0F3160042EA015167
:1003E000C2084007114370470020014670470000D3
:1003F00030B5041E71F1000404DB4FF000444042AC
:1004000064EB0101141E73F1000405DB1C464FF080
:100410000043524263EB04038B4208BF824230BD6B
:1004200030B5041E71F1000404DB4FF0004440427B
:1004300064EB0101141E73F1000405DB1C464FF050
:100440000043524263EB0403994208BF904230BD1F
:1004500030B50B46014600202022012409E021FA94
:1004600002F59D4205D303FA02F5491B04FA02F591
:100470002844151EA2F10102F1DC30BD202A04DB64
:10048000203A00FA02F1002070479140C2F12003A7
:1004900020FA03F3194390407047202A04DB203AE6
:1004A00021FA02F00021704721FA02F3D040C2F194
:1004B0002002914008431946704710B5141E73F18D
:1004C000000408DA401C41F1000192185B411A4314
:1004D00001D120F0010010BD2DE9F04D92469B4660
:1004E00011B1B1FA81F202E0B0FA80F22032904606
:1004F000FFF7C4FF04460F4640EA0A0041EA0B0139
:1005000053465A46084313D0114653EA010019D006
:10051000C8F140025046FFF7C0FF05460E46504660
:1005200059464246FFF7AAFF084305D0012004E0E0
:1005300020463946BDE8F08D0020054346EAE076C6
:100540002C4337430A986305E40AA0EB0800002215
:10055000FD0A44EA47540A3002D500200146E9E783
:10056000010510196941DDE9084500196941BDE837
:10057000F04DA2E7064C074D06E0E06840F00103AD
:1005800094E8070098471034AC42F6D3FFF700FE1A
:10059000F80101081802010870B58C1810F8015B09
:1005A00015F0070301D110F8013B2A1106D110F80C
:1005B000012B03E010F8016B01F8016B5B1EF9D110
:1005C0002B0705D40023521E0DD401F8013BFAE796
:1005D00010F8013BCB1A921C03E013F8015B01F801
:1005E000015B521EF9D5A142D8D3002070BD70B571
:1005F0000546AC6B206C00F0500050BB206C40F402
:10060000007020642068806800F04050E8B9207EC7
:10061000D8B92068C06A00F4700020B120688068F2
:1006200000F4806088B92068406820F020002168CC
:100630004860206C20F480702064206C00F48050AE
:1006400018B9206C40F0010020642046A16C884756
:100650000BE0206C00F0100018B12046616D884757
:1006600003E0A06BC16C2846884770BD70B5054695
:10067000AC6B40202064606C40F004006064204655
:10068000616D884770BD70B50446A56B2846E96C5E
:10069000884770BD10B5024801F015FD10BD00007F
:1006A000503A002055494A6822F440324A604A686C
:1006B00043681A434A600268526822F480720368F1
:1006C0005A6002685368026943EA022203685A606A
:1006D0000268526822F0407203685A6002685268E9
:1006E00083681A4303685A600268926822F40062C1
:1006F00003689A6002689268C3681A4303689A6044
:100700003F4B826A9A4218D00268926822F0706267
:1007100003689A6002689268836A1A4303689A6061
:100720000268926822F0405203689A6002689268F8
:10073000C36A1A4303689A600BE00268926822F069
:10074000706203689A600268926822F040520368FF
:100750009A600268926822F0020203689A60026856
:100760009368027E43EA420203689A602022125C88
:10077000A2B10268526842F4006203685A600268DB
:10078000526822F4604203685A6002685368426A01
:10079000521E43EA423203685A6005E0026852681A
:1007A00022F4006203685A600268D26A22F470027E
:1007B0000368DA620268D36A828B521E43EA0252ED
:1007C0000368DA620268926822F4007203689A6031
:1007D0000268936890F8302043EA422203689A60E6
:1007E0000268926822F4806203689A6002689368E3
:1007F000426943EA822203689A60704700230140FD
:100800000100000F00B53C48B0F97002002804DD7B
:100810003948D0F87402002809DB3748B0F9700273
:1008200000280ADA3448D0F87402002805DD33487D
:100830000088401C3149088049E02F48B0F8700218
:10084000D8B92D48B0F97012D0F87402081A06D43D
:100850002948B0F97012D0F87402081A06E0264848
:10086000B0F97012D0F87402081AC043B0F5FA7FDC
:1008700003DA00202149088029E01F48B0F97002FE
:100880001D49B1F96C12401A07D41B48B0F9700227
:100890001949B1F96C12401A07E01748B0F9700213
:1008A0001549B1F96C12401AC043B0F5FA7F05DD65
:1008B00012480088401C1149088008E00F48008851
:1008C000002804DD0D480088401E0C4908800B48B4
:1008D0000088B0F5FA6F0DDD4FF4802006F0FCFDC6
:1008E0000020064908800121034880F88412002175
:1008F00080F8881200BD000054800020A201002072
:1009000070B505460C46002C01DA604204B225B9E8
:100910004FF4806006F0E0FDA1E05148807AA842E3
:1009200015D141F29410844204DA43F690404D49C7
:10093000086203E043F6D0404A49086242F2D00020
:10094000484988634863C8630846846387E044482D
:10095000C07AA84215D141F29410844204DA43F2DD
:100960009C004049086203E043F2DC003D49086214
:1009700042F2D0003B4988634863C86308468463F9
:100980006DE037488079A84215D141F29410844235
:1009900004DA43F60C103349086203E043F60C50C6
:1009A0003049086242F2D0002E4988634863C86328
:1009B0000846C46353E02A48C079A84215D141F2E1
:1009C0009410844204DA4FF467502649086203E029
:1009D0004FF477502349086242F2D00021498863DE
:1009E0004863C8630846C46339E01D48007AA842DA
:1009F00015D141F29410844204DA43F2C900194936
:100A0000086203E043F2CD001649086242F2D000CA
:100A1000144988634863C863084644631FE010486C
:100A2000407AA84215D141F29410844204DA43F688
:100A300009400C49086203E043F60D400949086289
:100A400042F2D000074988634863C863084644639C
:100A500005E0072D03D14FF4806006F03DFD70BD29
:100A60001C8700200000014000B53D48B0F9EC02B1
:100A7000002804DD3A48D0F8F002002809DB3848A5
:100A8000B0F9EC0200280ADA3548D0F8F002002864
:100A900005DD34480088401C324908804CE030486D
:100AA000B0F8EC0208BB2E48B0F9EC02002803DBDA
:100AB0002B48B0F9EC0203E02948B0F9EC02C0433E
:100AC0002749D1F8F012002903DB2549D1F8F012AB
:100AD00003E02349D1F8F012C943401AB0F5FA7F78
:100AE00003DA00201F49088026E01D48D0F8F012E4
:100AF000B0F9EC02081A06D41948D0F8F012B0F98F
:100B0000EC02081A06E01648D0F8F012B0F9EC0230
:100B1000081AC043B0F5FA7F05DD12480088401C72
:100B20001049088008E00F480088002804DD0D48BF
:100B30000088401E0B4908800A480088B0F5FA6F0B
:100B40000DDD4FF4002006F0C7FC002005490880A9
:100B50000121034880F80013002180F8041300BD30
:100B600054800020A401002070B505460C46002CDE
:100B700001DA604204B225B94FF4004006F0ACFC43
:100B8000BBE05E48007FA84219D141F29410844234
:100B900004DA43F690405A49086003E043F6D04037
:100BA0005749086042F2D000554918310860091FC2
:100BB000086053491C310860081F04609DE04F48DD
:100BC000407FA84219D141F29410844204DA43F2E2
:100BD0009C004B49086003E043F2DC004849086090
:100BE00042F2D000464918310860091F08604449A4
:100BF0001C310860081F04607FE04048007EA84266
:100C000019D141F29410844204DA43F60C103C49A5
:100C1000086003E043F60C503949086042F2D00006
:100C2000374918310860091F086035491C310860D0
:100C30000846046061E03148407EA84219D141F283
:100C40009410844204DA4FF467502D49086003E0A1
:100C50004FF477502A49086042F2D00028491831F1
:100C60000860091F086026491C31086008460460B6
:100C700043E02248807EA8421AD141F29410844277
:100C800004DA43F2C9001E49086003E043F2CD00D4
:100C90001B49086042F2D000194918310860091F49
:100CA000086017491C31086015481430046024E0BE
:100CB0001248C07EA8421AD141F29410844204DA4C
:100CC00043F609400E49086003E043F60D400C4925
:100CD000086042F2D0000A4918310860091F086014
:100CE00007491C31086006481430046005E0072DF0
:100CF00003D14FF4004006F0EFFB70BD1C870020CD
:100D00002004014000B52448B0F88002002841D0FA
:100D1000214890F98602401CE0B11F4890F88602F5
:100D2000012817D01D480078401C1C49087008464F
:100D300000780A282EDD0A2008700021164880F865
:100D400088124FF4005006F0C7FB0121124880F8CA
:100D500084121FE01048B0F96C12D0F87402081A1F
:100D600006D40D48B0F96C12D0F87402081A06E0E7
:100D70000948B0F96C12D0F87402081AC04314285C
:100D800008DA06480078002804DD04480078401E90
:100D90000249087000BD000054800020A601002018
:100DA00000B52448B0F8FC02002841D0214890F951
:100DB0000203401CE0B11F4890F80203012817D03D
:100DC0001D480078401C1C490870084600780A2815
:100DD0002EDD4FF4804006F07FFB0A201649087094
:100DE0000021144880F80413012180F800131FE04B
:100DF0001048B0F9E812D0F8F002081A06D40D48ED
:100E0000B0F9E812D0F8F002081A06E00948B0F983
:100E1000E812D0F8F002081AC043142808DA06488D
:100E20000078002804DD04480078401E024908705C
:100E300000BD000054800020A701002010B505204F
:100E400000F0F8FE002842D15748B0F88002E8B31D
:100E5000554890EDA50AF3EE040AB4EEE00AF1EE6F
:100E600010FA05D251480088401C5049088004E01F
:100E70004F480088401C4E4908804C480088B0F517
:100E8000FA6F0EDD4FF4001006F026FB4FF4FA6007
:100E9000464908800121444880F88412002180F8E6
:100EA000881243480088B0F5FA7F22DD4FF4FA70CB
:100EB0003F4908804FF4005006F00EFB01213A48EC
:100EC00080F88412002180F8881212E0FFE737488A
:100ED0000088002804DD35480088401E334908801A
:100EE00033480088002804DD31480088401E30491E
:100EF0000880062000F09EFEF0BB2B48B0F8FC02F4
:100F0000D0B3294890EDC40AF3EE040AB4EEE00A27
:100F1000F1EE10FA05D227480088401C25490880C8
:100F200004E025480088401C2349088021480088A7
:100F3000B0F5FA6F0EDD4FF4800006F0CDFA4FF4F5
:100F4000FA601C4908800121174880F8001300212D
:100F500080F8041318480088B0F5FA7F23DD4FF4B9
:100F6000804006F0B9FA4FF4FA7013490880012165
:100F70000D4880F8001300E003E0002180F804131E
:100F800011E00C480088002804DD0A480088401E53
:100F90000849088008480088002804DD06480088C1
:100FA000401E0549088010BD548000209A01002091
:100FB0009E0100209C010020A001002030B50446C5
:100FC000B0EE401A0023002521E0B7EE000A31EE12
:100FD000400ABCEEC00A10EE103A15E0581E04EBB1
:100FE000800090ED000A04EB8300D0ED000AB4EE1F
:100FF000E00AF1EE10FA06DD04EB83015A1E04EB61
:1010000082000DF0E9FF5B1EAB42E7D86D1CB7EE26
:10101000000A71EE400A00EE105AB8EE400AF4EEF3
:10102000C00AF1EE10FAD0DC30BD00BFFEE70000D0
:101030002DE9F04705460E4617469946DDF8208013
:1010400000241A48006B056040F6FF701749096BD1
:1010500048601648006B86601448006BC7601348F0
:10106000006BC0F8108000BF07E019F804100F48AB
:10107000006B14300155601C84B24445F5DB14212B
:101080000A4801F06FFC50B1094841680748006BFD
:1010900000692F2202EBC000084405494860032C78
:1010A00002D10120BDE8F0870020FBE7B039002025
:1010B0005888002010B5024801F070FA10BD0000F9
:1010C000B03900202DE9F04104460D4600270026E6
:1010D0000DB9666B00E0A66B206800F5D87000EBD8
:1010E0000510006800F00400B060B06858B92068CE
:1010F00000F5D87000EB0510006840F2FF7101EABE
:10110000505030600AE0206800F5D87000EB051000
:1011100000686FF0604101EAD0007060206800F55F
:10112000D87000EB0510006800F00200F060206845
:1011300000F5D87000EB0510406800F00F0030613A
:101140003562206800F5D87000EB05104068C0F3E8
:101150000720F061206800F5D87000EB051080686A
:101160003075206800F5D87000EB05108068010A22
:101170007175206800F5D87000EB05108068010CCF
:10118000B175206800F5D87000EB05108068000E7E
:10119000F075206800F5D87000EB0510C068307657
:1011A000206800F5D87000EB0510C068010A717660
:1011B000206800F5D87000EB0510C068010CB1760E
:1011C000206800F5D87000EB0510C068000EF076BE
:1011D0001DB920202168C86008E02020216808612E
:1011E0002068406920F050002168486194F83C7004
:1011F000222F01D0322F05D12068406920F40F4002
:1012000021684861CDB994F83C00422804D0622896
:1012100006D072280CD107E0122084F83C000BE0C5
:10122000322084F83C0007E0522084F83C0003E0C0
:10123000012084F83C0000BF19E094F83C005228DB
:1012400004D0622806D072280CD107E0122084F85E
:101250003C000BE0222084F83C0007E0422084F8A8
:101260003C0003E0012084F83C0000BF00BF2046A2
:1012700001F044FB0020BDE8F08110B50446206871
:10128000406920F001002168486194F83C00122870
:1012900005D12068406920F40F402168486194F826
:1012A0003C00422804D0522806D072280CD107E016
:1012B000222084F83C000BE0322084F83C0007E058
:1012C000622084F83C0003E0012084F83C0000BF69
:1012D00000BF204601F0A2FC002010BD3EB5044630
:1012E0005520194908706620184908708820184947
:1012F000087099201749087017481849086011208C
:101300001749087022204870332088704420C87024
:10131000002101221348124BCDE901210090022245
:10132000110311480CF0F6FE104801780E480BF03E
:1013300083FA0F20A0600E480068606000212046FC
:101340000BF004FB3EBD00005D0F00205E0F00208F
:101350005F0F0020600F002044332211640F002033
:1013600014880020C4870020E83300209C19002046
:10137000B819002030B40A46016B51F82210C1F3AD
:101380000741446B4FF0FF3324F812300122431819
:1013900083F83820026C30BC10472DE9F04FDDE9AE
:1013A0000A48099E4FF0FF3C3FE0A51AEDB2002D20
:1013B00003D00F7807FA05F700E00F7807F0FF0970
:1013C00002D0C4F1080501E0C2F10805EDB2854282
:1013D00000D9054604EB050A4FF0FF0B0BFA0AF79C
:1013E000C4F108042BFA04FB47EA0B0729EA0709B2
:1013F00034783C4044EA090434702A44D2B2072AC3
:1014000005D900220BB1644600E0012421440AF012
:10141000FF04072C07D90024B8F1000F01D067465C
:1014200000E001273E44401BC0B20028BDD1BDE80A
:10143000F08F000010B50446C4EB4410C24901EB24
:101440008000B0F92210C4EB4410BF4A02EB8000C8
:10145000408E81427EDDC4EB4410114601EB8000DA
:10146000808F401C81B2C4EB441002EB8000818766
:10147000C4EB4410114601EB8000B0F92210C4EB1C
:10148000441002EB8000808E81427CDDC4EB44106E
:10149000114601EB8000C08F401C81B2C4EB4410A8
:1014A00002EB8000C187C4EB4410114601EB8000C1
:1014B000C18FC4EB441002EB8000B0F846008142BB
:1014C00014DD20460BF0BEF8012101FA04F006F00D
:1014D00003F80120C4EB44119B4A02EB810108761A
:1014E0000021C4EB441002EB8000C187C4EB441020
:1014F000954901EB8000B0F92210C4EB4410924AE8
:1015000002EB8000C08E81427BDDC4EB44101146AB
:1015100001EB8000B0F84000401C81B2C4EB4410E5
:1015200002EB8000A0F84010C4EB4410114601EB20
:101530008000B0F84010C4EB441002EB8000B0F81B
:101540004800814217DD20460BF07CF8012101FAAA
:1015500004F000E09EE005F0BFFF0120C4EB441161
:10156000794A02EB810108760021C4EB441002EBBA
:101570008000A0F84010C4EB4410734901EB8000D8
:10158000B0F9221000E06FE0C4EB44106E4A02EBA9
:101590008000008F814235DDC4EB4410114601EB21
:1015A0008000B0F84200401C81B2C4EB441002EB52
:1015B0008000A0F84210C4EB4410114601EB8000FB
:1015C000B0F84210C4EB441002EB8000B0F84A00BF
:1015D000814215DD20460BF035F8012101FA04F0B7
:1015E00005F07AFF0120C4EB4411574A02EB810158
:1015F00008760021C4EB441002EB8000A0F84210F2
:10160000A1E018E0C4EB44104F4901EB8000B0F8B2
:10161000420000280EDDC4EB441001EB8000B0F85E
:101620004200401E81B2C4EB4410474A02EB8000E6
:10163000A0F8421087E0C4EB4410434901EB80005E
:10164000B0F8400000287EDDC4EB441001EB8000C0
:10165000B0F84000401E81B2C4EB44103A4A02EB9D
:101660008000A0F840106EE0C4EB4410364901EB56
:101670008000C08F002866DDC4EB441001EB8000C1
:10168000C08F401E81B2C4EB44102F4A02EB800091
:10169000C18758E0C4EB44102B4901EB8000808FD8
:1016A000002850DDC4EB441001EB8000808F401E09
:1016B00081B2C4EB4410244A02EB80008187C4EB62
:1016C0004410114601EB8000C08F00280BDDC4EBF5
:1016D000441001EB8000C08F401E81B2C4EB441067
:1016E00002EB8000C187C4EB4410174901EB800076
:1016F000B0F8400000280EDDC4EB441001EB800080
:10170000B0F84000401E81B2C4EB44100E4A02EB18
:101710008000A0F84010C4EB44100B4901EB80009E
:10172000B0F8420000280EDDC4EB441001EB80004D
:10173000B0F84200401E81B2C4EB4410024A02EBF2
:101740008000A0F8421010BD5480002010B502485F
:1017500001F07AFA10BD0000B43A00200146087882
:1017600010381823B0FBF3F20848805CC865032AE0
:1017700005D908686FF30900001D886503E0086853
:101780006FF309008865886D704700003CF0000821
:10179000014600208A6A8B69CBB932B1012A0DD08B
:1017A000022A03D0032A10D10EE000BFCB6A03F057
:1017B0008073B3F1807F00D1012007E0CB6AB3F1E1
:1017C000C07F00D1012001E000E000BF34E08B6960
:1017D000B3F5005F1AD132B1012A07D0022A03D033
:1017E000032A11D10AE000BF01200EE0CB6A03F00A
:1017F0008073B3F1807F00D1012006E0CB6AB3F1A2
:10180000C07F00D1012000E000BF15E032B1012A05
:1018100005D0022A04D0032A0CD103E000BF00BF88
:10182000012008E0CB6A03F08073B3F1807F00D120
:10183000012000E000BF00BF704730B50468246895
:1018400024F4802405682C60046863608468402C5C
:1018500004D10468A2600468E16003E00468A16048
:101860000468E26030BD70470146481C80B10A48F8
:10187000B0F90000814205D107480088401E00B23F
:10188000054A1080002001EB4102044B03F83200AE
:101890004FF0FF307047000020390020388B0020C7
:1018A00010B5012002F0B4F810BD10B54FF48060FF
:1018B00002F0AEF84FF4006002F0AAF84FF40050C6
:1018C00002F0A6F84FF4804002F0A2F84FF4004076
:1018D00002F09EF810BD10B5022002F099F810BD7C
:1018E00010B5042002F094F810BD10B5082002F0E5
:1018F0008FF810BD10B5102002F08AF810BD10B599
:10190000202002F085F8402002F082F8802002F0CA
:101910007FF84FF4007002F07BF810BD72B600BF84
:10192000FEE7000010B5002201B909E0012901D14C
:101930000A0205E0022901D10A0201E04FF44072D7
:101940000E4B1B6823F440730C4C236023461B682A
:101950001343236023461B6823F0F80323602346C8
:101960001B68022444EAC0042343044C236023463A
:101970001B6843F48033236010BD0000103C02401C
:101980001C48006800F40070B0B11A48006820F4E8
:1019900000701849086000BF0846006840F4006005
:1019A00008600846006820F40060086000BF084630
:1019B000006840F4007008600E48006800F4806021
:1019C000B0B10C48006820F480600A49086000BF8C
:1019D0000846006840F4805008600846006820F41B
:1019E0008050086000BF0846006840F480600860CE
:1019F00070470000003C02400A4A126822F440721C
:101A0000084B1A601A46126842F004021A601A461D
:101A100012684FF4803343EA00231A43014B1A60E3
:101A200070470000103C0240074A126822F44072DE
:101A3000054B1A601A4612681A601A46126842F07C
:101A400001021A6001707047103C024010B50D4948
:101A5000096821F440710B4C21602146096841F46A
:101A6000407121602146096841F001012160026056
:101A700000BF00BF00BFBFF36F8F00BF00BF00BF3C
:101A8000436010BD103C0240084A126822F44072C4
:101A9000064B1A601A46126842F480721A601A469F
:101AA000126842F001021A6001807047103C024047
:101AB000084A126822F44072064B1A601A461268ED
:101AC00042F400721A601A46126842F001021A606B
:101AD00001607047103C02402348006800F010008D
:101AE00040B12248C06940F010002049C861102070
:101AF0001D4908601C48006800F0200040B11B48E8
:101B0000C06940F008001949C861202016490860E2
:101B10001548006800F0400040B11448C06940F02A
:101B200004001249C86140200F4908600E4800684F
:101B300000F0800040B10D48C06940F002000B4940
:101B4000C8618020084908600748006800F002006A
:101B500040B10648C06940F020000449C861022035
:101B600001490860704700000C3C0240C47D002021
:101B700070B50446002500201449C86102F06EF8D3
:101B8000054609E0601C38B124B102F067F8401B3B
:101B9000A04201D9032070BD0D48006800F48030D8
:101BA0000028EFD10A48006800F0010010B10120C0
:101BB000074908600648006800F0F20018B1FFF716
:101BC0008BFF0120E7E70020E5E70000C47D00204F
:101BD0000C3C024030B501460B4A002011E000EBFE
:101BE00040030A4C04EB83035B7943B900EB4004E8
:101BF000064D05EB84041368A4682360121D431C82
:101C000098B28842EBDB30BD0000040800F6000803
:101C100010B50648007838B1FA21054805F06AFA8F
:101C200010B100200149087010BD000049390020A2
:101C3000C49100200146C1EB4110194A02EB80001B
:101C4000806EC1EB4112164B03EB8202D28A5043E5
:101C5000144A92FBF0F0C1EB411203EB820292F9BD
:101C60001A205043C1EB411203EB82029060C1EB9A
:101C700041101A4602EB8000406E0B4A1268101A9F
:101C8000022805D90020C1EB411203EB82029060CB
:101C9000C1EB4110024A02EB8000008900B270479C
:101CA000548000200087930390000020014600200C
:101CB0002C4A914203D2B1F1006F00D350E02A4A7E
:101CC000914204D2274A914201D3012048E0274A99
:101CD000914204D2244A914201D3022040E0244A96
:101CE000914204D2214A914201D3032038E0214A93
:101CF000914204D21E4A914201D3042030E01E4A90
:101D0000914204D21B4A914201D3052028E01B4A8C
:101D1000914204D2184A914201D3062020E0184A89
:101D2000914204D2154A914201D3072018E0154A86
:101D3000914204D2124A914201D3082010E0124A83
:101D4000914204D20F4A914201D3092008E00F4A80
:101D5000914204D20C4A914201D30A2000E00B20A8
:101D600070470000004000080080000800C0000824
:101D70000000010800000208000004080000060836
:101D80000000080800000A0800000C0800000E0807
:101D900010B50446082C2DD2DFE804F00418221DEB
:101DA0000E1309274FF4806005F096FB23E043F6FD
:101DB0009C40124908621EE043F69C100F490862DD
:101DC00019E043F6CC100D49086214E043F6C9103F
:101DD0000A4908620FE043F6C940084908620AE070
:101DE00043F699400549086205E04FF4806005F02C
:101DF00073FB00E000BF00BF10BD00000000014009
:101E000010B50446082C2DD2DFE804F00418221D7A
:101E10000E1309274FF4004005F05EFB23E043F664
:101E20009C40124908601EE043F69C100F49086070
:101E300019E043F6CC100D49086014E043F6C910D0
:101E40000A4908600FE043F6C940084908600AE003
:101E500043F699400549086005E04FF4004005F05D
:101E60003BFB00E000BF00BF10BD000020040140AC
:101E700010B500244FF400410A4801F0D7FE044396
:101E800064004FF48041074801F0D0FE0443640031
:101E90004FF40051034801F0C9FE044304F0070069
:101EA00010BD00000008024070470000024600BF5D
:101EB00092F83C00012801D102207047012082F8ED
:101EC0003C0000BF087C012806D11068406840F043
:101ED00040001368586005E01068406820F040003A
:101EE0001368586010684068114B184013685860B8
:101EF000106840680B681843136858604868136896
:101F000058628868136898621068406820F01F0063
:101F100013685860106840688B899BB21843136837
:101F2000586000BF002082F83C0000BF00BFC4E73B
:101F3000FFFD3FFF38B502460020009000BF92F839
:101F40003C00012801D1022038BD012082F83C006C
:101F500000BF0868092816D91068C0680C780A3CC8
:101F600004EB44050724AC40A0431468E0600C78FF
:101F70000A3C04EB44048868A0401468E4682043E9
:101F80001468E06013E0106800690C7804EB440505
:101F90000724AC40A043146820610C7804EB44048F
:101FA0008868A04014682469204314682061486848
:101FB000072817D21068406B0C79641E04EB840567
:101FC0001F24AC40A04314686063088880B20C7979
:101FD000641E04EB8404A0401468646B20431468FE
:101FE000606331E048680D2817D21068006B0C79E7
:101FF000E41F04EB84051F24AC40A0431468206355
:10200000088880B20C79E41F04EB8404A0401468B3
:10201000246B20431468206316E01068C06A0C79B2
:102020000D3C04EB84051F24AC40A0431468E0621F
:10203000088880B20C790D3C04EB8404A04014683D
:10204000E46A20431468E062194B1A4C1068A042FD
:1020500006D10868122803D1586840F480005860FF
:10206000144C1068A0421CD10868102802D00868DF
:10207000112816D1586840F40000586008681028EC
:102080000FD10D4800680D4CB0FBF4F000EB800060
:102090004000009002E00098401E00900098002848
:1020A000F9D100BF002082F83C0000BF00BF4BE721
:1020B0000023014000200140C800002040420F00E2
:1020C00070477047704770B50446002500262068A9
:1020D0000068C0F3400520684068C0F3401695B31F
:1020E0008EB3206C00F0100018B9206C40F4007022
:1020F00020642068806800F04050E8B9207ED8B99C
:102100002068C06A00F4700020B12068806800F484
:10211000806088B92068406820F02000216848600D
:10212000206C20F480702064206C00F4805018B97A
:10213000206C40F0010020642046A16C88476FF0BD
:1021400012002168086020680068C0F380052068DC
:102150004068C0F3C016E5B3DEB3206C00F0100099
:1021600018B9206C40F4005020642068806800F4A6
:10217000401038BB2068806B00F4401020B120680C
:10218000806800F48060E8B92068406800F48060EE
:10219000C0B92068806800F0405098B9207E88B9A6
:1021A0002068406820F0800021684860206C20F49E
:1021B00080502064206C00F4807018B9206C40F0CE
:1021C000010020642046A16D88476FF00C00216853
:1021D00008602068006800F0010520684068C0F3CE
:1021E000801685B17EB12068006800F0010050B112
:1021F000206C40F4803020642046216D88476FF0C9
:1022000001002168086020680068C0F3401520685C
:102210004068C0F380667DB176B1606C40F002002A
:1022200060646FF02000216808602046616D884777
:102230006FF020002168086070BD000070B5044692
:1022400000250CB9012070BD1C49A06A884200D04D
:1022500000BF206CA0B91A48A0641A48E0641A486C
:1022600020651A4860651A48A065E06D08B91948EC
:10227000E0652046E16D88470020606484F83C00FA
:10228000206C00F0100088B9206C20F4885040F0D9
:10229000020020642046FEF705FA00206064206CEE
:1022A00020F0020040F00100206400E0012500BFA2
:1022B000002084F83C0000BF2846C4E70100000F5E
:1022C000C1200008C3200008D9220008C52000084A
:1022D000A91E0008152300080D490968096801F0C6
:1022E000010161B10A490968496821F04001084AC1
:1022F000126851606FF00101054A126811600449CB
:102300000968496841F04001014A1268516070470C
:10231000503A002010B586B00446142101A8FDF7FC
:1023200099FF36492068884265D100BF002000909F
:102330003348006840F480703149086008460068FE
:1023400000F48070009000BF00BF00BF002000902C
:102350002B481438006840F00400294914390860FB
:102360000846006800F00400009000BF00BF00BFF6
:10237000002000900846006840F001000860084610
:10238000006800F00100009000BF00BF3F200190F6
:10239000032002900020039001A91A4801F046FB97
:1023A0005F200190032002900020039001A91648AD
:1023B00001F03CFB154816490860002048600021E8
:1023C00013488160C1604FF48061016189004161FF
:1023D000890081618911C1614FF44031016200219E
:1023E000416200F051FD08B1FFF798FA00BF0848BC
:1023F000A063846300BF06B010BD00000020014050
:1024000044380240000802400000024010640240CC
:10241000B43A0020F8B504460D4616460020009058
:1024200000BF94F83C00012801D10220F8BD012032
:1024300084F83C0000BF2068806800F00100A0B96B
:102440002068806840F00100216888604948006881
:102450004949B0FBF1F000EB4000009002E0009829
:10246000401E009000980028F9D12068806800F094
:10247000010000287CD0206C40F20161884340F4C8
:10248000807020642068406800F4806028B1206C6F
:1024900020F4005040F480502064206C00F4805000
:1024A000B0F5805F04D1606C20F00600606401E04C
:1024B0000020606400BF002084F83C0000BF2F4F64
:1024C0002F48A16BC8632F48A16B08642E48A16BED
:1024D000C8646FF02200216808602068406840F0FE
:1024E0008060216848602068806840F480702168BE
:1024F0008860226802F14C0133462A46A06B00F046
:1025000039FD786800F01F0018BB20492068884218
:1025100013D01F492068884204D1381D006800F09C
:102520001F0050B11B492068884221D11348001D6B
:10253000006800F01F0010281AD22068806800F0A0
:10254000405028B92068806840F080402168886049
:102550000EE00E49206888420AD12068806800F0A9
:10256000405028B92068806840F080402168886029
:1025700000205BE7C800002040420F00002301401C
:10258000EF050008870600086D06000800200140DE
:102590000021014000220140704700002DE9F04178
:1025A0000446002500260027A8462068C068C0F31E
:1025B000001520684069C0F3C0062DB126B148F46B
:1025C000007810202168C86020680069C0F30015F9
:1025D00020684069C0F380162DB126B148F48068A8
:1025E0001020216808612068406900F0010000287F
:1025F0003BD0206880687A490840884201D1012098
:1026000000E000200546206880687649084088423E
:1026100001D1012000E00020064620688068724950
:102620000840884201D1012000E0002007460DB992
:1026300006B9D7B120688068C0F34005206880687B
:10264000C0F3402620688068C0F340470DB906B942
:102650001FB12046FEF711FE01E048F40068206833
:10266000806862490843216888602068C06800F07B
:10267000030520684069C0F3400625B11EB1002162
:102680002046FEF71FFD2068006900F00305206862
:102690004069C0F3001625B11EB101212046FEF7A6
:1026A00011FD206C40EA080020642068806900F079
:1026B000010520684069C0F3002620684069C0F326
:1026C000C0372DB126B11FB1206C40F0010020644D
:1026D00020688069C0F3400520684069C0F3402647
:1026E00020684069C0F3C0372DB126B11FB1206CFE
:1026F00040F00200206420688069C0F380052068F3
:102700004069C0F3802620684069C0F3C0372DB10E
:1027100026B11FB1206C40F004002064206880695D
:1027200000F0700008B9012000E000200546206894
:102730004069C0F3C02620684069C0F3C03795BB2C
:102740008EB387B32068806900F07005402D1BD0E0
:1027500006DC102D09D0202D0CD0302D24D10EE018
:10276000502D16D0602D1FD118E0206C40F00800CD
:1027700020641AE0206C40F01000206415E0206C0A
:1027800040F02000206410E0206C40F04000206405
:102790000BE0206C40F08000206406E0206C40F4E8
:1027A0008070206401E007E000BF00BF20688069FE
:1027B00020F0700021688861206C78B104202168C5
:1027C0004860012084F83C002068406948F6517157
:1027D0008843216848612046FFF7DEFEBDE8F081AE
:1027E00003000004000300080000031019050100A5
:1027F000024689B992F83C0022280BD092F83C009E
:10280000422807D092F83C00622803D092F83C009E
:10281000722801D102207047012911D192F83C00A1
:1028200032280BD092F83C00522807D092F83C0096
:10283000622803D092F83C00722801D10220EAE716
:1028400000BF92F83D00012801D10220E3E70120FA
:1028500082F83D0000BFC9B992F83C00122804D0AC
:10286000322806D052280CD107E0422082F83C00E2
:102870000BE0622082F83C0007E0722082F83C0006
:1028800003E0222082F83C0000BF19E092F83C00EF
:10289000122804D0222806D042280CD107E052206A
:1028A00082F83C000BE0622082F83C0007E07220D6
:1028B00082F83C0003E0322082F83C0000BF00BFF9
:1028C000002010641068406940F6017318431368D3
:1028D000586100BF002082F83D0000BF31B9106888
:1028E000406940F00A001368586105E010684069CB
:1028F00040F050001368586100208CE710B5044682
:102900001548006800F0100020B11348006800204E
:10291000114908601148D0F84C028068B0B91048DD
:1029200041680E48D0F84C0200692F2202EBC0002B
:1029300008440B4948600948D0F84C02027B07481C
:10294000D0F84C020168054805F090FC00212046B3
:10295000FFF74EFF10BD00000C680040E833002078
:10296000588800202DE9F04104460E460425002732
:102970002068806800F08060B0F1806F0DD0206822
:10298000806800F00060B0F1006F06D020688068B9
:1029900000F08050B0F1805F7DD100BF94F83D0021
:1029A000012802D10220BDE8F081012084F83D0019
:1029B00000BF94F83C00222804D0322806D06228B8
:1029C0000CD107E0422084F83C000BE0522084F850
:1029D0003C0007E0722084F83C0003E0122084F8F9
:1029E0003C0000BF00BF2068806800F08060B0F14C
:1029F000806F01D1002509E02068806800F0006048
:102A0000B0F1006F01D1012500E00225206800F53A
:102A1000C07000EB0510006800F00101206800F5AF
:102A2000C07000EB05100160206B806898B92068C9
:102A300000F5C07000EB05100068216BC968226BBF
:102A4000128841EA42510843216801F5C07101EB47
:102A50000511086015E0206800F5C07000EB051056
:102A60000068216B8968226B526841EAC201226BBF
:102A7000D26811430143206800F5C07000EB0510D7
:102A80000160206B007C00F00F00216B0861206862
:102A900000F5C07000E0B6E000EB0510406820F0E3
:102AA0000F01206800F5C07000EB05104160206840
:102AB00000F5C07000EB05104068216B0969084300
:102AC000216801F5C07101EB05114860206BC07DE4
:102AD0000106206B807D41EA0041206B407D41EA88
:102AE0000020216B097D0843216801F5C07101EBCD
:102AF00005118860206BC07E0106206B807E41EA54
:102B00000041206B407E41EA0021206B007E0143A2
:102B1000206800F5C07000EB0510C160206800F56A
:102B2000C07000EB0510006840F00101206800F55E
:102B3000C07000EB0510016001F090F8074620E03E
:102B4000701CF0B126B101F089F8C01BB04218D951
:102B5000032084F83C001DB980202168886009E0CA
:102B6000012D03D1E8032168886003E04FF40000E1
:102B70002168886000BF002084F83D0000BF03206A
:102B800011E74DB92068806821490840884201D189
:102B9000012016E0002014E0012D09D12068806892
:102BA0001C490840884201D101200AE0002008E0C9
:102BB0002068806818490840884201D1012000E05F
:102BC00000200028BCD094F83C00422804D05228B1
:102BD00006D072280CD107E0222084F83C000BE0DC
:102BE000322084F83C0007E0622084F83C0003E0D7
:102BF000012084F83C0000BF00BF00BF002084F823
:102C00003D0000BFCFE6042084F83C000120CAE666
:102C10000300000400030008000003107047014691
:102C200091F83500022803D08020486501207047C4
:102C3000052081F835000868006820F001000A6866
:102C400010600020F3E70000F8B504460020009073
:102C50008C4800684FF41651B0FBF1F7A56D2E6853
:102C600094F85C1008208840304098B120680068D3
:102C700000F0040070B12068006820F004002168B2
:102C8000086094F85C1008208840A860606D40F0EF
:102C90000100606594F85C1001208840304068B104
:102CA0002068406900F0800040B194F85C10012079
:102CB0008840A860606D40F00200606594F85C1088
:102CC00004208840304068B12068006800F00200AD
:102CD00040B194F85C1004208840A860606D40F01A
:102CE0000400606594F85C1010208840304078B390
:102CF0002068006800F0080050B394F85C101020C1
:102D00008840A8602068006800F4802080B12068B6
:102D1000006800F4002028B9206CC8B12046216C5E
:102D2000884715E0A06C98B12046A16C88470FE059
:102D30002068006800F4807028B92068006820F0DE
:102D4000080021680860206C10B12046216C88477B
:102D500094F85C10202088403040002865D020681E
:102D6000006800F0100000285FD094F85C1020206C
:102D70008840A86094F83500052828D120680068AC
:102D800020F01600216808602068406920F080006B
:102D900021684861206C08B9A06C28B120680068DF
:102DA00020F008002168086094F85C103F208840FB
:102DB000A86000BF002084F8340000BF012084F820
:102DC0003500206D10B12046216D8847F8BD206880
:102DD000006800F4802080B12068006800F40020C2
:102DE00028B9606C10B12046616C88471DE0E06B2B
:102DF000D8B12046E16B884717E02068006800F4EE
:102E0000807068B92068006820F0100021680860B0
:102E100000BF002084F8340000BF012084F8350092
:102E2000E06B10B12046E16B8847606D38B3606D90
:102E300000F00100F0B1052084F83500206800683A
:102E400020F001002168086000BF0098401C00903D
:102E5000B84200D905E02068006800F001000028B1
:102E6000F3D100BF00BF002084F8340000BF012070
:102E700084F83500E06C10B12046E16C884700BF53
:102E8000A4E70000C80000202DE9F0410446002519
:102E900000F0E4FE074614B90120BDE8F081606A45
:102EA00000B100BF00BF002084F8340000BF022042
:102EB00084F835002068006820F00100216808606F
:102EC0000AE000F0CBFEC01B052805D92020606574
:102ED000032084F83500E0E72068006800F0010076
:102EE0000028EED12068056821480540D4E9010199
:102EF0000843E16808432169084361690843A169FF
:102F00000843E1690843216A08430543606A0428CD
:102F100003D1D4E90B01084305432068056020680C
:102F2000456925F00705606A0543606A04280DD1EC
:102F3000A06A0543E06A48B12046FEF729FC28B1A3
:102F400040206065012084F83500A6E720684561CF
:102F50002046FEF703FC064694F85C103F208840AC
:102F6000B06000206065012084F83500002094E7FF
:102F70003F8010F02DE9F04704460D4616461F46E7
:102F80004FF00008D4F8589000BF94F8340001289E
:102F900002D10220BDE8F087012084F8340000BF90
:102FA00094F83500012825D1022084F8350000204E
:102FB00060653B46324629462046FEF73EFC94F8C3
:102FC0005C103F208840C9F808002068006840F085
:102FD000160021680860206C28B12068006840F065
:102FE0000800216808602068006840F0010021683E
:102FF000086006E000BF002084F8340000BF4FF0F6
:1030000002084046C6E7000070B5044600F026FE00
:1030100006462546681C10B104480078054400BFE8
:1030200000F01CFE801BA842FAD370BDC400002033
:103030002DE9F04104460E460127002500BF254832
:10304000007E012802D10220BDE8F0810120214943
:10305000087600BF4CF25030FEF78AFD0746002F7D
:1030600031D1401E3060206801280FD1207C61687A
:10307000FEF7C2FC4CF25030FEF77AFD07461648C8
:10308000006820F00400144908601AE0A56812E006
:10309000217C2846FEF746FC4CF25030FEF768FDD6
:1030A00007460D48006820F0FA000B4908600FB190
:1030B000356005E06D1CD4E902100844A842E7D849
:1030C00000BFFEF75DFC00BF00200249087600BF8C
:1030D0003846B9E7C47D0020103C02400348006830
:1030E00040F000400149086000207047103C024059
:1030F0002DE9F04106460F4614461D464FF00108E3
:1031000000BF1F48007E012802D10220BDE8F081E7
:1031100001201B49087600BF4CF25030FEF728FD15
:103120008046B8F1000F23D126B9E1B23846FEF748
:103130007BFC12E0012E04D1A1B23846FEF7A4FCBC
:103140000BE0022E04D121463846FEF7B1FC04E024
:1031500022462B463846FEF779FC4CF25030FEF7FB
:1031600007FD80460748006820F001000549086017
:1031700000BF00200249087600BF4046C6E70000B5
:10318000C47D0020103C024000200949096801F07C
:10319000004159B10749064A0C3A116006491160CD
:1031A0000349096801F0004101B1012070470000A6
:1031B000103C024023016745AB89EFCD10B50446B2
:1031C000202C03D0402C01D0802C6ED1FE4890F8EA
:1031D000C51280F8C612FD480068C0F34211FA48D3
:1031E00080F8C51290F8C51290F8C60241EAC000F6
:1031F000C1B2F54880F8C712F5480178F24890F856
:10320000C702F44A105C11FB00F041B2EE4880F8AE
:103210008612FDF777FDF0480078082856D1EA4875
:1032200090F8C502002841DDE74890F8C50207285C
:103230003CDAEA48007B012805D1E34890F8C50252
:10324000E649887136E0E548007B022805D1DE4872
:1032500090F8C512E148C1712CE0E048007B0328DA
:1032600005D1D94890F8C512DC48017222E0DB484C
:10327000007B042805D1D44890F8C512D748417284
:1032800018E0D648007B052805D1CF4890F8C51234
:10329000D24881720EE0D148007B06280AD1CA4884
:1032A00090F8C512CD48C17204E00EE04FF4806082
:1032B00004F012F9C44890F98602002805DAC448DF
:1032C0000078404240B2C2490870A3E0BE4890F87E
:1032D0008602012805D0BC4890F98602401C0028CF
:1032E00072D1B94890F8C50201284ED10103BC48FB
:1032F00000F0A4FCBB4800680621B0FBF1F1B24825
:10330000C0F8E412D0F8E41290F8DF0241433C2008
:10331000B1FBF0F081B2AC48A0F8DC1290F8C51215
:1033200080F8C91290F8C50280F00701A64880F81D
:10333000C8120020AB490860AB490860A248B0F849
:10334000DC02AA4909684863A948006881B29E481E
:10335000A0F8CC12B0F8CC12B0F8CE02091A9A48F4
:10336000D0F8D002A34A1268101A4FF4803202FB40
:1033700000119548C0F8D412B0F8CC12A0F8CE12C3
:103380009C4801689048C0F8D0128F4890F8840299
:1033900090BB8D48B0F97002002816DA8A48D0F840
:1033A000740210F5FA7F07DD874890F8C50280F0B7
:1033B0000701854880F8C812834AB2F9801292F852
:1033C000C802FDF79DFA25E017E07F48B0F97002CA
:1033D00000281FDD7C48D0F87402B0F5FA7F04DACB
:1033E000794890F8C51280F8C912774AB2F980126C
:1033F00092F8C902FDF784FA0CE0734890F8C50210
:1034000020B1714890F8C502072803D14FF48060BD
:1034100004F062F8B4F5005F05D0B4F5804F02D037
:10342000B4F5004F7CD1684890F8411380F84213FE
:10343000FEF71EFD0146644880F8411390F84113E1
:1034400090F8420341EAC000C1B25F4880F84313DC
:103450005F4841785C4890F843035E4A105C11FB7A
:1034600000F041B2584880F80213FDF799FC5A4821
:103470000078092855D1544890F84103002840DDD0
:10348000514890F8410307283BDA5448807F0128CF
:1034900005D14D4890F841135048017635E04F482A
:1034A000807F022805D1484890F841134B48417667
:1034B0002BE04A48807F032805D1434890F8411308
:1034C0004648817621E04548807F042805D13E4862
:1034D00090F841134148C17617E04048807F0528A5
:1034E00005D1394890F841133C4801770DE03B483D
:1034F000807F062809D1344890F841133748417736
:1035000003E04FF4004003F0E7FF2F4890F9020377
:10351000002805DA2E484078404240B22C494870D5
:10352000BEE0294890F80203012805D0264890F90A
:103530000203401C002865D1234890F8410301286C
:103540006AD12D4800680621B0FBF1F11E48C0F891
:103550006013D0F8601390F85B0341433C20B1FB4B
:10356000F0F081B21848A0F8581390F8411380F891
:10357000451390F8410380F00701134880F8441385
:1035800000201D4908601D4908600F48B0F8580325
:103590001B49096848631648006881B20A48A0F8C8
:1035A0004813B0F84813B0F84A03091A0648D0F88F
:1035B0004C03104A1268101A4FF4803202FB0011BB
:1035C0000148C0F850131EE054800020100C024047
:1035D0009C000020FCEF00080D0000201C8700204C
:1035E00000040240240C004028000020143C00206D
:1035F0002414004090000020241800402C000020DB
:10360000D43D00203FE0B0F84813A0F84A13F44836
:103610000168F448C0F84C13F24890F8000388BBE6
:10362000F048B0F9EC02002815DAEE48D0F8F002C4
:1036300010F5FA7F07DDEB4890F8410380F00701B1
:10364000E84880F84413E74AB2F9FC1292F84403C0
:10365000FDF78AFA24E0E348B0F9EC0200281FDD08
:10366000E048D0F8F002B0F5FA7F04DADD4890F8CF
:10367000411380F84513DB4AB2F9FC1292F8450376
:10368000FDF772FA0CE0D74890F8410320B1D54815
:1036900090F84103072803D14FF4004003F01CFFCA
:1036A000012C1FD1CF48B0F9120000280DDDCD4804
:1036B000B0F86000002815DDCA48B0F86000401E70
:1036C00081B2C848A0F860100CE0C648B0F91200FA
:1036D000002807DAC348B0F86000401C81B2C14836
:1036E000A0F86010022C1FD1BE48B0F98E0000284F
:1036F00008DDBC48B0F8DC00401C81B2B948A0F835
:10370000DC1011E0B748B0F98E0000280CDAB5489B
:10371000B0F8DC00002807DDB248B0F8DC00401E3D
:1037200081B2B048A0F8DC10042C1FD1AD48B0F92C
:103730000A0100280DDDAB48B0F85801002815DD5E
:10374000A848B0F85801401E81B2A648A0F8581108
:103750000CE0A448B0F90A01002807DAA148B0F843
:103760005801401C81B29F48A0F85811082C1FD165
:103770009C48B0F96E0400280DDD9A48B0F8BC04EE
:10378000002815DD9748B0F8BC04401E81B295486A
:10379000A0F8BC140CE09348B0F96E04002807DAD6
:1037A0009048B0F8BC04401C81B28E48A0F8BC140C
:1037B000102C24D18C480068C0F30010F8B9002008
:1037C0008A490860091D086008600120874920397E
:1037D0000860800703F080FE0021824880F804130F
:1037E00083480078401C8249087001217D4880F898
:1037F000001380484078401C40B27E494870B4F5C0
:10380000006F29D17C480069C0F3C02020BB44F27E
:10381000A2107A4908607A49086001207749203966
:103820000860774920390860800603F055FE0021C2
:103830006C48A0F88811A0F8041280F8901180F864
:103840000C12012180F88C1180F8081269488078E8
:10385000401C40B267498870B4F5806F7ED16648DD
:103860000069C0F38020E8BB00204FF0804148632E
:103870008863012211465C48103800F0E8F9012203
:1038800002215948103800F0E2F900205549888299
:103890004FF08041C8630864012204215248103867
:1038A00000F0D5F9012208214F48103800F0CFF977
:1038B00000214C48A0F89010002052490860091DD2
:1038C0000860012289154848103800F0C0F901222B
:1038D00051024548103800F0BAF900214148A0F8DB
:1038E0000C1100E03AE00020464908310860091D4B
:1038F0000860012209153C48103800F0A8F901229F
:10390000D1023948103800F0A2F900213548A0F85A
:1039100070140120810748613A4920390860C006C7
:1039200003F0DAFD00202F49087700212D4880F8A8
:10393000981080F8141180F878140120294908762D
:103940000121284880F8941080F8101180F8741430
:103950002848C078401C40B22649C870B4F5007FA2
:103960003CD125480069C0F34020B8BB42F2D100E9
:1039700025490860091D086000201C490C310860B9
:1039800022490864012048611F492039086017490D
:1039900020390860000703F09FFD00211148A0F8BE
:1039A000EC14A0F86815A0F8E415A0F8601680F8EB
:1039B000F41480F8701580F8EC1580F86816012171
:1039C00080F8F01480F86C1580F8E81580F864161B
:1039D00008480079401C40B20649087110BD00003B
:1039E0009000002054800020100C0240340401405C
:1039F0003200002021000020000002403444014039
:103A000034480140340800403404004000000140C4
:103A100010B5044604480068204020B10248046004
:103A20002046FFF7CBFB10BD143C0140F8B5024621
:103A30000B460025002400200021DCE0012606FAC8
:103A400001F51E6806EA0504AC4273D15E68012EDA
:103A500008D05E68022E05D05E68112E02D05E6826
:103A6000122E13D190684F000326BE40B0434F0082
:103A7000DE68BE4030439060506801268E40B043FF
:103A80001E79C6F300168E4030435060D0684F0058
:103A90000326BE40B0434F009E68BE403043D06016
:103AA0005E68022E02D05E68122E13D1CF0802F19A
:103AB000200656F827004E07F70E0F26BE40B043EB
:103AC0004F07FF0E1E69BE403043CF0802F12006AB
:103AD00046F8270010684F000326BE40B0431E7909
:103AE00006F003064F00BE40304310605E6806F0EB
:103AF0008056B6F1805F7DD100BF00260096404E13
:103B0000366846F480463E4F3E603E46366806F4D0
:103B10008046009600BF00BF3A4E8F0856F8270037
:103B20008E07370F0F26BE40B043374EB24202D148
:103B3000002624E05EE0354EB24201D101261EE0AF
:103B4000334EB24201D1022619E0324EB24201D1C7
:103B5000032614E0304EB24201D104260FE02F4E6E
:103B6000B24201D105260AE02D4EB24201D106260D
:103B700005E02C4EB24201D1072600E008268F074F
:103B80003F0FBE4030431F4E8F0846F82700264E99
:103B90003068A0435E6806F48036B6F5803F00D1F9
:103BA0002043214E3060361D3068A0435E6806F425
:103BB0000036B6F5003F00D120431B4E361D306065
:103BC000361D3068A0435E6806F48016B6F5801F87
:103BD00000D12043144E08363060361D3068A043B3
:103BE0005E6806F40016B6F5001F00D120430E4EA5
:103BF0000C363060491C1029FFF420AFF8BD0000DE
:103C000044380240083801400000024000040240ED
:103C100000080240000C0240001002400014024064
:103C200000180240001C0240003C0140024613699B
:103C30000B400BB1012000E00020704742690A40B0
:103C40008A4202D10A04826100E0816170470AB1B0
:103C5000816101E00B048361704700000148006846
:103C600070470000BC00002070B504460CB901206C
:103C700070BD4CF6CC402168086045F25550216873
:103C80000860D4E9001048602168A0688860FFF7E8
:103C9000E5FF054606E0FFF7E1FF401B302801D9AC
:103CA0000320E5E72068C0680028F4D14AF6AA207E
:103CB000216808600020DBE701464AF6AA200A686E
:103CC000106000207047000003480068034909782D
:103CD0000844014908607047BC000020C40000206F
:103CE00010B50D48006840F400700B4908600846A4
:103CF000006840F4806008600846006840F4807006
:103D00000860032000F0C8F8002000F007F800F079
:103D10002BF8002010BD0000003C024070B50446A6
:103D20000E4800784FF47A71B1FBF0F00C49096845
:103D3000B1FBF0F5284600F093FE08B1012070BDFC
:103D4000102C07D200222146501E00F067F80548CB
:103D5000046001E00120F2E70020F0E7C400002049
:103D6000C8000020C000002008B500BF002000905F
:103D70001048006840F480400E490860084600681A
:103D800000F48040009000BF00BF00BF0020009002
:103D9000081F006840F08050091F0860084600684E
:103DA00000F08050009000BF00BF052000F074F8C4
:103DB00008BD00004438024010B5014608460028FE
:103DC00017DB00F01F0301229A400B4B440943F814
:103DD000242000BF00BF00BFBFF34F8F00BF00BF54
:103DE00000BF00BF00BF00BFBFF36F8F00BF00BFA9
:103DF00000BF00BF10BD000080E100E001460846A2
:103E0000002809DB00F01F0301229A4043099B00B0
:103E100003F1E023C3F8002100BF70472DE9F05FF4
:103E200080460D461646002709F026FF074639460C
:103E30002A46334601F00700C0F1070ABAF1040F21
:103E400002D94FF0040A01E0C0F1070AD14600F19F
:103E5000040ABAF1070F02D24FF0000A01E0A0F104
:103E6000030AD4464FF0010A0AFA09FAAAF1010A34
:103E70000AEA020A0AFA0CFA4FF0010B0BFA0CFBE1
:103E8000ABF1010B0BEA030B4AEA0B042146404657
:103E900009F0FAFEBDE8F09F00BF00F00702064BF4
:103EA00019684FF6FF031940044B0B4343EA022104
:103EB000014B196000BF70470CED00E00000FA05EF
:103EC00070B504460D460CB9012070BD5848006815
:103ED00000F00F00A84209D255490D70084600684D
:103EE00000F00F00A84201D00120EEE7207800F09A
:103EF000020002281DD1207800F00400042805D11A
:103F00004C48006840F4E0504A490860207800F0CE
:103F10000800082805D14748006840F4604045493A
:103F200008604448006820F0F000A1680843414957
:103F30000860207800F00100A8B36068012807D16C
:103F40003C4808380068C0F34040B8B90120BCE7DD
:103F50006068022802D06068032807D13548083815
:103F60000068C0F3406048B90120AEE73148083826
:103F70000068C0F3400008B90120A6E72D4800689A
:103F800020F00300616808432A490860FFF766FED5
:103F9000064609E0FFF762FE801B41F28831884245
:103FA00002D9032091E707E02248006800F00C00E6
:103FB0006168B0EB810FEDD11D48006800F00F0083
:103FC000A84209D91A490D700846006800F00F0090
:103FD000A84201D0012078E7207800F004000428EE
:103FE00007D11448006820F4E050E1680843114903
:103FF0000860207800F00800082808D10D48006803
:1040000020F46040216940EAC1000A49086000F0DC
:104010003FF808490968C1F30311074A515CC840D9
:104020000649086006480068FFF778FE00204CE764
:10403000003C02400838024044F00008C80000205C
:10404000C00000200148006870470000C800002040
:1040500000B5FFF7F7FF04490968C1F38221034A5D
:10406000515CC84000BD00000838024054F0000810
:1040700000B5FFF7E7FF04490968C1F34231034A7D
:10408000515CC84000BD00000838024054F00008F0
:104090002DE9F047002400250026A14625480068A8
:1040A00000F00C0020B1042805D008283AD105E022
:1040B000DFF8849039E0DFF8849036E01D48001F77
:1040C000006800F03F041B48001F006800F48000F7
:1040D00078B11A481749091F0968C1F38811A0FB74
:1040E00001700146224600233846FCF769F8054670
:1040F0000EE011480F49091F0968C1F38811A0FBA0
:1041000001700146224600233846FCF759F805465F
:104110000848001F0068C0F30140401C4600B5FB82
:10412000F6F902E0DFF8109000BF00BF4846BDE896
:10413000F0870000083802400024F40040787D0138
:10414000F8B504460CB90120F8BD207800F0010054
:10415000002874D0F948006800F00C0004280DD045
:10416000F648006800F00C00082813D1F348001F3F
:10417000006800F48000B0F5800F0BD1EF480838DC
:104180000068C0F34040002859D06068002856D12C
:104190000120D9E700BF6068B0F5803F08D1E7484B
:1041A0000838006840F48030E449083908601EE0AF
:1041B0006068B0F5A02F0DD1E0480838006840F4E1
:1041C0008020DE49083908600846006840F48030E5
:1041D00008600CE0D9480838006820F48030D749DE
:1041E000083908600846006820F48020086000BF95
:1041F000606890B1FFF732FD054606E0FFF72EFD3F
:10420000401B642801D903209EE7CC480838006889
:10421000C0F340400028F1D011E0FFF71FFD054634
:1042200006E0FFF71BFD401B642801D903208BE744
:10423000C24808380068C0F340400028F1D1207817
:1042400000F0020002285FD1BC48006800F00C00BA
:1042500058B1BA48006800F00C0008281CD1B748D3
:10426000001F006800F48000B0B9B4480838006846
:10427000C0F3400020B1E068012801D0012063E7CD
:10428000AE480838006820F0F800216940EAC10013
:10429000AA490839086037E0E06800B30120A8495E
:1042A0000860FFF7DBFC054606E0FFF7D7FC401B84
:1042B000022801D9032047E7A04808380068C0F366
:1042C00040000028F1D09D480838006820F0F80030
:1042D000216940EAC10099490839086014E00020CA
:1042E00097490860FFF7BAFC054606E0FFF7B6FC01
:1042F000401B022801D9032026E7904808380068AF
:10430000C0F340000028F1D1207800F00800082810
:104310002CD16069A8B101208A490860FFF79EFC92
:10432000054606E0FFF79AFC401B022801D903204E
:104330000AE782486C300068C0F340000028F1D0E2
:1043400014E000207F490860FFF788FC054606E07E
:10435000FFF784FC401B022801D90320F4E67748CC
:104360006C300068C0F340000028F1D1207800F0E4
:104370000400042870D1002770483830006800F02D
:10438000805090B900BF002000906C483830006821
:1043900040F080506949383108600846006800F0F4
:1043A0008050009000BF00BF01276748006800F4FC
:1043B0008070B0B96448006840F480706249086059
:1043C000FFF74CFC054606E0FFF748FC401B0228BF
:1043D00001D90320B8E65C48006800F4807000282A
:1043E000F2D000BFA068012808D1544868300068A6
:1043F00040F001005149683108601DE0A0680528BF
:104400000DD14E486830006840F004004B496831D7
:1044100008600846006840F0010008600CE047486A
:104420006830006820F0010044496831086008469F
:10443000006820F00400086000BFA068A8B1FFF782
:104440000DFC054609E0FFF709FC401B41F28831ED
:10445000884202D9032077E626E0384868300068B1
:10446000C0F340000028EED013E0FFF7F7FB05464D
:1044700008E0FFF7F3FB401B41F28831884201D985
:10448000032061E62D4868300068C0F34000002832
:10449000EFD1012F07D129483830006820F0805033
:1044A00026493831086000BFA069002845D023485C
:1044B000006800F00C0008285DD0A069022845D1F2
:1044C00000201F490866FFF7C9FB054606E0FFF715
:1044D000C5FB401B022801D9032035E617480838E0
:1044E0000068C0F340600028F1D1D4E90701084317
:1044F000616A40EA81110122A06AC2EB500041EAE0
:1045000000412C20005D41EA00600C49091F086051
:1045100001200B490866FFF7A1FB054606E0FFF7FF
:104520009DFB401B022801D903200DE603480838F3
:104530000068C0F340600028F1D03FE00838024036
:1045400000004742800E47420070004000201C4996
:104550000866FFF783FB054606E0FFF77FFB401B7D
:10456000022801D90320EFE516480068C0F3406037
:104570000028F2D122E0A069012800D1E4E5114829
:10458000001D066806F48001E069814214D106F03E
:104590003F01206A81420FD147F6C0703040616A06
:1045A000884209D106F44031A06A814204D106F064
:1045B0007061E06A814201D00120C5E50020C3E5B9
:1045C0000000474200380240042808D14FF0E021A3
:1045D000096941F004014FF0E022116107E04FF05A
:1045E000E021096921F004014FF0E02211617047D8
:1045F0001FB5FFF733FB00F0010038B9FCF71EFCD4
:10460000F848007840F00100F6490870FFF726FBF3
:1046100000F0030000286FD1F34800780A286CD21C
:10462000DFE800F005060D11FE6BFDFCFBFAF0E182
:104630000220ED4908702820FFF7E0FBE9E10320A4
:10464000E9490870E5E1002436E1C4EB4410E7498C
:1046500001EB800090F87500012805D1C4EB4411EE
:10466000E24A02EB81010877C4EB4410DF4901EB19
:104670008000007F012872D10E2C71D2DFE804F097
:104680007172733E3F0721F5F574BCBDBEBF0520B6
:1046900006F01AFD0520FDF7CDFAD449C1F87402E1
:1046A000FCF7B0F8D14AB2F8742211B2CF4AB2F98D
:1046B0007002CF4A05F07EFC0146CC48A0F8981263
:1046C000EDE0062006F000FD0620FDF7B3FAC7492D
:1046D000C1F8F002FCF7C8F9C44AB2F8F02211B2EE
:1046E000C24AB2F9EC02C24A383205F063FC014614
:1046F000BE48A0F81413D2E08CE189E100BFC4EBFE
:104700004410BA4901EB8000007E78B9B94890F9AD
:10471000020005280ADAC4EB44100A4602EB8000C6
:10472000B0F91410204607F053FA17E0B14890F999
:10473000020005280BDB4FF0806002F0CDFE002068
:10474000C4EB4411A94A02EB8101087706E000207E
:10475000C4EB4411A54A02EB810108779FE09FE07A
:1047600083E000BF00BF00BFC4EB44109F4901EBD2
:10477000800090F87500012803D1204605F0F8FC70
:104780002EE0C4EB4410994901EB8000007E78B91B
:10479000984890F9030005280ADAC4EB44100A4649
:1047A00002EB8000B0F91410204607F011FA17E070
:1047B000904890F9030005280BDB4FF0006002F0F1
:1047C0008BFE0020C4EB4411884A02EB810108777C
:1047D00006E00020C4EB4411844A02EB8101087713
:1047E000FFF73CFA1421B0FBF1F201FB120010B903
:1047F000204606F07BF952E000BF00BF00BFC4EBCB
:1048000044107A4901EB8000007EA8B9794890F9FC
:104810000400052810DA04E0A9E076E06EE06CE020
:1048200067E0C4EB44100A4602EB8000B0F91410B4
:10483000204607F0CDF917E06E4890F904000528EE
:104840000BDB4FF0805002F047FE0020C4EB441118
:10485000664A02EB8101087706E00020C4EB4411B0
:10486000624A02EB8101087719E0C4EB44105F490A
:1048700001EB8000007E50B9C4EB44100A4602EB05
:104880008000B0F91410204607F0A2F906E00020DD
:10489000C4EB4411554A02EB8101087700BF09E0DF
:1048A000C4EB4410514901EB8000007F10B9204651
:1048B00007F0C8FE601CC4B20E2CFFF6C6AEFFF7B0
:1048C000CDF91421B0FBF1F201FB120030B9052340
:1048D0004FF411720121184606F03CF8FFF7BEF9BB
:1048E000C821B0FBF1F201FB120008B903F096FEFB
:1048F0008FE006203C4908708BE08AE03E48006863
:1049000010B900203849087083E03C48007801283D
:104910000FD100203A4948638863C86300BF01E0B3
:10492000411C88B242F210718842F9DB0020334901
:10493000087001F0BDFF3348007C032816D1002029
:104940003049087408702E4948638863C8632A4850
:10495000008800F4806018B900202349087002E044
:1049600007202149087001202449087051E0264899
:104970000078012811D1002024490860091D086031
:10498000091D086000BF01E0411C88B242F21071AD
:104990008842F9DB00201C49087002F01DF8194814
:1049A00090F8220003281BD10021164880F822101D
:1049B00000201449887415490860091D0860091D04
:1049C00008600D48008800F4004018B9002006492E
:1049D000087002E007200449087001200A490870A5
:1049E00017E00000080000200D0000205480002087
:1049F000FC7E002021000020CC0000201A000020B6
:104A0000000001401C8700201B00002034040140EE
:104A100000BF00BFFFF722F91421B0FBF1F201FB48
:104A2000120008B905F034F9FFF718F94FF47A715C
:104A3000B0FBF1F201FB120070B90848FFF73CF936
:104A40001E200021CDE9001014230122CDE902101F
:104A50001946104606F0EAF81FBD00004087002006
:104A600070B504462546681EB0F1807F01D3012051
:104A70000FE0681E4FF0E02148610F214FF0FF303A
:104A800009F002F900204FF0E02188610720086159
:104A9000002070BD10B5FFF7ABFD10BD10B504468A
:104AA0001548844226D115480068401C1349086007
:104AB00013480069C0F3C030E0B9002011494863D1
:104AC0008863C86301204861400702F005FD0021AA
:104AD0000D4880F888120D480078401C0B4908707A
:104AE0000121094880F8841209480078401C40B22E
:104AF0000749087010BD0000143B002058880020B2
:104B000000100240000001405480002031000020CD
:104B100021000020704710B50346002200BF93F823
:104B20003C00012801D1022010BD012083F83C0087
:104B300000BF22F0FF00CC6840EA040222F440707B
:104B40008C6840EA040222F480604C6840EA040267
:104B500022F400600C6840EA040222F480500C69E0
:104B600040EA040222F400504C6940EA040222F4B4
:104B70008040CC6940EA04021868426400BF00200B
:104B800083F83C0000BF00BFCEE7000030B502460E
:104B90000B4600BF92F83C00012801D1022030BD35
:104BA000012082F83C0000BF022082F83D0010681E
:104BB00044681068816824F0700418680443106821
:104BC0004460184D1068A8421BD01068B0F1804FA7
:104BD00017D0154D1068A84213D0144D1068A84284
:104BE0000FD0134D1068A8420BD0124D1068A84288
:104BF00007D0114D1068A84203D0104D1068A8428C
:104C000005D121F0800158680143106881600120BE
:104C100082F83D0000BF002082F83C0000BF00BFCA
:104C2000BDE7000000000140000400400008004013
:104C3000000C00400004014000400140001800400A
:104C400070B504460D4604222946206808F0AFF9E5
:104C50002068406C40F40040216848642068806807
:104C600000F00706062E05D02068006840F001001D
:104C700021680860002070BD10B504460CB9012001
:104C800010BD94F83D0028B9002084F83C0020466F
:104C900000F00CF8022084F83D00211D206808F087
:104CA00009F9012084F83D000020E9E710B586B03D
:104CB0000446142101A8FBF7CDFAB74920688842C1
:104CC00041D100BF00200090B448006840F00100CE
:104CD000B24908600846006800F00100009000BF7B
:104CE00000BF00BF00200090AC481438006840F0BE
:104CF0001000AA49143908600846006800F0100046
:104D0000009000BF00BF4FF40040019002200290CD
:104D100001200390002004900120059001A9A048E3
:104D2000FEF784FE002211461820FFF777F81820BE
:104D3000FFF764F8002211461920FFF76FF81920D9
:104D4000FFF75CF825E12068B0F1804F11D100BF7A
:104D5000002000909148001F006840F001008F493A
:104D6000091F08600846006800F00100009000BFBD
:104D70000FE18C492068884211D100BF00200090CB
:104D80008648001F006840F002008449091F08603F
:104D90000846006800F00200009000BFF9E0824978
:104DA0002068884211D100BF002000907B48001F7E
:104DB000006840F004007949091F0860084600684F
:104DC00000F00400009000BFE3E0784920688842CA
:104DD00011D100BF002000907048001F006840F013
:104DE00008006E49091F08600846006800F00800C6
:104DF000009000BFCDE06E492068884211D100BF0D
:104E0000002000906548001F006840F040006349A2
:104E1000091F08600846006800F04000009000BFCD
:104E2000B7E064492068884211D100BF002000909B
:104E30005A48001F006840F010005849091F0860D8
:104E40000846006800F01000009000BFA1E05A4939
:104E5000206888421AD100BF002000904F48001FF0
:104E6000006840F020004D49091F086008460068AE
:104E700000F02000009000BF00BF00221146372044
:104E8000FEF7CCFF3720FEF7B9FF82E04B492068E0
:104E900088420FD100BF002000904048006840F0D9
:104EA00002003E4908600846006800F002000090D9
:104EB00000BF6EE042492068884237D100BF002021
:104EC00000903648006840F40030344908600846D5
:104ED000006800F40030009000BF00BF00BF002059
:104EE00000902E481438006840F002002B49143915
:104EF00008600846006800F00200009000BF00BF94
:104F00008815019002200290002003900490032055
:104F1000059001A92B48FEF789FD002211461920B2
:104F2000FEF77CFF1920FEF769FF32E02649206872
:104F300088422ED100BF002000901848006840F43D
:104F40008020164908600846006800F48020009020
:104F500000BF00BF00BF0020009010481438006858
:104F600040F002000D49143908600846006800F05E
:104F70000200009000BF00BF48150190022002907F
:104F80000020039004900320059001A90D48FEF72E
:104F90004DFD06B010BD0000000001404438024045
:104FA000001002400004004000080040000C0040D7
:104FB00000180040001000400014004000040140B0
:104FC00000440140000402400048014001460868D6
:104FD000C06840F001000B68D8600868806800F085
:104FE0000702062A05D00868006840F001000B6837
:104FF0001860002070472DE9F04104460D4600BFBF
:1050000094F83C00012802D10220BDE8F081012083
:1050100084F83C0000BF022084F83D0020688668C8
:1050200026F0770626F47F46206886602868502898
:1050300033D00CDC202850D004DC00284BD01028C2
:1050400051D149E0302849D040284CD139E060287E
:105050002DD0702807D0B0F5805F03D0B0F5005F89
:1050600041D10DE040E0D5E902136A68206807F0FD
:10507000AFFF2068866846F077062068866033E0D8
:10508000D5E902136A68206807F0A2FF20688068EB
:1050900040F480402168886026E0EA6869682068FA
:1050A00008F086F85021206807F09DFF1CE0EA68B0
:1050B0006968206808F0D8F86021206807F093FF3D
:1050C00012E0EA686968206808F072F840212068F8
:1050D00007F089FF08E000BF00BF00BF2968206813
:1050E00007F081FF00E000BF00BF012084F83D0011
:1050F00000BF002084F83C0000BF00BF85E700002F
:1051000010B504460D48844217D1207F022808D1EB
:105110000421204601F0DAF909480068401C0849DA
:105120000860207F012808D10021204601F0CEF937
:1051300004480068401C0349086010BD143D00206D
:1051400014000020100000202DE9F04104460D4617
:10515000164600BF94F83C00012802D10220BDE8A9
:10516000F081012084F83C0000BF022084F83D005B
:1051700096B9EB68D5E90012206808F02DF8206890
:10518000806920F00C002168886120688069A96826
:105190000843216888613DE0042E13D1EB68D5E90E
:1051A0000012206808F074F82068806920F44060DC
:1051B0002168886120688069A96840EA0120216827
:1051C000886127E0082E12D1EB68D5E9001220682B
:1051D00008F07BF82068C06920F00C002168C861E5
:1051E0002068C069A96808432168C86112E0EB68BB
:1051F000D5E90012206808F084F82068C06920F41E
:1052000040602168C8612068C069A96840EA01203F
:105210002168C861012084F83D0000BF002084F8A7
:105220003C0000BF00BF9AE710B504460CB901204E
:1052300010BD94F83D0028B9002084F83C002046B9
:1052400000F00CF8022084F83D00211D206807F0D2
:1052500031FE012084F83D000020E9E710B586B05A
:105260000446142101A8FAF7F5FF1E492068884278
:1052700036D100BF002000901B48006840F4803009
:10528000194908600846006800F48030009000BFAB
:1052900000BF00BF0020009013481438006840F0A1
:1052A00010001149143908600846006800F0100029
:1052B000009000BF00BF60200190022002900020FB
:1052C000039004900320059001A90848FEF7AEFB67
:1052D000002211461820FEF7A1FD1820FEF78EFDD2
:1052E00006B010BD004001404438024000100240AA
:1052F00070B504460D4635B1042D0BD0082D10D0E5
:105300000C2D1CD114E02068C06840F00200216818
:10531000C86015E02068C06840F004002168C860DB
:105320000EE02068C06840F008002168C86007E00F
:105330002068C06840F010002168C86000E000BF2D
:1053400000BF01222946206807F020FE20688068FF
:1053500000F00706062E05D02068006840F0010026
:1053600021680860002070BD10B5044620680069FF
:10537000C0F34000D8B12068C068C0F34000B0B1AD
:105380006FF00200216808610120207720688069A1
:1053900000F0030018B12046FFF7B2FE05E02046FA
:1053A00000F076FA204600F03CFD002020772068CF
:1053B0000069C0F38000D8B12068C068C0F38000E5
:1053C000B0B16FF0040021680861022020772068E6
:1053D000806900F4407018B12046FFF791FE05E0A7
:1053E000204600F055FA204600F01BFD00202077F3
:1053F00020680069C0F3C000D8B12068C068C0F35D
:10540000C000B0B16FF00800216808610420207767
:105410002068C06900F0030018B12046FFF770FE55
:1054200005E0204600F034FA204600F0FAFC0020A7
:10543000207720680069C0F30010D8B12068C068E8
:10544000C0F30010B0B16FF01000216808610820AF
:1054500020772068C06900F4407018B12046FFF73B
:105460004FFE05E0204600F013FA204600F0D9FC7C
:10547000002020772068006900F0010058B1206802
:10548000C06800F0010030B16FF0010021680861D0
:10549000204600F0F3FC20680069C0F3C01058B14A
:1054A0002068C068C0F3C01030B16FF08000216880
:1054B00008612046FFF7F2FA20680069C0F3801007
:1054C00058B12068C068C0F3801030B16FF0400060
:1054D00021680861204601F012F820680069C0F3D5
:1054E000401058B12068C068C0F3401030B16FF070
:1054F0002000216808612046FFF70CFB10BD00006A
:1055000010B586B00446142101A8FAF7A3FEB749E6
:105510002068884227D100BF00200090B44800686E
:1055200040F01000B24908600846006800F0100022
:10553000009000BF00BF4FF4FE4001900220029097
:105540000020039004900120059001A9A948FEF7CE
:105550006DFA4FF4804001900220039001A9A54804
:10556000FEF764FA3FE12068B0F1804F3BD100BF05
:10557000002000909E48006840F002009C490860AE
:105580000846006800F00200009000BF00BF00BFA6
:10559000002000900846006840F0010008600846BE
:1055A000006800F00100009000BF00BF40F6084016
:1055B00001900220029000200390049001200590A9
:1055C00001A98D48FEF732FA4FF400400190022005
:1055D00002900020039004900120059001A98748C3
:1055E000FEF724FAFFE086492068884239D100BFDF
:1055F000002000907E48006840F001007C4908606F
:105600000846006800F00100009000BF00BF00BF26
:10561000002000900846006840F00200086008463C
:10562000006800F00200009000BF00BF80200190E1
:10563000022002900020039004900220059001A90E
:105640006E48FEF7F3F9132001900220029000202B
:10565000039004900220059001A96748FEF7E6F93F
:10566000C1E06849206888421ED100BF0020009038
:105670005F48006840F008005D490860084600681F
:1056800000F00800009000BF00BF4FF47040019090
:10569000022002900020039004900220059001A9AE
:1056A0005948FEF7C3F99EE058492068884257D10F
:1056B00000BF002000904E48006840F001004C49B7
:1056C00008600846006800F00100009000BF00BFBD
:1056D00000BF002000900846006840F0020008600B
:1056E0000846006800F00200009000BF00BF00BF45
:1056F000002000900846006840F00400086008465A
:10570000006800F00400009000BF00BF202001905E
:10571000022002900020039004900320059001A92C
:105720003648FEF783F94FF4404001900220029082
:105730000020039004900320059001A92E48FEF755
:1057400075F94FF4707001900220029000200390D0
:1057500004900320059001A92D48FEF767F942E067
:105760002C49206888421DD100BF002000902048AD
:10577000006840F002001E4908600846006800F01A
:105780000200009000BF00BF881501900220029027
:105790000020039004900320059001A91648FEF70D
:1057A00045F920E01C49206888421CD100BF002038
:1057B00000900F48006840F002000D49086008465C
:1057C000006800F00200009000BF00BF4815019083
:1057D000022002900020039004900320059001A96C
:1057E0000548FEF723F906B010BD00000000014097
:1057F0003038024000100240000402400000024025
:105800000004004000080040000C02400004014079
:1058100000080240004401400048014070B50446C1
:105820000E46154600BF94F83C00012801D1022025
:1058300070BD012084F83C0000BF022084F83D00C8
:1058400035B1042D09D0082D0CD00C2D14D10EE04B
:105850003146206807F0D0FB0FE03146206807F0A2
:1058600003FC0AE03146206807F03CFC05E03146C5
:10587000206807F073FC00E000BF00BF012084F83F
:105880003D0000BF002084F83C0000BF00BFCFE710
:1058900010B50446D14884427ED1D148D0F8740274
:1058A000B0F5FA7F69DD4FF48051CE48FEF7C6F9B6
:1058B000CD480068012803D10621C94880F8DE12CE
:1058C000CA48006838B90321C54880F8C9120120C8
:1058D000C64908603AE0C5480068012807D102219E
:1058E000BF4880F8C9120220C04908602EE0BF48B6
:1058F0000068022807D10621B94880F8C9120320A0
:10590000BA49086022E0B9480068032807D1042199
:10591000B34880F8C9120420B449086016E0B348BF
:105920000068042807D10521AD4880F8C912052078
:10593000AE4908600AE0AD480068052806D101219B
:10594000A74880F8C9120020A84908602068406A6A
:10595000A7490860A248D0F8E40209680844A549AC
:105960000860084600689D49096848639C4AB2F986
:10597000801292F8C902FAF7C3FF9948D0F874026E
:1059800010F5FA7F5EDA9948006848B90221944818
:1059900080F8C812012000E054E0944908603AE021
:1059A00092480068012807D103218D4880F8C81269
:1059B00002208E4908602EE08C480068022807D13A
:1059C0000121874880F8C81203208849086022E036
:1059D00086480068032807D10521814880F8C8124D
:1059E00004208249086016E080480068042807D136
:1059F00004217B4880F8C81205207C4908600AE031
:105A00007A480068052806D10621754880F8C81232
:105A10000020764908602068406A7549086070482F
:105A2000D0F8E40209680844724908600846006832
:105A30006A49096848636A4AB2F9801292F8C80252
:105A4000FAF75EFF6C48844273D16548D0F8F002E3
:105A5000B0F5FA7F5CDD6948006838B90321604819
:105A600080F845130120654908603AE06348006802
:105A7000012807D102215A4880F8451302205F49C6
:105A800008602EE05D480068022807D106215448CE
:105A900080F8451303205949086022E05748006800
:105AA000032807D104214E4880F8451304205349A8
:105AB000086016E051480068042807D105214848CD
:105AC00080F8451305204D4908600AE04B480068FE
:105AD000052806D10121424880F845130020474996
