:020000040800F2
:10000000886000209D010008896B000811530008DA
:1000100021660008C90C0008FDAE000800000000C1
:1000200000000000000000000000000073960008BF
:1000300007120008000000001D82000877A50008D4
:10004000B7010008B7010008B7010008B7010008B0
:10005000B7010008B701000895150008C915000888
:10006000CF150008D5150008DB150008B7010008FA
:10007000B7010008B7010008B7010008B701000880
:10008000B7010008B7010008E5050008B70100083E
:10009000B7010008B7010008B7010008E115000822
:1000A00099A60008B5A60008B7010008B701000826
:1000B000B7010008B7010008B7010008B701000840
:1000C000B7010008B7010008B7010008B701000830
:1000D000B7010008B7010008B7010008A1AE000889
:1000E0009B150008B7010008B7010008B701000818
:1000F000B7010008B7010008B7010008B701000800
:10010000B7010008B7010008B7010008B7010008EF
:10011000B7010008B7010008D1A6000859A70008D8
:100120002D110008B7010008B7010008B701000849
:10013000B7010008B7010008B7010008B7010008BF
:10014000350D0008B7010008B7010008B701000825
:10015000B7010008B7010008B7010008B70100089F
:10016000B7010008B7010008B7010008B70100088F
:10017000B7010008B7010008B7010008000000003F
:10018000B7010008B7010008DFF80CD000F0AEF9A5
:1001900000480047C9C00008886000200648804722
:1001A00006480047FEE7FEE7FEE7FEE7FEE7FEE75C
:1001B000FEE7FEE7FEE7FEE77DA6000889010008EE
:1001C0002DE9F05F0546002092469B46884606468C
:1001D000814640241BE0284641464746224600F01F
:1001E00018F953465A46C01A914110D31146184681
:1001F000224600F0FFF82D1A67EB01084F46224611
:100200000120002100F0F6F817EB00094E41201EF6
:10021000A4F10104DFDC484631462A464346BDE8E6
:10022000F09F40EA01039B0703D009E008C9121FB1
:1002300008C0042AFAD203E011F8013B00F8013BA0
:10024000521EF9D27047D2B201E000F8012B491ECC
:10025000FBD270470022F6E710B513460A46044663
:100260001946FFF7F0FF204610BD30B504460020C8
:10027000034600E05B1C934203D2E05CCD5C401B74
:10028000F8D030BD2DE9FE4F81EA030404F00044AC
:1002900021F0004100944FF0000B23F0004350EA9E
:1002A00001045ED052EA03045BD0C3F30A54C1F3E5
:1002B0000A552C44A4F2F3340194A0FB0254C1F378
:1002C000130141F48011C3F3130343F4801301FBC2
:1002D000024400FB034E840A970A44EA815447EA29
:1002E0008357A4FB076802958D0A05FB07854FEA33
:1002F000932C04FB0C542705029D4FEA065847EA4D
:100300001637B5EB08056EEB070C870E920E47EA21
:10031000811742EA8312A7FB0201B6EB0B0164EBE3
:1003200000042B0D43EA0C335E1844EB1C50DA46F4
:100330005146E7FB0201C5F313044FEA0B3343EACE
:1003400014534FEA0432019C43EA0603A4F10C045F
:100350000294009CCDE900B400F07AF803B0BDE847
:10036000F08F00200146F9E70EB5C10F80EAE0707A
:100370000844CA07002140F233438DE80E000A46C4
:100380000B4600F065F803B000BD70B5C1F30A522A
:1003900001F000450024C1F3130140F2FF3341F4A2
:1003A00080119A4201DA002070BD40F233439A4234
:1003B000A2F2334203DC524200F02BF800E09040FE
:1003C0002C43F1D0404270BD30B50B4601460020B1
:1003D0002022012409E021FA02F59D4205D303FA07
:1003E00002F5491B04FA02F52844151EA2F1010288
:1003F000F1DC30BD202A04DB203A00FA02F10020B3
:1004000070479140C2F1200320FA03F31943904052
:100410007047202A04DB203A21FA02F000217047BD
:1004200021FA02F3D040C2F120029140084319465C
:10043000704710B5141E73F1000408DA401C41F136
:10044000000192185B411A4301D120F0010010BD58
:100450002DE9F04D92469B4611B1B1FA81F202E0CE
:10046000B0FA80F220329046FFF7C4FF04460F46F0
:1004700040EA0A0041EA0B0153465A46084313D0AA
:10048000114653EA010019D0C8F140025046FFF767
:10049000C0FF05460E46504659464246FFF7AAFFA2
:1004A000084305D0012004E020463946BDE8F08D20
:1004B0000020054346EAE0762C4337430A9863055B
:1004C000E40AA0EB08000022FD0A44EA47540A307F
:1004D00002D500200146E9E7010510196941DDE96F
:1004E000084500196941BDE8F04DA2E7064C074DEB
:1004F00006E0E06840F0010394E8070098471034F4
:10050000AC42F6D3FFF744FE0CDB00082CDB0008FE
:1005100070B58C1810F8015B15F0070301D110F8C5
:10052000013B2A1106D110F8012B03E010F8016BF2
:1005300001F8016B5B1EF9D12B0705D40023521E75
:100540000DD401F8013BFAE710F8013BCB1A921CDD
:1005500003E013F8015B01F8015B521EF9D5A142DB
:10056000D8D3002070BD0146886B026C12F0500F8A
:1005700004D0026CD20624D5416D0847016C41F4C9
:100580000071016401688A6812F0405F17D1027E31
:10059000AAB9CA6A12F4700F02D08A6852050ED442
:1005A0004A6822F020024A60016C21F480710164E3
:1005B000016CC90403D4016C41F001010164816C38
:1005C0000847806BC26C08461047806B402101646D
:1005D000416C41F004014164416D0847806BC16C7E
:1005E00008470000014801F001BC000084340020ED
:1005F0004A494A6822F440324A604A6843681A43CA
:100600004A6001684A6822F480724A6001684A6858
:10061000036942EA03224A6001684A6822F0407294
:100620004A6001684A6883681A434A6001688A68B8
:1006300022F400628A6001688A68C3681A438A608B
:10064000816A6FF07062D14214D001688A6822F02A
:1006500070628A6001688A68836A1A438A600168E6
:100660008A6822F040528A6001688A68C36A1A4325
:100670008A6009E001688A6822F070628A60016815
:100680008A6822F040528A6001688A6822F0020279
:100690008A6001688A68037E42EA43028A6090F8B1
:1006A000201089B101684A6842F400624A6001681A
:1006B0004A6822F460424A6001684B68426A521EEE
:1006C00043EA42324A6004E001684A6822F4006268
:1006D0004A600168CA6A22F47002CA620168CB6A81
:1006E000828B521E43EA0252CA6201688A6822F46F
:1006F00000728A6001688A6890F8303042EA4322CA
:100700008A6001688A6822F480628A6001688A6867
:10071000406942EA80208860704700000023014061
:100720002DE9F0411C4C5A20207003266670A4F17C
:10073000C805AB78A370012016E02918897801EB71
:100740004102164901EB8201421E896804EB8202D4
:100750000F78D7700F883F0A17710F683F0C5771D9
:100760000968090E9171401C8342E6DA06EB8300AA
:10077000C1B2094800F0E6FBA97804EB8102D07011
:10078000BDE8F041042000EB81024FF47A73024986
:10079000034804F08ABC0000DC47002014CF0008A6
:1007A0002837002070B51D4C5A202070EF20607053
:1007B000A4F1C805AB78A370012016E02918897848
:1007C00001EB4102164901EB8201421E896804EBEC
:1007D00082020E78D6700E88360A16710E68360CB4
:1007E00056710968090E9171401C8342E6DA0320B4
:1007F00000EB8300C1B2094800F0A4FBA97804EB28
:100800008102D0700420BDE8704000EB81024FF4FB
:10081000FA730249034804F048BC0000DC4700209A
:1008200014CF00082837002070B5174C5A202070CC
:10083000F12060700120154DA4F1C8031918421E63
:10084000497804EB820201EB410105EB81018968E3
:100850000E7896700E88360AD6700E68360C1671B1
:100860000968090E5171401C0128E7DD0621064880
:1008700000F068FBA071BDE87040C8230722024960
:10088000034804F012BC0000DC47002014CF00082D
:100890002837002070B5174C5A202070F220607065
:1008A0000120154DA4F1C8031918421E497804EB24
:1008B000820201EB410105EB810189680E78967097
:1008C0000E88360AD6700E68360C16710968090E45
:1008D0005171401C0228E7DD0A21064800F032FB76
:1008E000A072BDE87040C8230B220249034804F0FF
:1008F000DCBB0000DC47002014CF000828370020B4
:1009000070B5174C5A202070F32060700120154DEF
:10091000A4F1C8031918421E497804EB820201EBC6
:10092000410105EB810189680E7896700E88360AC0
:10093000D6700E68360C16710968090E5171401C8C
:100940000328E7DD0E21064800F0FCFAA073BDE89D
:100950007040C8230F220249034804F0A6BB0000E0
:10096000DC47002014CF00082837002070B5174C52
:100970005A202070F42060700120154DA4F1C803A6
:100980001918421E497804EB820201EB410105EB84
:10099000810189680E7896700E88360AD6700E68C6
:1009A000360C16710968090E5171401C0428E7DDE8
:1009B0001221064800F0C6FAA074BDE87040C823B2
:1009C00013220249034804F070BB0000DC470020FA
:1009D00014CF000828370020F0B4002901DA49427A
:1009E00009B24FF4806578B1284C294A42F2D0030D
:1009F000A67A86420CD143F690401062936353630B
:100A0000D3639163F0BC70472846F0BC04F0EEBF9E
:100A1000E67A864207D143F29C00106293635363E7
:100A2000D3639163EEE7A679864207D143F60C10B3
:100A3000106293635363D363D163E3E7E67986423D
:100A400007D14FF46750106293635363D363D1634C
:100A5000D8E7267A864207D143F2C9001062936331
:100A60005363D3635163CDE7647A844207D143F67D
:100A70000940106293635363D3635163C2E707284D
:100A8000C0D12846F0BC04F0B1BF000048420020AD
:100A9000000001402DE9F003002901DA494209B2C2
:100AA0004FF4004CA8B12E4F2E4B2E4E183397F812
:100AB0001C801C1F1D1D42F2D00280450ED143F642
:100AC000904030601A6022602A601960BDE8F0032F
:100AD0007047BDE8F003604604F088BF97F81D80BA
:100AE000804507D143F29C0030601A6022602A6082
:100AF0001960EBE797F81880804507D143F60C1092
:100B000030601A6022602A602960DFE797F8198058
:100B1000804507D14FF4675030601A6022602A6028
:100B20002960D3E797F81A80804507D143F2C900BE
:100B300030601A6022602A602160C7E7FF7E87422A
:100B400007D143F6094030601A6022602A602160B4
:100B5000BCE70728BAD1BDE8F003604604F046BF01
:100B60004842002020040140F0B42A4CB4F8F401BB
:100B700000284CD0224694F9FA31012592F82E1221
:100B80000026680392F82D22012B04D05B1C3ED175
:100B900001291FD020E0012901D1032A37D00329E0
:100BA00001D1022A33D0022901D1062A2FD00629E9
:100BB00001D1042A2BD0042901D1052A27D00529E7
:100BC00001D1012A23D084F8FC6184F8F851F0BCEB
:100BD00004F00CBF052A1AD0032901D1012A16D02E
:100BE000022901D1032A12D0062901D1022A0ED0EE
:100BF000042901D1062A0AD0052901D1042A06D0E8
:100C000084F8FC6184F8F851F0BC04F0EFBEF0BC4D
:100C100070470000083D0020F0B42A4CB4F854029C
:100C200000284CD0224694F95A32012592F88E12AF
:100C30000026A80392F88D22012B04D05B1C3ED124
:100C400001291FD020E0012901D1032A37D003292F
:100C500001D1022A33D0022901D1062A2FD0062938
:100C600001D1042A2BD0042901D1052A27D0052936
:100C700001D1012A23D084F85C6284F85852F0BC78
:100C800004F0B4BE052A1AD0032901D1012A16D0D6
:100C9000022901D1032A12D0062901D1022A0ED03D
:100CA000042901D1062A0AD0052901D1042A06D037
:100CB00084F85C6284F85852F0BC04F097BEF0BC33
:100CC00070470000083D0020FEE700002DE9F041DC
:100CD000069D0024154E376B3860376B40F6FF7069
:100CE0007860306B8160306BC260306B056106E00C
:100CF000326B04F11400195D1154641CA4B2AC42AF
:100D0000F6D31421094801F09BFD40B1326B08482D
:100D10002F231269416803EBC20211444160032C86
:100D200002D00020BDE8F0810120FBE70034002064
:100D3000A8430020014801F0D7BA00000034002089
:100D400010B5002959D0826B4FF4D873046803EBB7
:100D50000113E45804F004049460002C4FD004689C
:100D6000E458E40854600468E35803F00203D360D5
:100D70004FF4DA73046803EB0113E45804F00F0432
:100D8000146111620468E358C3F30723D3614FF47D
:100D9000DC73046803EB0113E45814750468E45829
:100DA000240A54750468E458240C94750468E358C4
:100DB0001B0ED3754FF4DE73046803EB0113E45884
:100DC00014760468E458240A54760468E458240C21
:100DD00094760468E3581B0ED3762022A1B10368F1
:100DE0001A610268536923F05003536190F83C2064
:100DF000222A0CD0322A0AD00EE0426BA4E7046803
:100E0000E458640D1460AEE70368DA60EEE7026848
:100E1000536923F40F4353611222012369B190F8FF
:100E20003C1052291FD0622920D0722922D080F88C
:100E30003C3001F0DDFC002010BD90F83C10422950
:100E400006D0622907D0722909D080F83C30F0E73B
:100E500080F83C20EDE7322180F83C10E9E7522190
:100E600080F83C10E5E780F83C20E2E7222180F89A
:100E70003C10DEE7422180F83C10DAE710B501684B
:100E80004A6922F001024A6190F83C10122904D10B
:100E900001684A6922F40F424A6190F83C104229E5
:100EA0000AD052290CD072290ED0012180F83C10B2
:100EB00001F0C8FD002010BD222180F83C10F7E7AA
:100EC000322180F83C10F3E7622180F83C10EFE714
:100ED0003EB50546184C552020706620607088206D
:100EE000A0709920E0701548E0601548112101704C
:100EF00022214170332181704421C17000210122DF
:100F0000CDE901215038009002220D4B110304F16C
:100F1000AC000AF039FB217904F1AC0009F0F8F8D3
:100F20000F20A8606069686003B02846BDE83040C3
:100F3000002109F077B900005C020020443322113F
:100F400074430020002203E010F8013B1A4492B2DF
:100F5000491EC9B2F8D2D0B2704730B40A46016B0C
:100F600051F82210C1F30741446B4FF0FF3324F8CE
:100F700012300122431883F83820026C30BC10472D
:100F80002DE9F04FDDE90A48099E4FF0FF3C3FE0B4
:100F9000A51AEDB2002D03D00F7807FA05F700E08F
:100FA0000F7807F0FF0902D0C4F1080501E0C2F193
:100FB0000805EDB2854200D9054604EB050A4FF05D
:100FC000FF0B0BFA0AF7C4F108042BFA04FB47EAFB
:100FD0000B0729EA070934783C4044EA09043470D5
:100FE0002A44D2B2072A05D900220BB1644600E098
:100FF000012421440AF0FF04072C07D90024B8F18A
:10100000000F01D0674600E001273E44401BC0B2FC
:101010000028BDD1BDE8F08F2DE9F04106464248D9
:1010200006EB460100EB4114B4F92210A28CE08DCE
:10103000914267DD401C80B2E085E28E90420BD980
:10104000B4F91400002803DDA0F10100A08203E040
:1010500002DA00F10100A082E08C81424CDD208E9A
:10106000401C80B22086218F012707FA06F54FF039
:101070000008884208D9304608F082FF284604F06C
:10108000B5FC2776A4F83080B4F92200218D88427F
:101090002CDD608E401C80B26086618F884208D94A
:1010A000304608F06DFF284604F0A0FC2776A4F82F
:1010B0003280B4F92200618D884211DDA08E401C7F
:1010C00080B2A086A18F884208D9304608F058FF28
:1010D000284604F08BFC2776A4F83480BDE8F08124
:1010E000A08E0028FAD0401EA086F7E7608E002868
:1010F000F4D0401E6086F1E7208E0028EED0401E1E
:101100002086EBE70028E9D0401EE085208E08B15C
:10111000401E2086608E08B1401E6086A08E00288A
:10112000DCD0401EA086D9E7083D0020014801F030
:101130008BBC0000E03700200168CAB2103A1823C7
:10114000B2FBF3F2064B9B5CC3656FF30901032A04
:1011500002D9091D816500E08165806D704700003E
:101160006CC9000810B5014600208A6A8B694FF0EF
:10117000C074002B0ED0B3F5005F1AD062B3012A01
:101180002AD0022A28D0032A03D1C96AC90100D56E
:10119000012010BD1AB1012A06D0022AF9D1C96A6C
:1011A000C901F6D5012010BDC96AA142FBD10120B9
:1011B00010BD52B1012A0AD0022A06D0032AF7D163
:1011C000C96AA142F4D1012010BD012010BDC96A35
:1011D000C901FBD5012010BD012010BD30B5046848
:1011E000256825F480252560046863608368402BAA
:1011F00004D0036899600068C26030BD03689A60DB
:101200000068C16030BD7047411C0CD0074AB2F97C
:101210000010884201D1491E1180054A00EB4000B0
:10122000002102F830104FF0FF307047B03300203B
:10123000144600202DE9FC41D34CE268521CE260C8
:10124000636A0025D14ED24F4FF48058002B19D03D
:1012500001224146384602F004FA62682820012142
:101260001423B2F5005F76D04EDC402A74D02FDC18
:10127000082A72D027DC012A70D0022A6FD0042AF3
:1012800075D197E06360B2F5C87F05D8002241466A
:10129000384602F0E6F909E0B2F5DC7F05D8012214
:1012A0004146384602F0DDF900E0E56001224021C8
:1012B000384602F0D6F902B041463046BDE8F0416A
:1012C000012202F0CEB9102A70D0202A4FD184E03A
:1012D000B2F5806F6BD008DC802A69D0B2F5807FD0
:1012E00067D0B2F5007F42D16DE0B2F5006F73D0E8
:1012F00042453CD1CDE90053237B06220021012049
:1013000004F0FAFABDE8FC81B2F1807F77D014DCFA
:10131000B2F5001F74D009DCB2F5804F71D0B2F580
:10132000004F6FD0B2F5801F21D1EDE0B2F5800FF4
:1013300069D0B2F5000F1AD101E1B2F1805F75D02A
:101340000FDCB2F1007F72D0B2F1806F70D0B2F1D9
:10135000006F0CD1B4E0C5E048E055E014E01CE0BB
:1013600005E0B2F1005F76D0B2F1804F74D0012277
:101370004021384602F075F902B041463046BDE8DA
:10138000F041012202F06DB9CDE900530122237B27
:101390001146002004F0B0FAB4E7CDE90053237BF6
:1013A00002220121002004F0A7FAABE735E040E07B
:1013B00053E05EE0CDE90053237B032201210020AE
:1013C00004F09AFA9EE7CDE90053237B0422012121
:1013D000002004F091FA95E7CCE0CDE90053237B9F
:1013E00005220121002004F087FA8BE7CDE90053A4
:1013F000237B06220121002004F07EFA82E7A7E089
:101400008BE078E01EE091E0CDE90053237B0722DA
:101410000121002004F070FA74E7CDE90053237B2A
:1014200008220121002004F067FA6BE751E098E000
:101430003DE0CDE900100122237B0021104604F09D
:101440005BFA5FE7CDE900100122237B1146002003
:1014500004F052FA56E718E020E000224021384616
:1014600002F0FFF800224146304602F0FAF8E5604B
:1014700048E700224146304602F0F3F801224021BD
:10148000384602F0EEF8E5603CE7CDE90053012272
:10149000237B0021104604F02FFA33E7CDE90053F7
:1014A000237B02220021012004F026FA2AE7CDE95D
:1014B0000053237B03220021012004F01DFA21E7C1
:1014C000CDE90053237B04220021012004F014FA0B
:1014D00018E7CDE90053237B05220021012004F009
:1014E0000BFA0FE7CDE90053237B072200210120EF
:1014F00004F002FA06E7CDE90053237B082200211D
:10150000012004F0F9F9FDE6CDE900530122237B27
:101510001146104604F0F0F9F4E6CDE9005301213C
:10152000237B0222084604F0E7F9EBE6CDE90053FD
:101530000121237B0322084604F0DEF9E2E6CDE92F
:1015400000530121237B0422084604F0D5F9D9E693
:10155000CDE900530121237B0522084604F0CCF994
:10156000D0E6CDE900530121237B0622084604F092
:10157000C3F9C7E6CDE900530121237B07220846C2
:1015800004F0BAF9BEE6000044000020000002406A
:1015900000040240012001F077BF10B54FF48060D5
:1015A00001F072FF4FF4006001F06EFF4FF4005045
:1015B00001F06AFF4FF4804001F066FFBDE8104083
:1015C0004FF4004001F060BF022001F05DBF042035
:1015D00001F05ABF082001F057BF102001F054BF9E
:1015E00010B5202001F050FF402001F04DFF802079
:1015F00001F04AFFBDE810404FF4007001F044BF15
:1016000072B6FEE70022002905D001291AD002296E
:101610001BD04FF440720E490B6823F440730B60EB
:101620000B6813430B600A6822F0F8020A600A682C
:10163000022303EBC00002430A60086840F48030D4
:10164000086070474FF48072E5E74FF40072E2E7FC
:10165000103C02401348016889050FD5016821F448
:1016600000710160016841F400610160016821F4CA
:1016700000610160016841F4007101600168490581
:101680000FD5016821F480610160016841F4805147
:101690000160016821F480510160016841F48061BA
:1016A00001607047003C024008490A6822F4407219
:1016B0000A600A6842F004020A600A684FF4803344
:1016C00043EA002002430A6070470000103C0240D9
:1016D000064A136823F44073136013681360136899
:1016E00043F001031360017070470000103C02409A
:1016F00010B509490C6824F440740C600C6844F47B
:1017000040740C600C6844F001040C600260BFF38C
:101710006F8F436010BD0000103C0240074A136801
:1017200023F440731360136843F4807313601368E9
:1017300043F001031360018070470000103C024039
:10174000074A136823F440731360136843F400736B
:101750001360136843F001031360016070470000D9
:10176000103C024017490868C206174805D5C269EF
:1017700042F01002C26110220A600A68920605D582
:10178000C26942F00802C26120220A600A68520659
:1017900005D5C26942F00402C26140220A600A68AB
:1017A000120605D5C26942F00202C26180220A60B7
:1017B0000A68920705D5C26942F02002C261022080
:1017C000086070470C3C02404038002070B5044669
:1017D00011490020C86101F04BFF05460F4E09E09A
:1017E000601C07D024B101F043FF401BA04201D987
:1017F000032070BD3068C003F2D43068C00701D048
:1018000001203060306810F0F20F03D0FFF7AAFF1C
:10181000012070BD002070BD403800200C3C02400B
:1018200007485A210170E221417000218170F021A6
:10183000C17001464FF47A730422024803F035BCAC
:10184000CE3300202837002030B5094A0021094C4A
:101850000AE001EB410304EB83035D7915B99B6852
:1018600020CA1D60491C89B28142F2D330BD0000FC
:101870000000040814CF000810B5064C207800289A
:1018800007D0FA21044803F0C7FF002801D0002048
:10189000207010BDC4330020A448002000EB40019C
:1018A0000D4800EB411090F91A10012901D04A1C93
:1018B0000FD1C38AC26D5A43084B93FBF2F24A43DD
:1018C0008260074A816D1268511A022901D90021EC
:1018D0008160008900B27047083D002000879303B3
:1018E0002C00002001460020A1F100624FF480434B
:1018F0009A4204D320480844984201D201207047FC
:101900001E480844984201D2022070471C480844EF
:10191000984201D2032070471A480844B0F5803F2E
:1019200001D20420704718484FF400320844904216
:1019300001D20520704715480844904201D2062084
:10194000704713480844904201D20720704711485D
:101950000844904201D2082070470F480844904242
:1019600001D2092070470D480844904201D20A2054
:1019700070470B207047000000C0FFF70080FFF7A2
:101980000040FFF70000FFF70000FEF70000FCF743
:101990000000FAF70000F8F70000F6F70000F4F78F
:1019A00014494FF4806208280BD2DFE800F00413DA
:1019B0001B170B0F071F104604F018B843F69C4086
:1019C0000862704743F69C100862704743F6CC10DB
:1019D0000862704743F6C9100862704743F6C94071
:1019E0000862704743F6994008627047104603F05A
:1019F000FDBF00000000014014494FF400420828D8
:101A00000BD2DFE800F004131B170B0F071F104663
:101A100003F0ECBF43F69C400860704743F69C100F
:101A20000860704743F6CC100860704743F6C91051
:101A30000860704743F6C9400860704743F6994014
:101A400008607047104603F0D1BF00002004014039
:101A500070B50B4D4FF40041284601F0FBFD4400EA
:101A60004FF48041284601F0F5FD204344004FF437
:101A70000051284601F0EEFD204300F0070070BD44
:101A8000000802407047000010B590F83C20012A81
:101A90002AD0012280F83C200A7C012A26D0026844
:101AA000536823F04003536002685368124C23408C
:101AB0005360026853680C682343536003684A68A4
:101AC0005A6203688A689A620268536823F01F03A7
:101AD000536002685368898989B20B4353600021BF
:101AE00080F83C10002010BD022010BD0268536831
:101AF00043F040035360D7E7FFFD3FFF78B5002474
:101B0000009490F83C20012A19D0012280F83C2052
:101B10000A680725092A14D90368DE680A3A02EB25
:101B200042029540AE43DE600A788B680A3A02EBC7
:101B3000420293400268D5682B43D36011E0022033
:101B400078BD03681E6902EB42029540AE431E61F8
:101B50000A788B6802EB42029340026815692B43B6
:101B600013614A681F25072A13D203685E6B521E51
:101B700002EB82029540AE435E630A8893B20A7913
:101B8000521E02EB820293400268556B2B43536353
:101B900028E00D2A13D203681E6BD21F02EB8202CB
:101BA0009540AE431E630A8893B20A79D21F02EBB6
:101BB000820293400268156B2B43136312E00368A3
:101BC000DE6A0D3A02EB82029540AE43DE620A887D
:101BD00093B20A790D3A02EB820293400268D56A09
:101BE0002B43D362174A184B05689D4206D10D68F6
:101BF000122D03D1556845F48005556005689D4256
:101C00001BD10B68102B01D0112B16D1536843F454
:101C100000035360096810290FD10C490C4A096868
:101C2000B1FBF2F101EB81014900009102E0009962
:101C3000491E009100990029F9D180F83C4000200C
:101C400078BD00000023014000200140400000203A
:101C500040420F00F0B45E4D2B695B1C2B615D4868
:101C60000168491C01605C4C5C49208BB1F848203C
:101C7000801A02B20A840020002A00DA0884B1F92E
:101C80002060B1F92220B61A361132444A84A28B60
:101C9000B1F8A860921B12B2A1F88020002A01DAE4
:101CA000A1F8800031F9806FB1F90220B61A36111F
:101CB00032444A80228CB1F88860921B12B2A1F89B
:101CC00060208039002A01DAA1F8E00031F9E06FE4
:101CD000B1F90220B61A361132444A802288B1F88E
:101CE0008860921B12B2A1F86020E039002A01DA64
:101CF000A1F84001B1F94061B1F94221B61A36119B
:101D00003244A1F84221A288B1F8C861921B12B2F4
:101D1000A1F8A021002A01DAA1F8A001B1F9A0617F
:101D2000B1F9A221B61A36113244A1F8A2212289B2
:101D3000B1F82862921B12B2A1F80022002A01DA3F
:101D4000A1F80002B1F90062B1F90222B61A361107
:101D50003244A1F80222228AB1F88862921B12B2A0
:101D6000A1F86022002A01DAA1F86002B1F96062EC
:101D7000B1F96222B61A36113244A1F86222A28C5D
:101D8000B1F8A863921B12B2A1F88023002A01DAED
:101D9000A1F8800301F56071B1F90020B1F90200EA
:101DA000121A121110444880208D0D4A80B2108002
:101DB000D188401A00110844D0800A48834205D9CE
:101DC000687A002802D1F0BC09F09AB8F0BC7047DC
:101DD00000000020A843002068370020083D0020B4
:101DE000EC380020A08601007047704770B50446AB
:101DF00020680168C1F340014268C2F34012002923
:101E00002AD04AB3216CC90603D4216C41F4007175
:101E10002164816811F0405F17D1217EA9B9C16AA0
:101E200011F4700F02D0816849050ED4416821F089
:101E300020014160206C20F480702064206CC0047C
:101E400003D4206C40F001002064A16C2046884738
:101E500021686FF01200086020680168C1F38001FA
:101E60004268C2F3C01289B382B3216CC90603D49D
:101E7000216C41F400512164816811F4401F1ED18E
:101E8000816B11F4401F02D08168490517D4416865
:101E9000490514D4816811F0405F10D1217E71B9D9
:101EA000416821F080014160206C20F48050206462
:101EB000206CC00503D4206C40F001002064A16DAB
:101EC0002046884721686FF00C0008602068016890
:101ED000C1F300014268C2F3801271B16AB10068B7
:101EE000C0070AD0206C40F480302064216D204669
:101EF000884721686FF00100086020680168C1F31D
:101F000040114268C2F3806200290DD0002A0BD034
:101F1000616C41F0020161646FF020050560616D44
:101F2000204688472068056070BD000070B50446F3
:101F30000026002C03D0206C002510B115E00120F4
:101F400070BD1648A0641648E0641648206516481F
:101F500060651648A065E06D08B91548E065E16D5B
:101F600020468847656484F83C50206CC00610D435
:101F7000206C20F4885040F0020020642046FEF7D8
:101F800037FB6564206C20F0020040F00100206403
:101F900000E0012684F83C50304670BD551C000816
:101FA000E91D0008B51F0008EB1D0008851A000890
:101FB000E11F0008094908680268D20707D0426893
:101FC00022F0400242600A686FF001001060086869
:101FD000416841F0400141607047000084340020B6
:101FE00070B586B00646142101A8FEF733F92649DC
:101FF0003068884246D100252448016841F4807148
:102000000160006800F4807000902049143908686D
:1020100040F004000860086800F0040000900868C0
:1020200040F001000860086800F0010000903F20C7
:10203000019003240294039501A9154801F030FA98
:102040005F2001900294039501A9124801F028FA3B
:10205000124C114820606560A560E56000152061A4
:10206000800060618000A0618011E0614FF4403029
:1020700020626562204600F0CFFD08B1FFF7C0FA8C
:10208000B463A66306B070BD00200140443802402E
:10209000000802400000024010640240E0370020C7
:1020A000F8B5044613460022009294F83C0001283B
:1020B00007D0012084F83C0020688568ED0702D035
:1020C00014E00220F8BD856845F0010585603E48B2
:1020D0003E4D0068B0FBF5F000EB4000009002E0E0
:1020E0000098401E009000980028F9D1206885686B
:1020F000ED0766D0256C40F20166B54345F4807566
:1021000025644068400505D5206C20F4005040F45B
:1021100080502064206CC00404D5606C20F0060060
:10212000606400E0626484F83C20294EA26B294878
:10213000D063A26B28481064A26B2848D064226840
:102140006FF0220010602068426842F080624260B6
:102150002068826842F48072826020680A464C30AF
:10216000A56B0146284600F0C1FD70681C49C006F9
:1021700007D02068884224D1816811F0405F1CD0CC
:102180001FE0206888420FD0164A904203D1D1F850
:102190000423D20608D0144A904212D1D1F8041375
:1021A00001F01F0110290CD2816811F0405F08D1A5
:1021B000816841F08041816003E0816841F08041A5
:1021C00081600020F8BD00004000002040420F0068
:1021D0000023014067050008DD050008CB05000865
:1021E00000200140002101400022014010B5087D7F
:1021F000012282403A4800F50070036843F0010371
:102200000360036823F47C53036003684C6A43EA69
:1022100004230360C3699343C361A0F50070CB69D5
:10222000002B16D1D0F80C329343C0F80C328C89B5
:102230004B6864F31F434C6900EBC404C4F840329C
:102240000C890B6864F31F434C6900EBC404C4F8A9
:102250004432CB69012B16D1D0F80C321343C0F8AD
:102260000C320C884B6864F31F434C6900EBC404C8
:10227000C4F840320C89CB6864F31F434C6900EB0F
:10228000C404C4F844328B693BB1D0F80432134320
:10229000C0F804320B6933B10AE0D0F8043293433A
:1022A000C0F80432F6E7D0F814329343C0F8143281
:1022B0000B69012B04D1D0F814321343C0F8143247
:1022C000096A012904D1D0F81C121143C0F81C126C
:1022D000D0F8001221F00101C0F80012002010BD5A
:1022E000006400407047000070B504460025206877
:1022F000C168C1F300114269C2F3C0021023002972
:1023000002D00AB15D01C36020680169C1F3001108
:102310004269C2F3801219B112B145F480650361BC
:1023200020684169C943C9072ED182686949914330
:102330001DD000218368684A9A431AD0002286681B
:10234000664BB34317D00023114319431CD0816857
:10235000C1F340018268C2F340228068C0F340406C
:102360001143014309D02046FEF788FD07E0012113
:10237000E0E70122E3E70123E6E745F40065206892
:102380008168574A114381602068C16801F00301E8
:102390004069C0F3400021B118B100212046FEF78A
:1023A000CFFC2068016901F003014069C0F300100F
:1023B00021B118B101212046FEF7C2FC206C284350
:1023C000206420688169C1F300024169C1F30021E2
:1023D0004369C3F3C0332AB121B11BB1216C41F071
:1023E000010121648169C1F340014269C2F34022C5
:1023F0004369C3F3C03329B122B11BB1216C41F051
:10240000020121648169C1F380014269C2F3802223
:102410004369C3F3C03329B122B11BB1216C41F030
:1024200004012164816911F0700F08D00021426914
:10243000C2F3C0224369C3F3C03311B136E00121B6
:10244000F5E79AB393B3816901F0700140291BD07D
:1024500006DC102909D020290CD0302922D10EE029
:10246000502916D060291DD118E0216C41F00801D7
:10247000216417E0216C41F01001216412E0216C0D
:1024800041F0200121640DE0216C41F04001216404
:1024900008E0216C41F08001216403E0216C41F4EB
:1024A00080712164816921F070018161206C0028B4
:1024B0000ED0216804204860012084F83C00206888
:1024C000416948F65172914341612046FFF70AFF86
:1024D00070BD0000030000040003000800000310AA
:1024E000190501002DE9F04104460026002C04D016
:1024F00094F83C00002718B107E00120BDE8F08106
:1025000084F83D70204600F0AFF8022084F83C00CB
:102510002068016821F0020101602068016841F033
:102520000101016001F0A4F805464FF003080AE03C
:1025300001F09EF8401B0A2805D984F83C8084F8F5
:102540003D700320DAE720684068C007F0D02068BB
:102550004168C9077BD0A169012940D0016821F0F9
:1025600080010160E06901283ED02068016821F007
:1025700040010160206A01283CD02068016821F0F8
:1025800020010160606A01283AD02068016821F0CA
:1025900010010160A06A012838D02068016821F08C
:1025A00008010160E06A012836D02068016821F046
:1025B00004010160D4E902010843D4E90412114383
:1025C00008436168491E08432168C86120680168A2
:1025D00021F00101016001F04BF805462EE0016891
:1025E00041F080010160BDE72068016841F04001D1
:1025F0000160BFE72068016841F020010160C1E788
:102600002068016841F010010160C3E7206801689B
:1026100041F008010160C5E72068016841F004014C
:102620000160C7E701F024F8401B0A2806D984F8A6
:102630003C8084F83D70032060E708E02068406833
:10264000C007EFD120684068C00700D10126012EE5
:1026500004D0042084F83C0001204FE727640120C7
:1026600084F83C00002049E710B586B004461421E8
:1026700001A8FDF7EFFD1C492068884231D10021F7
:102680001A48026842F000720260026802F00072AA
:102690000092026842F080620260006800F0806090
:1026A000009012481038026842F00202026000688E
:1026B00000F00200009042F22000019002200290FF
:1026C0000391012004900920059001A9084800F019
:1026D000E7FE084908484A6BC0F84C22096BC0F86D
:1026E000501206B010BD00000068004040380240A3
:1026F00000040240003400200803002030B5002907
:102700000FD190F83C20222A0ED090F83C20422A8B
:102710000AD090F83C20622A06D090F83C20722A19
:1027200002D0012902D011E0022030BD90F83C20F7
:10273000322A32D090F83C20522A2ED090F83C20F9
:10274000622A2AD090F83C20722A26D090F83D20A8
:10275000012A24D0012280F83D206223722401B393
:1027600090F83C20122A32D0222A34D0422A35D086
:10277000322280F83C20002303640268546940F64A
:1027800001752C43546180F83D3051B300684169B4
:1027900041F050014161002030BD022030BD0220D7
:1027A00030BD90F83C20122A07D0322A09D0522A94
:1027B0000AD0222280F83C20DDE7422280F83C202B
:1027C000D9E780F83C30D6E780F83C40D3E7522286
:1027D00080F83C20CFE780F83C30CCE780F83C40E4
:1027E000C9E70068416941F00A014161D3E700008F
:1027F00070B504460F490868C00602D50868002075
:1028000008600D48D0F84C12886860B90B480B6915
:102810002F25426805EBC3031A4442600A7B09680E
:10282000054803F0FEFE2046BDE870400021FFF79A
:1028300065BF00000C68004008030020A84300208A
:102840002DE9F05F04460E4622689068400105D4E9
:102850009068000102D49068C00075D594F83D00DE
:10286000012812D0012784F83D7094F83C002228FA
:102870000ED0322810D0622812D0122084F83C00EA
:102880009068400110D5002514E00220BDE8F09FBB
:10289000422084F83C00F3E7522084F83C00EFE744
:1028A000722084F83C00EBE79068000101D5012517
:1028B00000E002254FF4C07000EB0510115801F044
:1028C00001011150216B8A68EAB3236853F800C0F4
:1028D0004CEA020CCA68496842EAC1014CEA010CA0
:1028E00043F800C0216B0A7C02F00F020A614FF42A
:1028F000C271226801EB0511535823F00F035350A6
:1029000022685358D4F830C0DCF810C043EA0C03F6
:102910005350216B0A7DCB7D42EA03628B7D497D5A
:102920001B0443EA01210A434FF4C473216803EBFB
:102930000513CA50216B0A7ECB7E42EA03628B7E6E
:10294000497E1B0401E018E070E043EA01210A43DC
:102950004FF4C673216803EB0513CA5021680A5867
:1029600042F001020A5000F083FE80464FF0000959
:10297000DFF8C4A0DFF8C4B02AE022681358D1F809
:102980000CC0098843EA0C0343EA41511150A9E7FE
:10299000701C1DD02EB100F06BFEA0EB0800B04201
:1029A00016D9032084F83C004DB1012D0BD02168CD
:1029B0004FF40000886084F83D90032066E72168AA
:1029C00080208860F7E721684FF400408860F2E7D4
:1029D000A5B1012D18D02068816819488843D7D146
:1029E00094F83C00422815D0522817D0722819D0EC
:1029F00084F83C7084F83D90002047E720688068A8
:102A00003AEA0000ECD0C3E7206880683BEA0000A7
:102A1000E6D0BDE7222084F83C00EBE7322084F8C2
:102A20003C00E7E7622084F83C00E3E7042084F8F8
:102A30003C0001202AE70000030000040003000816
:102A400000000310704700002DE9F84304464FF0E2
:102A50000009CDF800906F484FF416510068B0FBA4
:102A6000F1F7A56D2E6894F85C00082202FA00F1D7
:102A7000314210D02068016849070CD5016821F067
:102A80000401016094F85C0002FA00F1A960606D35
:102A900040F00100606594F85C104FF0010808FAFE
:102AA00001F0304208D021684969090604D5A860C0
:102AB000606D40F00200606594F85C10042088406E
:102AC000304208D021680968890704D5A860606D84
:102AD00040F00400606594F85C101020884030429B
:102AE00020D02168096809071CD5A8602068016802
:102AF00049030CD50068000304D4216C91B1204631
:102B000088470FE0A16C69B1204688470AE0016858
:102B1000C90503D4016821F008010160216C09B1E5
:102B20002046884794F85C102020884030424CD0E2
:102B300021680968C90648D5A86094F835000528B9
:102B40000BD020680168490330D50068000328D401
:102B5000616C51B32046884737E02068016821F056
:102B6000160101602068416921F080014161206CFB
:102B700008B9A06C20B12068016821F0080101604B
:102B800094F85C103F208840A86084F8349084F862
:102B90003580216D00293BD001B02046BDE8F043CF
:102BA0000847E16B09B1204688470EE00168C90576
:102BB00007D4016821F01001016084F8349084F892
:102BC0003580E16B09B120468847606D00281FD031
:102BD000606DC00714D0052084F8350020680168B6
:102BE00021F0010101600098401C0090B84203D818
:102BF00020680068C007F6D184F8349084F83580E6
:102C0000E16C002904D001B02046BDE8F04308473C
:102C1000BDE8F883400000202DE9F041044600F0B3
:102C200027FD05465CB1002684F83460022084F854
:102C300035002068016821F0010101600DE00120EC
:102C4000BDE8F08100F014FD401B052805D92020C7
:102C50006065032084F83500F2E720680068C0074B
:102C6000F0D121680A6820480240D4E901031843E2
:102C7000D4E903352B43184363691843A369184308
:102C8000E3691843236A18431043626A042A03D194
:102C9000D4E90B231A43104308602068406920F0F0
:102CA0000700656A29460543012704290DD1A06A5A
:102CB0000543E06A48B12046FEF754FA28B14020A7
:102CC000606584F835700120BAE7206845612046C8
:102CD000FEF732FA94F85C203F21914081606665EE
:102CE00084F835700020ABE73F8010F02DE9F0410B
:102CF00004460025A66D94F8340001280DD001206B
:102D000084F8340094F835700020012F07D084F83F
:102D1000340002252846BDE8F0810220FBE70227A7
:102D200084F8357060652046FEF758FA94F85C1018
:102D30003F208840B0602068016841F016010160C2
:102D4000206C20B12068016841F008010160206812
:102D5000016841F001010160DCE7000070B5044644
:102D600000F086FC0546601C02D00448007804444C
:102D700000F07EFC401BA042FAD370BD340000205E
:102D80002DE9F04704460E46DFF88C8098F81800CD
:102D900001280BD0012088F818004CF25039484621
:102DA000FEF714FD0246100003D02FE00220BDE81C
:102DB000F0874FF0FF3030602068184F012801D0B5
:102DC000A5681CE0207C6168FEF76EFC4846FEF7B3
:102DD000FDFC0246386820F00400386014E0217CD5
:102DE0002846FEF70FFC4846FEF7F0FC024638681E
:102DF00020F0FA0038600AB1356005E06D1CD4E9B6
:102E000002100844A842EAD8FEF724FC002088F803
:102E100018001046CBE7000040380020103C02406C
:102E20000348016841F00041016000207047000044
:102E3000103C02402DE9F0470646894614461D46DF
:102E4000194F387E012808D0012038764CF25038CE
:102E50004046FEF7BBFC18B114E00220BDE8F08745
:102E60009EB1012E16D0022E19D022462B4648467E
:102E7000FEF73EFC4046FEF7A9FC0C490A6822F02A
:102E800001020A6000213976E8E7E1B24846FEF720
:102E90001FFCEFE7A1B24846FEF740FCEAE72146F7
:102EA0004846FEF74DFCE5E740380020103C024064
:102EB000002007490A68002A09DA054A054B0C3A3E
:102EC0001360054B13600968002900DA0120704780
:102ED000103C024023016745AB89EFCD2DE9F05F3F
:102EE0000446DFF80084DFF8F4B3DFF8F493FE4D16
:102EF000DFF8F8A3FE4EA8F10207202C03D0402CE7
:102F000001D0802C22D196F82D1286F82E12DAF8F4
:102F10000000C0F3421086F82D0240EAC101C9B298
:102F200086F82F1298F800201BF8011012FB01F10F
:102F300049B286F8FA1199F80020082A07D0012929
:102F400030D0491C2ED0E8B3072869D06CE0411E70
:102F5000062919D2297B01290AD002290AD003297E
:102F60000AD004290AD005290AD006290AD00FE080
:102F7000A8710DE0E8710BE0287209E0687207E0C3
:102F8000A87205E0E87203E04FF4806002F02EFDC5
:102F900096F9FA01002847DA98F80000404288F8CC
:102FA000000041E0FDF7E0FD96F82D02012820D158
:102FB000D048006806F5FE7680B2F086318FB38F78
:102FC000421A00E02CE07968CB1A02EB034232642B
:102FD0003087F16356F8140CA6F5FE76642808DDF8
:102FE00096F8FC01012804D1B6F8E00108B103F01D
:102FF000D9FB96F8F801B8B9B6F9F411002908DA46
:1030000096F82D0280F0070086F83002FDF7E4FC08
:103010000AE096F82D0286F83102FDF7DDFC03E0A8
:103020004FF4806002F0E2FCB4F5005F05D0B4F527
:10303000804F02D0B4F5004F21D106F28D263078B2
:103040007070FEF705FD3070717840EAC101C9B2B9
:10305000B17098F801201BF8011012FB01F149B280
:1030600006F8331CA6F28D2699F80020092A07D00D
:10307000012930D0491C2ED0F0B3072869D06CE06C
:10308000411E062919D2A97F01290AD002290AD096
:1030900003290AD004290AD005290AD006290AD012
:1030A0000FE028760DE068760BE0A87609E0E87678
:1030B00007E0287705E0687703E04FF4004002F06E
:1030C00095FC96F95A02002847DA98F80100404228
:1030D00088F8010041E0FDF79FFD96F88D02012878
:1030E00020D18448006806F5177680B2F086318FCB
:1030F000B38F421A796800E02BE0CB1A02EB03424F
:1031000032643087F16356F8140CA6F517766428FC
:1031100008DD96F85C02012804D1B6F8400208B137
:1031200003F056FC96F85802B8B9B6F954120029C3
:1031300008DA96F88D0280F0070086F89002FDF715
:10314000A9FC0AE096F88D0286F89102FDF7A2FC30
:1031500003E04FF4004002F049FC012C12D1B6F913
:103160001200002807DDB6F8520058B1A0F10100A6
:10317000A6F8520006E005DAB6F8520000F10100A8
:10318000A6F85200022C12D1B6F97200002807DD11
:10319000B6F8B20058B1A0F10100A6F8B20006E0FE
:1031A00005DAB6F8B20000F10100A6F8B200042C6E
:1031B00012D1B6F9D200002807DDB6F8120158B1D5
:1031C000A0F10100A6F8120106E005DAB6F8120136
:1031D00000F10100A6F81201082C12D1B6F9720311
:1031E000002807DDB6F8B20358B1A0F10100A6F837
:1031F000B20306E005DAB6F8B20300F10100A6F862
:10320000B203DFF8F4B0DFF8F4904FF000054FF0B0
:103210000108102C07D1DAF800000009C00708D017
:103220003888401E3880DFF8D8A0B4F5006F24D06D
:1032300070E0DAF800000009C007F4D13888401CBB
:1032400038802D4820300560001D05600560CBF8F2
:10325000008086F85C522B480178491C017086F882
:103260005882D9F8BC09D9F8BC190068401C08601C
:103270004FF0804002F0BAFBD5E7DAF81000C00A40
:10328000C00747D1DAF81000C00AC00742D11E4972
:1032900044F2A21008601D4908601B482038C0F89D
:1032A00000801A482038C0F80080A6F83451A6F8EB
:1032B000945186F83C5186F89C5186F8388186F8FE
:1032C00098814FF0806002F091FBD9F8C809D9F8D5
:1032D000C8190068401C0860B86819E02CC90008CB
:1032E000090000202A00002048420020100C024063
:1032F000083D0020241400401404014014CF0008AD
:1033000000000240070000203444014034480140DE
:10331000401CB860B4F5806F66D1DAF81000800AFE
:10332000C00761D1DAF81000800AC0075CD14FF005
:1033300080477D63BD63012211464E4800F091F93C
:10334000012202214B4800F08CF9B582FD633D64F7
:1033500001220421474800F084F901220821454850
:1033600000F07FF9A6F8745043480560001D056021
:10337000811501223F4800F074F9012251023D48B5
:1033800000F06FF9A6F8D4503B4808300560001DE6
:10339000056001150122374800F063F90122D102CE
:1033A000344800F05EF9A6F87453C7F81480324828
:1033B0002038C0F80080357786F87C5086F8DC50DD
:1033C00086F87C5386F8188086F8788086F8D8804E
:1033D00086F87883D9F8D409D9F8D4190068401C44
:1033E0000860F81002F002FBB4F5007F40D1DAF873
:1033F0001000400AC0073BD1DAF81000400AC007AD
:1034000036D11E4942F2D1000860091D08601C48EF
:1034100005601C480564C0F8148018482038C0F8BE
:103420000080CBF80080A6F8D453A6F83454A6F850
:103430009454A6F8F45486F8DC5386F83C5486F885
:103440009C5486F8FC5486F8D88386F8388486F82D
:10345000988486F8F884D9F8E009D9F8E01900686A
:10346000401C0860BDE8F05F4FF0805002F0BEBA2B
:10347000BDE8F09F000C02403408004034040040D6
:10348000400401400000014010B504490A680242AE
:1034900002D00860FFF722FD10BD0000143C01407F
:1034A0002DE9F84F0022DFF880A14FF003084FF01C
:1034B0000F090AF1040B012595400B682B40AB4224
:1034C00072D14C68012C05D0022C03D0112C01D0F4
:1034D000122C10D18668540008FA04F7BE43CF6856
:1034E000A740374387604468AC430D79C5F30015A6
:1034F000954025434560C468570008FA07F5AC437A
:103500008E68BE402643C6604C68022C01D0122C47
:1035100012D1D40800EB840CDCF820605407E40ED0
:1035200009FA04FE26EA0E06D1F810E00EFA04FEAF
:103530004EEA060ECCF820E00468AC430D7905F0A5
:103540000305BD40254305604C68E40065D5374C54
:10355000256845F480452560246804F4804400947F
:10356000334C22F003052544D5F808789407260F3C
:1035700009FA06F4A7432F4CA04201D1002424E00D
:103580002D4CA04201D101241FE02C4CA04201D1BE
:1035900002241AE02A4CA04201D1032415E0294C50
:1035A000A04202D1042410E037E0274CA04201D110
:1035B00005240AE0254CA04201D1062405E0244C54
:1035C000A04201D1072400E00824B4403C43C5F8E0
:1035D0000848DAF800409C434D68ED0300D51C43D1
:1035E000CAF80040DBF800409C434D68AD0300D5AD
:1035F0001C43CBF800400C4D08352C689C434E68AA
:10360000F60200D51C432C60074D0C352C689C43FA
:103610004E68B60200D51C432C60521C102AFFF4E1
:103620004AAFBDE8F88F0000003C0140443802403A
:103630000030014000000240000402400008024047
:10364000000C02400010024000140240001802402A
:10365000001C02400069084201D001207047002090
:103660007047002A01D08161704709048161704769
:1036700001488068704700003400002000684AF666
:10368000AA21016000207047024881680278114435
:10369000816070473400002010B50B48016841F488
:1036A00000710160016841F480610160016841F4CA
:1036B00080710160032000F083F8002000F006F81C
:1036C00000F026F8002010BD003C024070B5044612
:1036D0000D4D4FF47A712878B1FBF0F00B49096871
:1036E000B1FBF0F000F046FD08B1012070BD102CD8
:1036F00007D200222146501E00F042F86C600020E4
:1037000070BD012070BD000034000020400000208A
:1037100082B00B48016841F480410160006800F408
:10372000804001900648001F016841F0805101600F
:10373000006800F080500190052002B000F040B811
:103740004438024000280DDB00F01F0201219140A7
:103750004009800000F1E020C0F88011BFF34F8FD6
:10376000BFF36F8F7047002809DB00F01F020121B3
:1037700091404009800000F1E020C0F8001170473E
:10378000F0B40D460D4B1B68C3F30223C3F10704CD
:10379000042C00D90424191D072901D2002300E0BC
:1037A000DB1E012606FA04F1491E294099409E407D
:1037B000761E16403143F0BC07F0A4BC0CED00E0CF
:1037C00000F00701054A10684FF6FF03184040EA71
:1037D0000120034908431060704700000CED00E031
:1037E0000000FA052DE9F04704460D46002C13D0E1
:1037F000DFF82891D9F80000EFB200F00F00A842DE
:103800000CD289F80070D9F8000000F00F00A8422F
:1038100004D00120BDE8F0870120FBE72068404E7E
:10382000810712D5400703D5306840F4E05030607E
:103830002078000703D5306840F46040306030687D
:10384000A16820F0F000084330602078C00731D034
:10385000334960680839012808D002280BD00328B2
:1038600009D0096889070BD40120D3E709688903C7
:1038700006D40120CEE70968890101D40120C9E7F7
:10388000316821F0030101433160FFF7F1FE80460A
:1038900041F2883A07E0FFF7EBFEA0EB0800504545
:1038A00001D90320B6E73068616800F00C00B0EB86
:1038B000810FF0D1D9F8000000F00F00A84209D91B
:1038C00089F80070D9F8000000F00F00A84201D07C
:1038D00001209FE72078400705D53068E16820F493
:1038E000E050084330602078000706D53068216931
:1038F00020F4604040EAC100306000F03FF83168D9
:10390000084AC1F30311515CC840074908600748E1
:103910000068FFF7DBFE00207CE70000003C02406F
:103920000838024074C90008400000203800002018
:1039300001480068704700004000002000B5FFF714
:10394000F7FF04490968044AC1F38221515CC84069
:1039500000BD00000838024084C9000800B5FFF728
:10396000E7FF04490968044AC1F34231515CC84089
:1039700000BD00000838024084C9000810B517488F
:10398000006810F00C01164816D0164B042912D00E
:10399000082911D1114C241F216801F03F02216830
:1039A00049020AD52068C0F38810A0FB0301002358
:1039B000FCF706FC09E0184610BD21680023C1F39E
:1039C0008811A1FB0001FCF7FBFB2168C1F3014159
:1039D000491C4900B0FBF1F010BD0000083802405E
:1039E0000024F40040787D012DE9F84F0446002CB6
:1039F00013D02078DFF8AC83C007A8F1040556D0B7
:103A000008F104000168C1F3810101290CD00068AC
:103A1000C0F38100022803D00DE00120BDE8F88F3B
:103A2000D8F80000400206D5286880033FD56068BA
:103A300070BB0120F2E76068B0F5803F10D0B0F5B0
:103A4000A02F12D0286820F480302860286820F445
:103A5000802028606068E0B1FFF70AFE064614E0A7
:103A6000286840F480302860F4E7286840F480201B
:103A70002860286840F480302860EBE7FFF7F8FD05
:103A8000801B642801D90320C8E728688003F5D586
:103A90000DE0FFF7EDFD064606E0FFF7E9FD801BB0
:103AA000642801D90320B9E728688003F5D4207879
:103AB000BD4F80074FF0000948D5BA48001D016886
:103AC00011F00C0F08D00068C0F38100022813D158
:103AD000D8F8000040020FD42868800704D5E068B9
:103AE000012801D0012099E72868216920F0F80019
:103AF00040EAC100286029E0E068B8B101203860E0
:103B0000FFF7B6FD064606E0FFF7B2FD801B022870
:103B100001D9032082E728688007F5D52868216944
:103B200020F0F80040EAC10028600FE0C7F80090DC
:103B3000FFF79EFD064606E0FFF79AFD801B022870
:103B400001D903206AE728688007F5D420780007A8
:103B500029D5DFF850A2954861690AF1700A89B148
:103B600001210160FFF784FD064606E0FFF780FDB6
:103B7000801B022801D9032050E7DAF800008007F3
:103B8000F4D510E0C0F80090FFF772FD064606E09D
:103B9000FFF76EFD801B022801D903203EE7DAF80B
:103BA00000008007F4D4207840076ED500267D48B9
:103BB0003C300068C0000AD47A483C30016841F0CB
:103BC00080510160006800F0805000900126DFF80D
:103BD000E0B1DBF80000C00515D4DBF8000040F4CC
:103BE0008070CBF80000FFF743FD824607E0FFF747
:103BF0003FFDA0EB0A00022801D903200EE7DBF805
:103C00000000C005F3D5DFF89CB1A0680BF16C0B88
:103C1000012813D0052818D0DBF8000020F001009F
:103C2000CBF80000DBF8000020F00400CBF8000027
:103C3000A06830B3FFF71CFD82461DE0DBF80000F2
:103C400040F00100CBF80000F2E7DBF8000040F0A4
:103C50000400CBF80000DBF8000040F00100CBF8D6
:103C60000000E5E7FFF704FDA0EB0A0141F2883010
:103C7000814201D90320D1E6DBF800008007F1D5AD
:103C800012E0FFF7F5FC82460AE015E0FFF7F0FCD2
:103C9000A0EB0A0141F28830814201D90320BDE640
:103CA000DBF800008007F1D4012E05D13D483C30FF
:103CB000016821F080510160A069B8B33949091D3C
:103CC0000968C1F38101022947D0022805D0C7F84D
:103CD0006090FFF7CDFC04463BE0C7F86090FFF72B
:103CE000C7FC064606E0FFF7C3FC801B022801D98B
:103CF000032093E628688001F5D4D4E9070108433E
:103D0000616AA26A4FF0FF33890103EB520241EA74
:103D10000241084394F82C1040EA0160C8F8000002
:103D200001203866FFF7A4FC044607E037E0FFF700
:103D30009FFC001B022801D903206FE62868800140
:103D4000F5D52CE0FFF794FC001B022801D90320D5
:103D500064E628688001F5D421E001281DD0D8F858
:103D60000000E26900F48001914214D1226A00F05F
:103D70003F0191420FD147F6C071626A0140914202
:103D800009D1A26A00F44031914204D1E16A00F005
:103D90007060884203D0012040E601203EE600200A
:103DA0003CE600000438024000004742800E4742D3
:103DB000007000404FF0E021042804D0086920F092
:103DC000040008617047086940F00400086170470A
:103DD0002DE9F05FFFF74CFCDFF87893DFF878838C
:103DE000C0074FF001044FF000053ED10520FDF75C
:103DF00055FD4FF4FA76A0B9B9F8F40188B1B8F8D6
:103E00000A00401C80B2A8F80A00B0420BD9A8F8FA
:103E10000A6089F8F84189F8FC51600301F0E6FD79
:103E200001E0A8F80A500620FDF738FDA8B9B9F856
:103E3000540290B1B8F80C00401C80B2A8F80C00F5
:103E4000B0420CD9A8F80C6089F8584289F85C5245
:103E50004FF4804001F0CAFD01E0A8F80C50BE48C4
:103E60002030017841F001010170FFF701FC80076B
:103E70001AD198F80900B94EB94F42F210710A28C8
:103E800012D2DFE800F011051216DF1111E3E8FC91
:103E900004F0E8F998F80000012802D1022088F81F
:103EA00009002820FFF75FFC35E1032088F80900AE
:103EB00031E10026AB4F06EB460009EB4014207FB2
:103EC000012802D0002874D0A9E00E2E72D2DFE8BB
:103ED00006F0636363494907289999637F7F7F7F71
:103EE0009C4890F8F80158B9D7F8B009006805283F
:103EF00006DA9848B0F9F411304605F04DFC8EE032
:103F0000D7F8B0090068052807DB924880F8FC5113
:103F10004FF0005001F06AFD81E08E4880F8FC51BE
:103F20007DE08C4890F8580258B9D7F8BC09006871
:103F3000052806DA8748B0F95412304605F02CFC03
:103F40006DE0D7F8BC090068052807DB4FF080401A
:103F500001F04CFD7F4880F85C5260E07D4880F8BD
:103F60005C525CE0207E50B9D7F8C809006805288B
:103F700005DAB4F91410304605F00EFC4FE0D7F81E
:103F8000C8090068052805DB4FF0806001F02EFDB0
:103F9000257744E0257742E0207E60B9D7F8D40940
:103FA0000068052807DAB4F91410304605F0F4FB70
:103FB00035E031E026E0D7F8D4090068052805DBB4
:103FC0004FF0006001F012FD257728E0257726E00C
:103FD000207E50B9D7F8E0090068052805DAB4F961
:103FE0001410304605F0D8FB19E0D7F8E009006856
:103FF000052805DB4FF0805001F0F8FC25770EE036
:1040000025770CE0207E08B1257708E0B4F914107C
:10401000304605F0C1FB02E0304605F0B1FF761CEA
:10402000F6B20E2EFFF447AFFFF722FB1421B0FBD0
:10403000F1F201FB1200B0BB98F8000098B304F055
:104040007FFB68E0062088F8090064E0306850BB18
:1040500088F809505FE098F80300DFF80C91012818
:104060000CD1C9F83450C9F83850C9F83C50002078
:10407000401C80B28842FBD388F8035000E019E06E
:1040800001F07CF8387C032845D13D743D70C9F8B7
:104090003450C9F83850C9F83C503088400503D432
:1040A00088F8095003E036E0072088F8090088F80E
:1040B000034030E0DFF8B49098F8040009F1040AF6
:1040C0000AF1040B01280CD1C9F80050CAF80050BD
:1040D000CBF800500020401C80B28842FBD388F807
:1040E000045001F0ADF897F82200032813D187F8A7
:1040F0002250BD74C9F80050CAF80050CBF80050E7
:104100003088000402D488F8095002E0072088F8BB
:10411000090088F80440FFF7ABFA1421B0FBF1F274
:1041200001FB120028B903F001FF02F0D5FC04F0F6
:10413000F9F9FFF79DFA4FF47A71B0FBF1F201FB48
:104140001200002804D1BDE8F05F0948FFF796BAD5
:10415000BDE8F09F083D002000000020680000201E
:104160004842002014CF0008000001403404014000
:104170006C42002010B5401EB0F1807F01D30120B9
:1041800010BD4FF0E02460610F21601706F0BAFF08
:104190000020A06107202061002010BD10B5FFF7AE
:1041A00017FE10BD10B51349884222D1124801688C
:1041B000491C016011480069C00BC00719D11049A2
:1041C00048638863C86301224A610E4981F8FC0193
:1041D0000D4B9879401C987181F8F821500701F037
:1041E00005FC0A48D0F8B019D0F8B0090968491C94
:1041F000016010BDE8340020A843002000100240F8
:1042000000000140083D00200000002014CF0008FD
:10421000704710B590F83C20012A22D0012280F886
:104220003C20CA6800238C6822F4407222434C6808
:1042300022F4806222430C6822F4006222430C695B
:1042400022F4805222434C6922F400522243C9696D
:1042500022F480420A4301684A6480F83C3000201E
:1042600010BD022010BD000070B590F83C20012A5E
:1042700031D0012680F83C60022280F83D2002689F
:104280005468936824F070050C682C435460134CF8
:104290000268A24214D0B2F1804F11D0104CA24259
:1042A0000ED0104CA2420BD00F4CA24208D00F4CA3
:1042B000A24205D00E4CA24202D00E4CA24204D122
:1042C00023F080034968194391603C304670002117
:1042D0000170002070BD022070BD00000000014090
:1042E0000004004000080040000C004000040140B1
:1042F000004001400018004010B504460422206828
:1043000006F0A3FA2068416C41F400414164206842
:10431000816801F00701062903D0016841F001011D
:104320000160002010BD10B50446002C03D094F8A5
:104330003D0010B107E0012010BD002084F83C00D2
:10434000204600F00DF8022084F83D00211D206871
:1043500006F008FA012084F83D00002010BD00009E
:10436000F0B587B00446142102A8FBF773FF21685B
:10437000664C65480023654A143C022581422CD1D5
:10438000106840F001001060106800F0010001901A
:10439000206840F010002060206800F010000190BC
:1043A000A80302900395012004900593069002A9AA
:1043B0005748FFF775F8002211461820FFF7E0F97B
:1043C0001820FFF7D0F9002211461920FFF7D8F97D
:1043D0001920FFF7C8F907B0F0BD4C48001FB1F134
:1043E000804F0BD04B4EB14211D1016841F0020118
:1043F0000160006800F002000190ECE7016841F004
:1044000001010160006800F001000190E3E7424E05
:10441000B14208D1016841F004010160006800F078
:1044200004000190D7E73D4EB14208D1016841F048
:1044300010010160006800F010000190CBE7384ED9
:10444000B14210D1016841F020010160006800F024
:1044500020000190002211463720FFF791F9372004
:10446000FFF781F9B7E72F48814208D1106840F083
:1044700002001060106800F002000190ABE72A4FC4
:1044800003262A48B94221D1116841F40031116054
:10449000116801F400310191216841F002012160AD
:1044A000216801F0020101918115029103950493A5
:1044B0000593069602A9FEF7F3FF00221146192084
:1044C000FFF75EF91920FFF74EF984E7184FB9425C
:1044D00081D1116841F480211160116801F48021BB
:1044E0000191216841F002012160216801F002017F
:1044F000019179150291039504930593069602A9FB
:10450000FEF7CEFF67E7000000000140443802409C
:10451000001002400004004000080040001000406D
:104520000014004000040140004401400004024027
:10453000004801400168CA6842F00102CA60006890
:10454000816801F00701062903D0016841F00101EB
:1045500001600020704770B5044694F83C000128C3
:1045600017D0012584F83C50022084F83D002068D3
:10457000826822F0770222F47F4282600868502825
:1045800031D00DDC20284DD005DCB0B310284ED141
:1045900048E0022070BD302844D0402847D137E0A1
:1045A00060282BD0702806D0B0F5805F3FD0B0F5E2
:1045B000005F3CD10BE0CB68D1E90121206806F017
:1045C00051F92068816841F0770181602FE0CB6864
:1045D000D1E90121206806F045F92068816841F49D
:1045E0008041816023E0CA684968206806F01CFAAF
:1045F0005021206806F040F919E013E0CA684968C4
:10460000206806F063FA6021206806F035F90EE0B4
:10461000CA684968206806F007FA4021206806F059
:104620002BF904E022680146104606F025F93C34D7
:1046300065700020207070BD2DE9FF4704462A48B0
:10464000844236D1207F294F012828D1284D0026C9
:104650004FF0010828786FF0020960B3002120466E
:1046600000F070FC6880009600226946204600F049
:1046700041F82068C0F810900021204600F0F0F8C2
:104680002E7085F80180A8886988C0EB0040084436
:1046900080B228814FF4FA71B0FBF1F0E880207FFE
:1046A000022806D10421204600F04CFCB869401CC9
:1046B000B861BDE8FF8720684662AE806E80022048
:1046C000009000226946204600F014F82068C0F8E7
:1046D00010900021204600F0C3F885F8008078692A
:1046E000401C7861DBE700006836002000000020F5
:1046F000F433002070B504460D4694F83C000128C0
:1047000020D0012684F83C60022084F83D00DAB114
:10471000042A2AD0082A3AD0D5E90012EB6820688A
:1047200006F01AFA2068C16921F44061C16120686D
:10473000C169AA6841EA0221C1613C346670002067
:10474000207070BD022070BDD5E90012EB682068B2
:1047500006F07CF92068816921F00C0181612068F4
:104760008169AA6811438161E7E7D5E90012EB6826
:10477000206806F0BDF92068816921F440618161FB
:1047800020688169AA6841EA02218161D5E7D5E9FB
:104790000012EB68206806F0C6F92068C16921F0B4
:1047A0000C01C1612068C169AA681143C161C4E7F5
:1047B00010B50446002C03D094F83D0010B107E07A
:1047C000012010BD002084F83C00204600F00CF8C9
:1047D000022084F83D00211D206805F0C3FF012060
:1047E00084F83D00002010BD10B586B004461421A9
:1047F00001A8FBF72FFD17492068884227D1002127
:104800001548026842F480320260006800F480308B
:10481000009011481438026842F0100202600068EB
:1048200000F010000090602001900220029003919F
:1048300004910320059001A90848FEF731FE0022EB
:1048400011461820FEF79CFF1820FEF78CFF06B0DB
:1048500010BD0000004001404438024000100240FA
:1048600010B504460029226806D0042909D0082979
:104870000CD00C2913D10EE0D06840F00200D060BB
:104880000DE0D06840F00400D06008E0D06840F04F
:104890000800D06003E0D06840F01000D060012232
:1048A000206805F0C5FF2068816801F0070106292E
:1048B00003D0016841F001010160002010BD70B516
:1048C0000446206801694FF00005C943890716D4E2
:1048D000C168C943890712D4E91E0161012020770C
:1048E00020688069800703D02046FFF7A5FE05E019
:1048F000204600F0DFF9204600F084FA2577206892
:104900000169C943490718D4C168C943490714D488
:104910006FF004010161022020772068806910F4A3
:10492000407F03D02046FFF787FE05E0204600F0D9
:10493000C1F9204600F066FA257720680169C9436D
:10494000090717D4C168C943090713D46FF00801D8
:104950000161042020772068C069800703D02046C9
:10496000FFF76AFE05E0204600F0A4F9204600F0BB
:1049700049FA257720680169C943C90618D4C16876
:10498000C943C90614D46FF01001016108202077D3
:104990002068C06910F4407F03D02046FFF74CFE2A
:1049A00005E0204600F086F9204600F02BFA257736
:1049B00020680169C943C90708D1C168C943C9074B
:1049C00004D1891E0161204600F040FA2068016987
:1049D000C943090609D4C168C943090605D46FF063
:1049E000800101612046FFF7DDFB20680169C943B2
:1049F000490609D4C168C943490605D46FF040018E
:104A00000161204600F0B4FA20680169C9438906B3
:104A10000BD4C168C943890607D46FF02001016136
:104A20002046BDE87040FFF7F3BB70BD2DE9F041B3
:104A300086B00446142101A8FBF70CFC7C482168D1
:104A400000247C4A0225012681421DD1106840F0D5
:104A500010001060106800F0100000904FF4FE404D
:104A600001900295039404940596734C01A9204685
:104A7000FEF716FD69030191039501A92046FEF793
:104A80000FFD06B0BDE8F0816C4FDFF8B481B1F1E5
:104A9000804F27D06B4881424BD1106840F0010015
:104AA0001060106800F001000090106840F00200F3
:104AB0001060106800F002000090802001900295C4
:104AC00003940494059501A94046FEF7E9FC1320E0
:104AD0000190029503940494059501A93846FEF7C8
:104AE000DFFCCEE7106840F002001060106800F0B4
:104AF00002000090106840F001001060106800F0A3
:104B00000100009040F6084001900295039404943F
:104B1000059601A93846FEF7C3FC4FF4004001900A
:104B2000029503940494059601A94046FEF7B8FC4B
:104B3000A7E74548814213D1106840F00800106093
:104B4000106800F0080000904FF47040019002954A
:104B500003940494059501A93C48FEF7A1FC90E755
:104B60003B480326814237D1106840F001001060B5
:104B7000106800F001000090106840F00200106022
:104B8000106800F002000090106840F0040010600F
:104B9000106800F00400009020200190029503941A
:104BA0000494059601A94046FEF77AFCB0030190F3
:104BB000029503940494059601A93846FEF770FC0B
:104BC0004FF470700190029503940494059601A926
:104BD0002048FEF765FC54E71F48814212D1106857
:104BE00040F002001060106800F00200009088158C
:104BF0000190029503940494059601A93846FEF7A6
:104C00004FFC3EE71548814292D1106840F0020007
:104C10001060106800F002000090481501900295A5
:104C200003940494059601A93846FEF739FC28E759
:104C300000000140303802400010024000040240F1
:104C4000000002400004004000080040000C024048
:104C500000040140000802400044014000480140B7
:104C600070B5044694F83C0001280DD0012584F865
:104C70003C50022084F83D0042B1042A0AD0082AA0
:104C80000CD00C2A11D10DE0022070BD206805F077
:104C9000FBFD0AE0206805F02BFE06E0206805F029
:104CA00061FE02E0206805F095FE3C34657000204E
:104CB000207070BD704710B50446002C03D094F8E6
:104CC0003D0010B107E0012010BD002084F83C0039
:104CD000204600F00CF8022084F83D00211D2068D9
:104CE00005F040FD012084F83D00002010BD704714
:104CF00070B504460D4694F83C0001280DD00126FD
:104D000084F83C60022084F83D0042B1042A1AD0A5
:104D1000082A2DD00C2A53D13EE0022070BD29462E
:104D2000206805F0B1FD2068816941F008018161CA
:104D30002068816921F004018161206881692A6904
:104D4000114381613CE02946206805F0D1FD2068CF
:104D5000816941F4006181612068816921F4806189
:104D60008161206881692A6941EA0221816127E025
:104D70002946206805F0F6FD2068C16941F0080168
:104D8000C1612068C16921F00401C1612068C16965
:104D90002A691143C16113E02946206805F01AFE13
:104DA0002068C16941F40061C1612068C16921F4D2
:104DB0008061C1612068C1692A6941EA0221C1613B
:104DC0003C3466700020207070BD10B50446002C85
:104DD00003D094F83D0010B107E0012010BD002081
:104DE00084F83C00204600F00CF8022084F83D00D6
:104DF000211D206805F0B6FC012084F83D0000204C
:104E000010BD70477047000010B5044601222068AD
:104E100005F00EFD0B482168814202D00A4881420C
:104E200003D1486C40F4004048642068816801F078
:104E30000701062903D0016841F00101016000204B
:104E400010BD000000000140000401402DE9F041C8
:104E500004462DED028B00252F48304F84421AD195
:104E60002F490868C20707D020F00100086001221E
:104E70002C492D4806F094F801F030FE01F000FCBA
:104E800001F014FDF869401CF86128490022081A55
:104E9000AA4100DAFD61264884422FD125490868DD
:104EA000401C0860800729D1234E9FED248B96F883
:104EB0001C03012806D17869052808DC38B1C6F83A
:104EC00008537D6196F8BC0201280BD016E0FBF771
:104ED0004BFA53EC182BFBF7D5F9FBF756FAC6F84B
:104EE0000803EEE7B869FBF73FFA53EC182BFBF722
:104EF000C9F9FBF74AFAC6F8A802BD610C48803030
:104F0000844204D1A0F51D718888401C8880BDECC6
:104F1000028BBDE8F0810000E83400200000002092
:104F200014010020544400200803002000286BEEE8
:104F3000E83500202C000020083D00205C8FC2F5E1
:104F4000289C6C4002460020002908D0042909D082
:104F500008290AD00C2901D11068006C704710682C
:104F6000406B70471068806B70471068C06B70476B
:104F7000704770B50446002C04D094F83900002521
:104F800010B106E0012070BD84F83850204600F0D2
:104F900023F8242084F839002068C16821F40051E6
:104FA000C160204605F05AFE2068016921F4904155
:104FB00001612068416921F02A0141612068C168CE
:104FC00041F40051C160E563202084F8390084F881
:104FD0003A00002070BD000010B586B004461421D0
:104FE00001A8FBF737F918492068884229D1002128
:104FF0001648026842F480220260006800F48020B3
:10500000009012481038026842F004020260006802
:1050100000F0040000904FF44060019002200290E4
:105020000391032004900720059001A90848FEF78A
:1050300037FA002211462720FEF7A2FB2720FEF7B1
:1050400092FB06B010BD000000480040403802400E
:105050000008024090F83A30202B01D0022070471F
:10506000F9B1F2B190F83830012B1CD08162828501
:10507000C2850021C163222280F83A2080F83810CE
:105080000168CA6842F48072CA6001684A6942F0E5
:1050900001024A610068C16841F02001C16000203E
:1050A000704701207047022070472DE9F8430446FD
:1050B0000D4690461E4694F83900202802D0022062
:1050C000BDE8F883D5B1B8F1000F17D094F83800D7
:1050D000012815D0012084F838004FF00009C4F8E9
:1050E0003C90212084F83900FEF7C2FA0746A4F864
:1050F0002480A4F8268084F838902DE00120DFE792
:105100000220DDE7E08C401EE084A068B0F5805FFF
:1051100009D03B46002280212046009605F08EFEF5
:10512000B0B10320CCE73B46002280212046009608
:1051300005F084FE08B10320C2E728882168C0F387
:1051400008004860206908B16D1C05E0AD1C03E053
:10515000216815F8010B4860E08C0028D2D13B464D
:10516000002240212046009605F068FE08B1032089
:10517000A6E7202084F839000020A1E770B52E4C66
:10518000217C00290AD003254FF4806001293BD0FF
:10519000022902D100F02AFC257470BD2278012377
:1051A0000C2A2FD200206188491C89B26180A58811
:1051B000A942F2D900216180217B491CC9B2217327
:1051C000062900D92373217B012900D10620022959
:1051D00000D10420032900D10520042900D1012099
:1051E000052900D10320062900D10220521C22707B
:1051F000124AB4F90E1051639163D163BDE8704057
:10520000FCF7CEBB237470BDA179E27991420FD037
:10521000217A8A420CD0627A914209D0A17A8A42DC
:1052200006D0E27A914203D000F0CEFB257470BD27
:105230000220207470BD00004842002000000140A0
:1052400070B5314C94F8221000290BD003254FF48F
:10525000004001293ED0022903D100F0C7FB84F8A9
:10526000225070BDA27C01230C2A30D20020A18ADA
:10527000491C89B2A182E58AA942F2D90021A18202
:10528000A17F491CC9B2A177062900D9A377A17FC4
:10529000012900D10620022900D10420032900D1D0
:1052A0000520042900D10120052900D10320062969
:1052B00000D10220521CA274FCF79EFB1349B4F9E2
:1052C00020000860091D0860091D086070BD84F891
:1052D000223070BD217E627E914210D0A17E8A4232
:1052E0000DD0E27E91420AD0217F8A4207D0627FB0
:1052F000914204D000F068FB84F8225070BD022077
:1053000084F8220070BD00004842002034040140AF
:10531000FEE700002DE9F0412F4F00260125D7F8C8
:10532000B0092E4C0068052806DB680700F05EFB1C
:1053300084F8F85184F8FC61D7F8BC0900680528A6
:1053400007DB4FF0804000F051FB84F8585284F89E
:105350005C62D7F8C809006805280BDB4FF0806055
:1053600000F044FB84F83C6184F8385184F89C6177
:1053700084F89851D7F8D4090068052811DB4FF05C
:10538000006000F033FB267784F87C6084F8DC60F2
:1053900084F87C63257684F8785084F8D85084F8B3
:1053A0007853D7F8E0090068052813DB4FF08050E8
:1053B00000F01CFB84F8DC6384F83C6484F89C6493
:1053C00084F8FC6484F8D85384F8385484F89854EA
:1053D00084F8F854BDE8F08114CF0008083D00209F
:1053E0002DE9F04188B00546087800F07F06C868CE
:1053F0004FF00008022814D0087D00F07F04AF1998
:1054000097F83800A04206D06B6C224631462846F9
:10541000984787F8384097F838000F2820D00024A4
:105420003BE02878B0421BD100F5E06001900121FB
:105430000591CDF81080287B8DF81800194A937AD1
:1054400033B140F080008DF8180082F80A8000E047
:105450009172009106AB0021049A0198FBF736FC8B
:1054600008B0BDE8F081286B50F82400C0F3074174
:105470008E4210D187B2686B30F91400FBF7C4FE7E
:105480003B46094A21462846CDF8008004F040F901
:10549000696B21F81400641CE4B2E86A0078A04249
:1054A000E1D8DDE7803300205B0F00082DE9F041F3
:1054B000D249A1F1380002F02BFED1482821818188
:1054C0003222428240F6CE02C28140F2E9320281AB
:1054D000CC4800270760CC4A42F2D0001060CB4C89
:1054E000A4F8D203A4F89204012084F8DC0384F821
:1054F0009C0440F24620A0844FF44270E08440F2C5
:10550000CA30208540F28C406085C820E086142097
:105510002087082060870520A08740F24620A4F855
:1055200084004FF44270A4F8860040F2CA30A4F818
:10553000880040F28C40A4F88A00C820A4F89600A5
:105540001420A4F898000820A4F89A000520A4F8D4
:105550009C0040F24620A4F8E4004FF44270A4F806
:10556000E60040F2CA30A4F8E80040F28C40A4F80B
:10557000EA00C820A4F8F6001420A4F8F8000820D7
:10558000A4F8FA000520A4F8FC0040F24620A4F894
:1055900084034FF44270A4F8860340F2CA30A4F8A2
:1055A000880340F28C40A4F88A03C820A4F896032C
:1055B0001420A4F898030820A4F89A030520A4F85E
:1055C0009C0340F2F730A4F8440140F2AA50A4F83A
:1055D000460140F23B60A4F8480140F2CC60A4F8D8
:1055E0004A01C820A4F856011420A4F85801082044
:1055F000A4F85A010520A4F85C0140F2F730A4F8A1
:10560000A40140F2AA50A4F8A60140F23B60A4F81D
:10561000A80140F2CC60A4F8AA01C820A4F8B60101
:105620001420A4F8B8010820A4F8BA010520A4F8B1
:10563000BC014FF4E870A4F8040240F21442A4F84C
:1056400006224FF49163A4F8083240F2FC46A4F815
:105650000A6241F28830A4F81602C825A4F818524C
:10566000A4F81A121425A4F81C520225A4F8F65125
:105670004FF0050CA4F8ECC1A4F8EEC14FF4E87C9F
:10568000A4F864C2A4F86622A4F86832A4F86A6296
:10569000A4F87602C822A4F87822A4F87A12142179
:1056A000A4F87C12A4F856520521A4F84C12A4F8D0
:1056B0004E120A21A181E181E5764100A4F8521041
:1056C0000A22A4F86C20A4F86E2084F87B50A4F879
:1056D000B210A4F8CC20A4F8CE2084F8DB50A4F8B3
:1056E00012110326A4F82C61A4F82E61A4F88C6191
:1056F000A4F88E61A4F8AC22A4F8AE22A4F80C237E
:10570000A4F80E23A4F86C23A4F86E2384F87B532A
:10571000A4F8B213A4F8F603C821A4F8F8131421CE
:10572000A4F8FA130521A4F8FC130A21A4F8CC1359
:10573000A4F8CE13A4F85604C821A4F858141421D0
:10574000A4F85A140521A4F85C140A21A4F82C1416
:10575000A4F82E14A4F8B604C821A4F8B81414218F
:10576000A4F8BA140521A4F8BC140A21A4F88C14D6
:10577000A4F88E14A4F81605C820A4F8180514205F
:10578000A4F81A050520A4F81C050A20A4F8EC04C6
:10579000A4F8EE041E480068C0F3421084F82D02FD
:1057A000012084F82C02FCF753F984F88D020120C3
:1057B00084F88C021748C821C1820121817787743F
:1057C00041F294110184C822828001220273077081
:1057D000C181062181710422C27105230372012354
:1057E00043728672C5720176427605218176012167
:1057F000C17606774577BDE8F0810000083B0020C0
:10580000EC3800203404004040040140083D0020F2
:10581000100C0240484200202DE9F04780460C461B
:10582000FDF746FBDFF8B8904846FCF75BF82D4ED5
:10583000014630604FF40030B0EB840F01D20220FB
:1058400000E001207060284A0025156002231361E2
:105850009160D0602549F3200860224910460C3140
:10586000FDF78EFA18B175610020BDE8F0870020C1
:105870001F4F20490DE000EB400201EB82025279FC
:1058800032B9736958F8202047F823205B1C7361F4
:10589000401CA042EFD34A461548716905F068FBE9
:1058A00038B1FDF7BDFAC6F808903561002072697D
:1058B0000CE075610020D8E759F8201057F8203027
:1058C0008B4202D03169491C3161401C9042F3D3B4
:1058D0007561306908B10020C7E70120C5E7000005
:1058E00000000408D8330020745000200C3C024013
:1058F0008C4C002014CF00082DE9F05F8B46DDE9C9
:105900000AA517461C465FEA000C07F101012C4866
:105910004FEA47084FEA410608FB05F8A4F10109E0
:1059200006FB05F607D0A0451BD399FBF5F105FB57
:10593000119129B11BE001224021FDF792FE16E0F2
:10594000B4FBF5F1C90707D0BAF1010F04D0012269
:105950004021FDF786FE0AE000224021FDF781FE8E
:1059600005E0A64203D901224021FDF77AFE154841
:105970004FF48051BBF1000F08D0A04519D399FB1B
:10598000F5F205FB12922AB1BDE8F09F0122FDF766
:1059900068FEF9E7B4FBF5F2D20706D0BAF1010FC1
:1059A00003D00122FDF75DFEEEE70022FDF759FE70
:1059B000EAE7A642E8D90122FDF753FEE4E700003A
:1059C000000402400000024070B50546054C606AC4
:1059D000A8436062044806F075FF6068A8436060F1
:1059E00070BD0000440000200803002070B504468C
:1059F000274D686A20436862A96A88423BD081EAE1
:105A000000021144814236D10921224801F1D2021B
:105A100002EB420200EB82029268136801F1D302AA
:105A200002EB420200EB820292681360491EC9B287
:105A30000029EBD1092101F1DC0202EB420200EB6B
:105A400082029268136801F1DD0202EB420200EB70
:105A5000820292681360491EC9B20029EBD1D0F8C6
:105A6000EC29696A11600C490968D0F8640A016080
:105A70000A4901200870686AA862094806F022FFF6
:105A8000686818B120432040686070BD6C6070BDCC
:105A90004400002014CF00083C000020C433002044
:105AA00008030020064AD16A0143D16291680029A7
:105AB00003D001430140916070479060704700003F
:105AC000440000202DE9F0438BB000240794089493
:105AD00009940A945948584F07604FF48031416047
